:020000040800F2
:1000000068E80020FD0100085125000829180008B3
:10001000B12300081908000821340008000000007E
:100020000000000000000000000000006501000862
:10003000B50A00080000000013020008F12B0008B8
:10004000170200081702000817020008170200082C
:10005000170200081702000817020008170200081C
:10006000170200081702000817020008170200080C
:1000700017020008170200087D0800081702000890
:1000800017020008C108000817020008170200083C
:1000900017020008170200081702000817020008DC
:1000A00017020008170200081702000817020008CC
:1000B00017020008170200081702000817020008BC
:1000C00017020008170200081702000817020008AC
:1000D00017020008C92E0008F530000817020008B2
:1000E00017020008170200081702000800000000AD
:1000F0000000000000000000000000000000000000
:1001000000000000000000001702000817020008AD
:10011000170200081702000817020008170200085B
:10012000170200081702000817020008170200084B
:1001300017020008C10C0008170200081702000887
:10014000170200081702000817020008170200082B
:10015000DFF80CD000F094FA0048004779690008F5
:1001600068E80020224B19680868B0E8F00F80F3B7
:100170000988BFF36F8F4FF0000080F311884EF0B5
:100180000D0E70470000000006480068006880F30C
:10019000088862B661B6BFF34F8FBFF36F8F00DF81
:1001A00000BF00BF08ED00E0EFF30980BFF36F8FE1
:1001B0000F4B1A6820E9F00F106008B54FF0BF0030
:1001C00080F31188BFF34F8FBFF36F8F0CF0A4FE45
:1001D0004FF0000080F31188BDE8084019680868F6
:1001E000B0E8F00F80F30988BFF36F8F704700BF4E
:1001F000C8000020EFF305807047000006488047E4
:1002000006480047FEE7FEE7FEE7FEE7FEE7FEE7FB
:10021000FEE7FEE7FEE7FEE7252C00085101000897
:1002200040EA01039B0703D009E008C9121F08C078
:10023000042AFAD203E011F8013B00F8013B521EF8
:10024000F9D27047D2B201E000F8012B491EFBD26F
:1002500070470022F6E710B513460A4604461946D1
:10026000FFF7F0FF204610BD30B5044600200346DE
:1002700000E05B1C934203D2E05CCD5C401BF8D0F5
:1002800030BD30B50B46014600202022012409E094
:1002900021FA02F59D4205D303FA02F5491B04FA3F
:1002A00002F52844151EA2F10102F1DC30BD2DE952
:1002B000F05F0546002092469B46884606468146EA
:1002C00040241BE0284641464746224600F0F9F903
:1002D00053465A46C01A914110D311461846224639
:1002E00000F0E0F92D1A67EB01084F462246012085
:1002F000002100F0D7F917EB00094E41201EA4F1B0
:100300000104DFDC484631462A464346BDE8F09FFB
:100310002DE9FE4F804681EA0300C00F0C46009095
:1003200021F0004123F00045B8EB0200A94105D2BD
:100330004046214690461C460B46024623F00040AC
:10034000104347D0270DC7F30A00C3F30A510290A8
:10035000401A019040286BDAC3F3130040F4801B6D
:100360000098924620B10023D2EB030A63EB0B0BFB
:1003700001985946C0F14002504600F093F90646F4
:100380000D4650465946019A00F0ABF910EB0800B3
:100390006141002487EA115284EAE7731A4340D08E
:1003A000009A62B3019A012A4FEA075215DC001B3A
:1003B00061EB02014FF0004202EA0752CDE9004230
:1003C000001C41F5801132462B4600F0ABF903B01A
:1003D000BDE8F08F40462146F9E7001B61EB0201C2
:1003E000001C41F5801300185B412018A2F500178E
:1003F00047EB030140EAD570B6196D4111E06D0875
:100400004FEA360645EAC0754FEA0752001B61EB1A
:100410000201001C41F5801149084FEA3000001923
:10042000514132462B4603B0BDE8F04F00F06BB9A6
:100430000098012240000023D0EB020263EBE0733E
:10044000009821464FEAE074B8EB000061EB04012C
:10045000E9E783F000435BE781F0004158E72DE9CD
:10046000FE4F81EA030404F0004421F000410094AF
:100470004FF0000B23F0004350EA01045ED052EA33
:1004800003045BD0C3F30A54C1F30A552C44A4F20D
:10049000F3340194A0FB0254C1F3130141F4801121
:1004A000C3F3130343F4801301FB024400FB034E28
:1004B000840A970A44EA815447EA8357A4FB0768F1
:1004C00002958D0A05FB07854FEA932C04FB0C541B
:1004D0002705029D4FEA065847EA1637B5EB08058F
:1004E0006EEB070C870E920E47EA811742EA8312E1
:1004F000A7FB0201B6EB0B0164EB00042B0D43EAF2
:100500000C335E1844EB1C50DA465146E7FB0201FF
:10051000C5F313044FEA0B3343EA14534FEA043292
:10052000019C43EA0603A4F10C040294009CCDE96B
:1005300000B400F0F7F803B0BDE8F08F00200146EA
:10054000F9E72DE9F04D81EA030404F0004B21F0B6
:10055000004514464FF0000A23F0004150EA05021E
:1005600020D054EA01021DD0C5F30A570246C5F354
:100570001303C1F31300C1F30A5640F4801543F48A
:100580008013A7EB0608101BD64608F2FD3873EB64
:10059000050002D308F1010801E092185B41B8F1AF
:1005A000000F03DA00200146BDE8F08D00204FF473
:1005B0008011064684460EE0171B73EB050705D332
:1005C000121B63EB050306434CEA010C49084FEA92
:1005D000300092185B4150EA0107EDD152EA030066
:1005E00012D082EA040083EA0501084305D0101BFB
:1005F000AB4106D20122002306E000224FF0004367
:1006000002E06FF0010253101AEB06004CEB0851A8
:1006100010EB0A0041EB0B01BDE8F04D00F073B8A0
:10062000C1F30A52C1F3130140F2FF3341F48011C8
:100630009A4202DA00200146704740F233439A4260
:10064000A2F2334202DC524200F03BB800F02AB87A
:1006500030B5041E71F1000404DB4FF00044404249
:1006600064EB0101141E73F1000405DB1C464FF01E
:100670000043524263EB0403994208BF904230BDED
:10068000064C074D06E0E06840F0010394E80700DF
:1006900098471034AC42F6D3FFF75EFD9CDA0008B1
:1006A000BCDA0008202A04DB203A00FA02F100201C
:1006B00070479140C2F1200320FA03F319439040A0
:1006C0007047202A04DB203A21FA02F0002170470B
:1006D00021FA02F3D040C2F12002914008431946AA
:1006E0007047202A06DBCB17203A41FA02F043EA92
:1006F000E07306E041FA02F3D040C2F120029140DB
:1007000008431946704710B5141E73F1000408DA47
:10071000401C41F1000192185B411A4301D120F0C5
:10072000010010BD2DE9F04D92469B4611B1B1FA82
:1007300081F202E0B0FA80F220329046FFF7B2FF79
:1007400004460F4640EA0A0041EA0B0153465A4666
:10075000084313D0114653EA010019D0C8F14002F2
:100760005046FFF7AEFF05460E46504659464246F4
:10077000FFF798FF084305D0012004E020463946E2
:10078000BDE8F08D0020054346EAE0762C43374370
:100790000A986305E40AA0EB08000022FD0A44EA77
:1007A00047540A3002D500200146E9E70105101937
:1007B0006941DDE9084500196941BDE8F04DA2E74E
:1007C00070B58C1810F8015B15F0070301D110F813
:1007D000013B2A1106D110F8012B03E010F8016B40
:1007E00001F8016B5B1EF9D12B0705D40023521EC3
:1007F0000DD401F8013BFAE710F8013BCB1A921C2B
:1008000003E013F8015B01F8015B521EF9D5A14228
:10081000D8D3002070BD000002A002F031FE00BF5E
:10082000FEE70000427573204661756C7421200D4F
:100830000A00000010B54FF4407001F0CFFE10BD6B
:1008400030B502460B464FF6FF70002112E0555CB2
:10085000684000240AE000F0010525B14AF20105D4
:1008600085EA600000E04010651CACB2082CF2DBA9
:100870004D1CA9B29942EADB30BD000010B5002042
:100880000C4908600C4800680CF038FD0948006805
:1008900001280AD10748006838B14FF08050074955
:1008A0000860BFF34F8FBFF36F8F4FF4204000F00D
:1008B00013F810BD080000200400002004ED00E043
:1008C00010B50120034981F801024FF0206000F0CB
:1008D00003F810BD7798002000F0805111B1034952
:1008E000086001E0024948607047000004040240CB
:1008F0000000024021B1026842F00102026004E0FF
:1009000002684FF6FE731A400260704701684FF6A6
:10091000FE72114001600021016041608160C16090
:100920004B49884208D14A490839496841F00F01CA
:10093000474A083A51608AE045491431884208D153
:1009400043490839496841F0F001414A083A516089
:100950007DE03F492831884208D13D49083949683E
:1009600041F470613A4A083A516070E038493C31CC
:10097000884208D136490839496841F47041344AFF
:10098000083A516063E032495031884208D1304919
:100990000839496841F470212D4A083A516056E0FF
:1009A0002B496431884208D129490839496841F402
:1009B0007001274A083A516049E025497831884258
:1009C00008D123490839496841F07061204A083A42
:1009D00051603CE01F49884206D1011F096841F07F
:1009E0000F01021F116032E01A491431884208D108
:1009F0001849091F096841F0F001164A121F1160D9
:100A000025E014492831884208D11249091F096894
:100A100041F470610F4A121F116018E00D493C311A
:100A2000884208D10B49091F096841F47041094AFD
:100A3000121F11600BE007495031884207D1054968
:100A4000091F096841F47021024A121F11607047A2
:100A500008000240080402400146486880B270471E
:100A60001AB103680B43036002E003688B43036021
:100A7000704710B50022026847F6F0739A430C6A7B
:100A80008B6823430C6923434C6923438C692343BC
:100A9000CC6923434C6A23438C6A23431A43026084
:100AA000CB6843600B6883604B68C36010BD4160D6
:100AB0007047000002A002F0E3FC00BFFEE7000068
:100AC0004465627567204661756C7421200D0A00CB
:100AD00001494861704700000090024029B1064A70
:100AE000D2690243044BDA6104E0034AD2698243CB
:100AF000014BDA61704700000090024030B10749B5
:100B0000896941F00201054A916105E0034989695B
:100B100021F00201014A91617047000000900240FB
:100B200030B50C4613460021104D286000BF18E078
:100B300000EB01124FF00045156044F2F05555608E
:100B4000C1EB411505EB811504EB051595605D1EA4
:100B50008D4204D900EB01151035D56000E0D0605E
:100B6000491C9942E4D3024DE86030BDBC0000202E
:100B70000090024021B1426822F00042426003E04E
:100B8000426842F0004242607047000030B10749BD
:100B9000896941F40051054A916105E00349896979
:100BA00021F40051014A9161704700000090024019
:100BB00030B50C46134600210F4D286000BF15E0EC
:100BC00000EB01124FF480151560C1EB411505EBE8
:100BD000811504EB051595605D1E8D4204D900EB6F
:100BE00001151035D56000E0D060491C9942E7D36B
:100BF000024D286130BD0000B80000200090024086
:100C000010B50121880301F023FD00214FF480403D
:100C100001F01EFD10BD01B581B0002000900198CB
:100C2000009002E00098401E009000980028F9D142
:100C30000CBD00000348806940F4801001498861C0
:100C400070470000009002400148006880687047CB
:100C5000B800002001460868C0F30D40704700004E
:100C600000B500220F480068006800F00040B0B9ED
:100C70000C480068008800F4004080B9094800680A
:100C8000008800F4807050B106480068008800F4C5
:100C9000007020B103480068FFF7DCFF02461046F1
:100CA00000BD0000BC00002000200449096801F0DC
:100CB000010109B1012000E00020704700900240CE
:100CC00010B501E000F014FFFFF7CAFF0028F9D1CA
:100CD0004020FFF7FDFE4FF48030FFF7F9FE10BD16
:100CE0002DE9FC4104460E46002700250020019016
:100CF000009000F0E7FB4FF400420021304600F086
:100D000017FB28B999A002F0BBFB0020BDE8FC81CD
:100D10009B48FFF780FF2068002876D000213046EE
:100D200000F0DCF980464246002196A002F0A8FBC4
:100D30001021304600F0D2F980464246102191A0A1
:100D400002F09EFB00BF0098401C0090012130463D
:100D500000F0C4F900F0040018B9924900988842E4
:100D6000F1D30121304600F0B9F980464246012115
:100D700084A002F085FB8B490098884207D18A48FD
:100D800002F07EFB894802F07BFB0020BEE70020DA
:100D900000904FF440520021304600F0C9FA20B9CB
:100DA000834802F06DFB0020B0E700BF0098401CB4
:100DB00000900121304600F091F900F0200018B9B0
:100DC000784900988842F1D30121304600F086F935
:100DD0008046424601216BA002F052FB7149009807
:100DE000884204D1734802F04BFB00208EE70020BC
:100DF00000901121304600F071F9074607F42040B9
:100E000040B14FF40060206200E018E06AA002F0F8
:100E100037FB04E00020206271A002F031FB07F4F0
:100E2000405028B10020606177A002F029FB19E052
:100E30004FF4804060617DA002F022FB12E0206A46
:100E4000C0F3CF006169C1F34F0140EA0102002104
:100E5000304600F06DFA08B9002057E76FF07F4088
:100E6000FFF7D9FE7A4805687A480540D4E90101C0
:100E70000843E16808432169084361690843A1699F
:100E80000843E1690843216A0843616A0843A16A8B
:100E90000843E16A0843216B0843616B084305433B
:100EA0006B480560D4E90E010843216C0843616C6E
:100EB0000843A16C0843E16C0843216D0843616D50
:100EC000084363494860A06D8860E06DC8600846CB
:100ED00085694FF641700540B4F86010606E40EAD5
:100EE0000140A16E0843E16E0843216F0843616F22
:100EF0000843054356488561D4E91E010843544917
:100F0000C8615548856955480540D4E92001084322
:100F1000D4F888100843D4F88C100843D4F8901003
:100F20000843D4F894100843D4F898100843D4F830
:100F30009C100843D4F8A010084305434648856137
:100F4000D4E929010843D4F8AC100843D4F8B01010
:100F50000843D4F8B41040EA8100D4F8B81008432C
:100F600040F400003C4908600120CFE60A0D205003
:100F700048595F5265736574204572726F72210023
:100F8000FFFF0F000A0D4554485F526561645048E9
:100F90005952656769737465722025643A30782503
:100FA00058000000FFFF040058DA000880D900084C
:100FB0000CDA0008C8D900080A0D204554485F4DD6
:100FC0006F646520202020204554485F4D6F646584
:100FD0005F46756C6C4475706C6578200A0D200056
:100FE0000A0D204554485F4D6F6465202020202065
:100FF0004554485F4D6F64655F48616C6644757029
:101000006C6578200A0D20000A0D204554485F5376
:101010007065656420202020204554485F5370652A
:1010200065645F31304D200A0D2000000A0D204517
:1010300054485F5370656564202020202045544843
:101040005F53706565645F3130304D200A0D2000BC
:10105000008002400F8120FF00900240233FDEF815
:1010600010B50B794C7943EA0422094B03441A6406
:10107000CB781B068C7843EA04434C7843EA04237C
:101080000C7843EA0402024B03445A6410BD00008A
:101090000080024030B10749096841F00401054A67
:1010A000116005E00349096821F00401014A11605B
:1010B000704700000080024030B10749096841F0E4
:1010C0000801054A116005E00349096821F008019B
:1010D000014A1160704700000080024018B50246C6
:1010E0000B460021002000901548016901F01C0109
:1010F0004FF4784000EAC22001434FF4F86000EA60
:101100008310014321F0020141F001010C4801610B
:1011100000BF0098401C00900948016901F00100DF
:1011200018B1084C0098A042F3D3064C0098A04296
:1011300001D1002018BD0248406980B2FAE70000E2
:1011400000800240FFFF04001EB500210022009233
:1011500001920292214A1268126802F0004282B1A2
:10116000002200921E4A526902F0800222B18022BF
:101170001B4B5A6100229A609DE81C0080E81C000D
:101180001EBD164A1268128802F40042B2B9134A10
:101190001268128802F4807282B1104A12681288B2
:1011A00002F4007252B10D4A12681268C2F30D4285
:1011B000111F0A4A12689268019200E00021009112
:1011C000064A12680292054A1268D268034B1A60F6
:1011D0009DE81C0080E81C0000BFD1E7BC00002097
:1011E000009002400348006840F001000149086097
:1011F000704700000090024000B50120FFF75CFF3F
:10120000FFF718FD0120FFF745FF0120FFF7BEFCA7
:101210000120FFF773FC00BD002101604160816087
:10122000C16001614FF48041416100218161C16170
:101230004FF400610162002141628162C162016379
:1012400041638163C1634021016420214164002125
:101250008164C164016541658165C1650166802164
:10126000416600218166C166016741678167C16788
:101270004FF08061C0F880104910C0F88410491008
:10128000C0F88810C910C0F88C100021C0F8901068
:10129000C0F89410C0F89810C0F89C10C0F8A010C6
:1012A0004FF00071C0F8A4100021C0F8A8104FF44E
:1012B0000031C0F8AC104912C0F8B0100021C0F8DD
:1012C000B410C0F8B81070470146174800680068AD
:1012D00000F0004008B100207047C1F30C00124A32
:1012E0001268506010480068006840F040500E4A94
:1012F000126810600C480068006840F000400A4A1C
:10130000126810600948406900F0040020B1042010
:10131000064A50610020506003480068C068024AD5
:1013200010600120D8E70000B800002000900240C3
:1013300038B503460C46002100200090144801698E
:1013400001F01C014FF4784000EAC32001434FF440
:10135000F86000EA8410014341F0020141F001010C
:101360000B484261016100BF0098401C0090084892
:10137000016901F0010018B1064D0098A842F3D3AD
:10138000044D0098A84201D1002038BD0120FCE79F
:1013900000800240FFFF040000B5AFB0012000F064
:1013A00065F94FF4004001F075FA012001F06CFA84
:1013B00000BF3D2001F044FA0028FAD00B2001F0D4
:1013C0005DFAFFF71DFCFFF70DFF00BFFFF76CFC98
:1013D0000128FBD06846FFF71FFF01200090002086
:1013E00007904FF400700A9000200B900E9011901F
:1013F00013901490159020904FF0007021900011E0
:10140000239000202590269004202890C005299044
:1014100040122A9080012B9040122C9040002E9078
:1014200000216846FFF75CFC30B900BF0021684628
:10143000FFF756FC0028F9D001210248FFF74EFBC8
:101440002FB000BD4000010010B500F0E5F800F03D
:1014500079F800F065F800F003F8FFF79DFF10BD84
:1014600010B5012000F002F94FF4004001F012FA2B
:10147000012001F009FA00BF3D2001F0E1F9002848
:10148000FAD00B2001F0FAF900F01CF84FF40042FA
:1014900000210846FFF74CFF02210020FFF71EFE47
:1014A00040F28111884201D001F0A2F81021002001
:1014B000FFF714FE00F48070B0F5807F01D001F0DA
:1014C00097F810BD30B585B00024104D1048046960
:1014D00024F01C04684601F0EBF8019D0D4885429C
:1014E00005D30D48854202D244F0080409E00A48B9
:1014F000854205D30948854202D244F00C0400E03D
:1015000000BF0348046105B030BD000000A24A04DA
:1015100000800240002D3101C00E160200879303A7
:1015200008B53D208DF8000002208DF80100002054
:101530008DF8020001208DF80300684601F016F8CE
:1015400008BD000008B50420ADF8000003208DF8A8
:10155000020018208DF8030069462B4800F08CF833
:101560000620ADF8000003208DF8020018208DF849
:1015700003006946254800F07FF84FF46050ADF84D
:10158000000003208DF8020018208DF80300694642
:101590001F4800F071F801214FF0201000F0F8F81A
:1015A0000220ADF8000003208DF8020004208DF821
:1015B00003006946144800F05FF84FF4E060ADF8AE
:1015C000000003208DF8020004208DF80300694616
:1015D000104800F051F80120ADF8000000208DF80F
:1015E00003006946094800F047F84FF48070ADF8F1
:1015F000000003208DF8020018208DF803006946D2
:10160000014800F039F808BD000801400010014011
:10161000000C01400014014010B501214FF4E030EE
:1016200001F006F801213C2001F032F801210846C2
:1016300001F02EF810BD000008B50121480501F0A9
:1016400017F80121082001F023F8C020ADF80000B0
:1016500003208DF802001C208DF803006946024823
:1016600000F00AF808BD0000000C014001490860C4
:1016700070470000DC0020422DE9F04102460025C1
:101680000026002000230024002791F803C00CF05E
:101690000F0591F803C00CF0100CBCF1000F03D043
:1016A00091F802C04CEA050591F800C0BCF1000FAA
:1016B00031D0146800202BE04FF0010C0CFA00F33D
:1016C000B1F800C00CEA03069E4220D183004FF01F
:1016D0000F0C0CFA03F7BC4305FA03FC4CEA0404B4
:1016E00091F803C0BCF1280F06D14FF0010C0CFAA1
:1016F00000FCC2F814C00AE091F803C0BCF1480F26
:1017000005D14FF0010C0CFA00FCC2F810C0401CCF
:101710000828D1D31460B1F800C0BCF1FF0F34DD4C
:10172000546800202EE000F1080C4FF0010808FA80
:101730000CF3B1F800C00CEA03069E4221D18300ED
:101740004FF00F0C0CFA03F7BC4305FA03FC4CEA0C
:10175000040491F803C0BCF1280F05D100F1080C76
:1017600008FA0CF8C2F8148091F803C0BCF1480FD5
:1017700007D100F1080C4FF0010808FA0CF8C2F884
:101780001080401C0828CED35460BDE8F0810000D2
:10179000F0B50A46002300240021002500F0004691
:1017A000B6F1004F02D11D4EF16901E01B4E716888
:1017B000C0F3034583B200F44016B6F5401F08D1CC
:1017C00021F07061154E766826F07066134F7E60CA
:1017D00012E000F48016B6F5801F06D1032606FA43
:1017E00005F4A14341F0706106E0460D360103FAAD
:1017F00006F6B14341F0706122B1460D360103FA9D
:1018000006F6314300F00046B6F1004F02D1034E18
:10181000F16101E0014E7160F0BD00000000014087
:1018200041617047016170470348006800F00100A2
:1018300000B100BE00BFFEE7F0ED00E010B5FEF71E
:10184000F9FF00F0D7F84FF4E13001F06FFB4FF4EF
:10185000E13001F06DFC002002F08CFA044624B166
:1018600005A001F00DFE00BFFEE700F041F8FFF714
:10187000EBFD00F007F910BD0D0A20464154204948
:101880004E495449414C495345206572726F72214B
:10189000200D0A0021B1028842F00102028004E01A
:1018A00002884FF6FE731A40028070471FB5002071
:1018B000ADF804004BF6FF70ADF806000020ADF85F
:1018C00008004FF48060ADF80A000001ADF80C008C
:1018D000054800906946054800F016F801210348C4
:1018E000FFF7D8FF1FBD0000801A0600005400401B
:1018F00010B5FFF7A1FEFFF7D9FFA020014908802E
:1019000010BD0000B40000202DE9F04385B004466E
:101910000D460026B1460427DFF8CC80A6884FF696
:10192000C0700640684600F0C3FEDDF808802F480E
:10193000B8FBF0F01FFA80F946EA0906A680208875
:101940004FF6FE7108402080002629492868884209
:101950000CD828684000B8FBF0F087B2042F00DAFA
:1019600004273E4309F10100208427E0E8884BF674
:10197000FF71884206D1286800EB4000B8FBF0F008
:1019800087B209E0286800EBC00101EB0010B8FB4A
:10199000F0F087B247F48047C7F30B0008B947F06F
:1019A000010747F4004006434FF4967009FB00F02E
:1019B0004FF47A7190FBF1F0401C2084A6832088BC
:1019C00040F00100208026884FF6F5300640A888B8
:1019D0006989084306432680A8892989084320810C
:1019E00005B0BDE8F083000000127A0040420F000D
:1019F000A086010008B50121202000F049FE042046
:101A0000ADF8000010208DF8030003208DF80200CF
:101A100069461B48FFF730FE0121202000F038FE08
:101A20000820ADF8000010208DF8030003208DF889
:101A3000020069461248FFF71FFE0121202000F036
:101A400027FE1020ADF800008DF8030003208DF86C
:101A5000020069460A48FFF70FFE0121202000F02E
:101A600017FE8020ADF8000010208DF80300032041
:101A70008DF8020069460248FFF7FEFD08BD000030
:101A80000014014000B589B012A103C9CDE90401D9
:101A900005F03CF805F0E6FA104808906FF07F403A
:101AA00007900F48069004A801F046F80D480E492B
:101AB000002206ABCDE90021029007AA08A90B4835
:101AC00005F0B2FB094805F03BFC084805F086FC30
:101AD00009B000BDCCBBAA9988010000C0A8016A6A
:101AE000C0A80101D54C0008494E00083C01002067
:101AF00010B5024803F00EFA10BD00003C010020B2
:101B00002DE9F34F83B081460026CB46049C9BF819
:101B10000200000201909BF8030001990843019024
:101B20009BF8040005029BF805000543012D02DB2C
:101B3000B5F5FA6F1FDD5648007804F8010B701CEC
:101B400086B2812004F8010B701C86B2032004F8D1
:101B5000010B701C86B231460498FEF771FE0746F1
:101B600004F8017B380A04F8010BB01C86B2304639
:101B700005B0BDE8F08F0198284401281DDD4448D8
:101B8000007804F8010B701C86B2812004F8010B68
:101B9000701C86B2022004F8010B701C86B231461C
:101BA0000498FEF74DFE074604F8017B380A04F856
:101BB000010BB01C86B23046DAE73548007804F8ED
:101BC000010B701C86B2012004F8010B701C86B258
:101BD000082D02DA4FF0010A15E0E91705EB517103
:101BE000C910A5EBC10141B12846E91705EB5171B8
:101BF000C910491C01F0FF0A05E02846E91705EB6A
:101C00005171C1F3C70A04F801AB701C86B2002001
:101C100020700290804626E04FEAE87108EB51718F
:101C2000C910A8EBC10131B9B8F1000F03D0641C91
:101C300000202070029001994144C8B200F052FC8B
:101C4000012808D1012102988140C8B20090217872
:101C50000098014321700298401C80B2029008F164
:101C6000010000F0FF08A845D6DB06EB0A0086B2AB
:101C7000641C31460498FEF7E3FD074604F8017B37
:101C8000380A04F8010BB01C86B2304670E7000039
:101C9000230100202DE9F34F83B081460026CB4677
:101CA000049C9BF80200000200909BF8030000993E
:101CB000084300909BF8040005029BF805000543CB
:101CC000012D02DBB5F5FA6F20DD5548007804F8E8
:101CD000010B701C86B2822004F8010B701C86B2C6
:101CE000032004F8010B701C86B231460498FEF7FD
:101CF000A7FD804604F8018B4FEA182004F8010B79
:101D0000B01C86B2304605B0BDE8F08F009828447C
:101D10005A281EDD4248007804F8010B701C86B278
:101D2000822004F8010B701C86B2022004F8010B1B
:101D3000701C86B231460498FEF782FD804604F896
:101D4000018B4FEA182004F8010BB01C86B2304614
:101D5000D9E73348007804F8010B701C86B20220E2
:101D600004F8010B701C86B2082D02DA4FF0010A4C
:101D700015E0E91705EB5171C910A5EBC10141B19F
:101D80002846E91705EB5171C910491C01F0FF0AFB
:101D900005E02846E91705EB5171C1F3C70A04F8BD
:101DA00001AB701C86B2002020700190002721E05A
:101DB000F91707EB5171C910A7EBC10121B91FB188
:101DC000641C0020207001900099394488B200F012
:101DD00099FB012808D1012101988140C8B20290E5
:101DE00021780298014321700198401C80B2019033
:101DF000781C87B2AF42DBDB06EB0A0086B2641CBC
:101E000031460498FEF71CFD804604F8018B4FEA2A
:101E1000182004F8010BB01C86B2304673E70000AE
:101E2000230100202DE9F34F81B007460025BB4672
:101E3000029C9BF80200000200909BF803000099AE
:101E4000084300909BF804004FEA00289BF8050027
:101E500040EA0808B8F1010F02DBB8F5FA6F1EDDA1
:101E60003C48007804F8010B681C85B2832004F814
:101E7000010B681C85B2032004F8010B681C85B2B5
:101E800029460298FEF7DCFC064604F8016B300A8E
:101E900004F8010BA81C85B22846BDE8FE8F009807
:101EA0004044B0F5AF7F1DDD2A48007804F8010BEF
:101EB000681C85B2832004F8010B681C85B20220DF
:101EC00004F8010B681C85B229460298FEF7B8FC9D
:101ED000064604F8016B300A04F8010BA81C85B211
:101EE0002846DAE71B48007804F8010B681C85B225
:101EF000032004F8010B681C85B24FEA4860000E0D
:101F000004F8010B681C85B24FF0000A11E000993B
:101F1000514488B200F0FEFA81464FEA192004F8D5
:101F2000010B04F8019BA81C85B20AF101001FFAFD
:101F300080FAC245EBDB29460298FEF781FC064693
:101F400004F8016B300A04F8010BA81C85B228467E
:101F5000A3E70000230100202DE9F34F81B00746DD
:101F60000025BA46029C9AF80200000200909AF8F6
:101F700003000099084300909AF804004FEA0028F3
:101F80009AF8050040EA0808B8F1010F02DBB8F53D
:101F9000FA6F1EDD3B48007804F8010B681C85B21F
:101FA000842004F8010B681C85B2032004F8010B9F
:101FB000681C85B229460298FEF742FC064604F8E2
:101FC000016B300A04F8010BA81C85B22846BDE855
:101FD000FE8F00984044FA281DDD2A48007804F856
:101FE000010B681C85B2842004F8010B681C85B2C3
:101FF000022004F8010B681C85B229460298FEF7FE
:102000001FFC064604F8016B300A04F8010BA81CFB
:1020100085B22846DBE71B48007804F8010B681CF2
:1020200085B2042004F8010B681C85B24FEA4860B1
:10203000000E04F8010B681C85B24FF0000911E096
:102040000099494488B200F079FA83464FEA1B2090
:1020500004F8010B04F801BBA81C85B209F10100CA
:102060001FFA80F9C145EBDB29460298FEF7E8FB31
:10207000064604F8016B300A04F8010BA81C85B26F
:102080002846A4E7230100202DE9F35F064600253A
:10209000B146019C99F802004FEA002B99F8030021
:1020A00040EA0B0B99F804004FEA002A99F8050062
:1020B00040EA0A0ABAF57F4F21D0BAF1000F1ED0CC
:1020C0002F48007804F8010B681C85B2852004F8BD
:1020D000010B681C85B2032004F8010B681C85B253
:1020E00029460198FEF7ACFB074604F8017B380A45
:1020F00004F8010BA81C85B22846BDE8FC9FBBF183
:10210000010F1DDB1E48007804F8010B681C85B226
:10211000852004F8010B681C85B2022004F8010B2D
:10212000681C85B229460198FEF78AFB074604F829
:10213000017B380A04F8010BA81C85B22846DCE7AD
:10214000BAF57F4F05D10BF0FF00012100F0D2F965
:1021500004E00BF0FF00002100F0CCF94FF0000884
:1021600007E019F8080004F8080008F1010000F081
:10217000FF08B8F1080FF4DB08252846BDE700008A
:10218000230100202DE9F35F06460025B146019C9E
:1021900099F802004FEA002B99F8030040EA0B0B74
:1021A00099F804004FEA002A99F8050040EA0A0A63
:1021B000BAF5803F1EDB2A48007804F8010B681C42
:1021C00085B2862004F8010B681C85B2032004F850
:1021D000010B681C85B229460198FEF731FB0746C2
:1021E00004F8017B380A04F8010BA81C85B22846C4
:1021F000BDE8FC9FBBF5AF7F1DDB1948007804F8F4
:10220000010B681C85B2862004F8010B681C85B29E
:10221000022004F8010B681C85B229460198FEF7DC
:102220000FFB074604F8017B380A04F8010BA81CD1
:1022300085B22846DCE75146584600F075F94FF064
:10224000000807E019F8080004F8080008F1010088
:1022500000F0FF08B8F1080FF4DB08252846C7E7AF
:10226000230100202DE9F34F83B081460020029026
:102270008246019000250090C846049C98F8020010
:102280000002029098F8030002990843029098F81F
:1022900004004FEA002A98F8050040EA0A0A98F874
:1022A00006000190BAF1010F07DBBAF17B0F04DCE5
:1022B0004FEA4A01019881421FD03C48007804F857
:1022C000010B681C85B2902004F8010B681C85B2D4
:1022D000032004F8010B681C85B229460498FEF718
:1022E000AFFA064604F8016B300A04F8010BA81C8B
:1022F00085B2284605B0BDE8F08F02985044B0F58D
:10230000AF7F1DDD2948007804F8010B681C85B2F9
:10231000902004F8010B681C85B2022004F8010B20
:10232000681C85B229460498FEF78AFA064604F826
:10233000016B300A04F8010BA81C85B22846D9E7C6
:102340004FF0000B002718E008F1070010F80B0011
:102350000002009008F1080010F80B0000990843F3
:1023600000900299394488B2009900F0DDF80BF131
:1023700002001FFA80FB781C87B25745E4DB002778
:1023800006E018F80700E055681C85B2781C87B293
:10239000062FF6DB29460498FEF752FA0646A67188
:1023A000300AE071A81C85B22846A3E7230100206B
:1023B00002A001F065F800BFFEE70000204D656D4A
:1023C0004D616E616765204661756C7421200D0A50
:1023D000000000002DE9F04706460D463446042D66
:1023E00001DABDE8F08720783A490978884202D0BE
:1023F000207800B1F5E74FF00008A81E81B2204612
:10240000FEF71EFA804608F0FF094FEA182A681EF8
:10241000205C504503D1A81E205C484500D0E0E771
:1024200000235A1E19462C4800680AF0FBFD677805
:10243000042F26D006DC012F0BD0022F11D0032F42
:102440003FD116E0052F24D0062F2AD0102F38D1E7
:102450002FE022493046FFF753FB214981F8000263
:1024600030E01E493046FFF715FC1D4981F8000297
:1024700028E01A493046FFF7D5FC194981F80002D7
:1024800020E016493046FFF767FD154981F8000244
:1024900018E012493046FFF7F7FD114981F80002B4
:1024A00010E00E493046FFF76DFE0D4981F800023D
:1024B00008E00A493046FFF7D5FE094981F80002D5
:1024C00000E08EE700BF064991F8000200F0ECFC46
:1024D00000BF86E72301002004000020749700203D
:1024E000749600200146012901DA014A505C7047C8
:1024F00022010020012801DA014A1154704700002E
:102500002201002001465A2901DA014A505C704735
:1025100058DF00200146B1F5AF7F02DA014A32F8F8
:1025200011007047A6E10020B0F5AF7F02DA024A41
:1025300022F8101070470000A6E100200146FA2999
:1025400002DA024A32F8110070470000B2DF0020C0
:1025500002A000F095FF00BFFEE70000204E4D49AD
:10256000204661756C7421200D0A000070B50021B1
:1025700000230F22C47804B3154C246804F4E064EB
:10258000C4F5E064210AC1F10403CA40447804FAA6
:1025900003F184781440214309010E4C0678A155BB
:1025A000047804F01F050124AC4005786D11AD00DE
:1025B00005F1E025C5F8004109E0047804F01F05A5
:1025C0000124AC40044D0678761145F8264070BDD4
:1025D0000CED00E000E400E080E100E0024901438E
:1025E000024A1160704700000000FA050CED00E09F
:1025F00000BF00BF00BFBFF34F8F00BF00BF00BFD1
:102600000948006800F4E06008490843001D0649D5
:10261000086000BF00BF00BFBFF34F8F00BF00BF07
:1026200000BF00BF00BFFDE70CED00E00000FA05B1
:1026300029B1064A52690243044B5A6104E0034A35
:1026400052698243014B5A617047000000100240FA
:1026500029B1064A926A0243044B9A6204E0034A93
:10266000926A8243014B9A62704700000010024058
:1026700029B1064AD2690243044BDA6104E0034AF5
:10268000D2698243014BDA617047000000100240BA
:1026900029B1064A92690243044B9A6104E0034A55
:1026A00092698243014B9A6170470000001002401A
:1026B0002DE9F041002100220025002300260024FE
:1026C00000278C46DFF86081D8F8048008F00C0100
:1026D00021B1042907D0082959D109E0DFF84C813C
:1026E000C0F8008058E0DFF84881C0F8008053E06F
:1026F000DFF83481D8F8048008F47012DFF82881FC
:10270000D8F8048008F48035920C0D2A01D0921C70
:1027100000E0062235B9DFF81C8102FB08F8C0F89A
:10272000008033E0DFF80081D8F82C8008F4803690
:10273000DFF8F480D8F82C8008F00F0808F10104C5
:1027400046B9DFF8EC80B8FBF4F808FB02F8C0F8F3
:1027500000801BE0DFF8D080D8F82C80C8F3031885
:1027600008F10107DFF8C080D8F82C80C8F30328EF
:1027700008F1020CDFF8B880B8FBF7F808FB0CF89A
:10278000B8FBF4F808FB02F8C0F8008004E0DFF8BA
:102790009C80C0F8008000BF00BFDFF88C80D8F8B4
:1027A000048008F0F0010909DFF88C8018F8013086
:1027B000D0F8008028FA03F8C0F80480DFF86880B9
:1027C000D8F8048008F4E061090ADFF86C8018F892
:1027D0000130D0F8048028FA03F8C0F80880DFF848
:1027E0004880D8F8048008F46051C90ADFF84880AE
:1027F00018F80130D0F8048028FA03F8C0F80C80EB
:10280000DFF82480D8F8048008F44041890BDFF811
:102810002C8018F80130D0F80C80B8FBF3F8C0F821
:102820001080BDE8F08100000010024000127A0024
:1028300040787D0100093D00240100203401002082
:1028400010B501460022002300204A11012A02D1BE
:10285000094C236806E0022A02D1074C236A01E0F2
:10286000054C636A01F01F02012494401C400CB126
:10287000012000E0002010BD001002400149C87195
:1028800070470000001002400149086770470000CF
:102890000000424201460020034AD06A20F4704002
:1028A0000843D062704700000010024000B585B0B8
:1028B00000F04CF800F028F80020ADF800004FF4CC
:1028C0008270ADF802000020ADF804000220ADF8DF
:1028D00006000120ADF808004002ADF80A001820FB
:1028E000ADF80C000020ADF80E000720ADF8100088
:1028F0006946044800F072F80121024800F062F8CD
:1029000005B000BD0030014008B5E020ADF8000082
:1029100003208DF8020018208DF80300694609484D
:10292000FEF7AAFE4FF40070ADF8000003208DF80A
:10293000020010208DF8030069460348FEF79CFE54
:1029400008BD000000080140000C014010B5012145
:102950000420FFF79DFE01210820FFF799FE0121C9
:102960000846FFF795FE01210803FFF791FE10BD11
:102970000246002107E0481C81B24FF6FE708142FA
:1029800001DB002070470E48008900F0020000289B
:10299000F1D00B488281002107E0481C81B24FF63C
:1029A000FE70814201DB0020ECE70548008900F061
:1029B00001000028F1D002488089C0B2E2E700009F
:1029C0000030014021B1028842F04002028004E060
:1029D00002884FF6BF731A400280704710B500227C
:1029E000028802F441520B884C8823438C8823438D
:1029F000CC8823430C8923434C8923438C8923436C
:102A0000CC8923431A430280838B4FF2FF74234007
:102A100083830B8A038210BD10B500F001F810BD4E
:102A20000CB50020019000903F48006840F48030D1
:102A30003D49086000BF3C48006800F40030009049
:102A40000198401C0190009818B90198B0F5A06F4A
:102A5000F1D13548006800F4003010B10120009039
:102A600001E000200090009801285CD12F48006808
:102A700040F010002D4908600846006820F003006F
:102A800008600846006840F0020008602648406878
:102A9000254948600846406848600846406840F458
:102AA000806048600846C06A214908401E49C862E3
:102AB0000846C06A1F4908431B49C86208460068A7
:102AC00040F08060086000BF1748006800F00060B8
:102AD0000028F9D01448406820F47C10124948605E
:102AE0000846406840F4E81048600846006840F036
:102AF0008070086000BF0C48006800F0007000287B
:102B0000F9D00948406820F00300074948600846AA
:102B1000406840F00200486000BF0348406800F091
:102B20000C000828F9D10CBD001002400020024022
:102B300000F0FEFF4406010010B504462078084965
:102B4000087060784870A0788870E078C870207944
:102B500008716079487121460020FEF781FA10BDA6
:102B6000A800002010B5002400F018F804464EF626
:102B70001470844201D1002010BD0120FCE7000048
:102B800010B5FFF793FE00BF4FF400710248FEF747
:102B900049FE00BF10BD0000000C014010B500242C
:102BA00000BF4FF400711148FEF73AFE00BF9020BD
:102BB000FFF7DEFE0020FFF7DBFE0020FFF7D8FE68
:102BC0000020FFF7D5FEFF20FFF7D2FE44EA0024E5
:102BD000FF20FFF7CDFE044300BF4FF40071034810
:102BE000FEF720FE00BF204610BD0000000C014093
:102BF00010B500BFBF2080F31188BFF34F8FBFF324
:102C00006F8F00BF0AF066FC18B14FF08050044986
:102C1000086000BF002080F3118800BF10BD0000D5
:102C200004ED00E010B51648006840F001001449BA
:102C30000860084640681349084011494860084642
:102C40000068114908400E4908600846006820F4F1
:102C5000802008600846406820F4FE00486008466E
:102C6000006820F0A05008604FF47F0088600020CA
:102C7000C862FFF7D1FE4FF000600449086010BD44
:102C8000001002400000FFF0FFFFF6FE08ED00E03C
:102C900000BF00BF1048006880F004000E490860C3
:102CA00000BF00BF0846006880F00800086000BF51
:102CB00000BF0846006880F01000086000BF00BF39
:102CC0000846006880F08000086000BF4FF47A700A
:102CD0000AF04CF8DDE700000C14014000B585B0A7
:102CE0000020019002900390049001200023802294
:102CF00005A1009008480AF067FB012801D000BF39
:102D0000FEE705B000BD00005461736B5F4C656465
:102D10005F546F67676C6500912C000838B50546F5
:102D20000024032000231A461946009001200AF0CF
:102D30005AF9194908600846006808B900BFFEE75B
:102D4000002101200AF032F91449086008460068A1
:102D500008B900BFFEE700BF00235A1E19460E48FF
:102D600000680AF05FF90128F6D10D48FDF774FEFE
:102D7000C0F5807084B204B938BD21460948FFF718
:102D800029FB4FF480710648FDF791FE01210448AC
:102D9000FDF7B0FDE0E70000000000200400002087
:102DA000580002407496002000B585B000200190C4
:102DB000029003900490052000234FF4807205A137
:102DC000009009480AF000FB012801D000BFFEE78F
:102DD00005B000BD5461736B5F4D6F646275735FC6
:102DE00050726F63657373001D2D000810B5FFF7F7
:102DF00075FFFFF7D9FF10BD00B58BB02648FDF772
:102E000085FD264800902648019010200290000180
:102E100003900020049080200590002006900790E9
:102E200008904FF44050099000200A9069461A48D3
:102E3000FDF71FFE00F002FB01220A211648FDF7F4
:102E40000FFE00211448FDF755FD13481430FDF71F
:102E50005DFD1248009013480190002002904FF44D
:102E60008070039000200490802005900020069040
:102E7000079008904FF44050099000200A9069464E
:102E800005481430FDF7F5FD012103481430FDF726
:102E900031FD0BB000BD0000440002400438014089
:102EA000749700207496002010B504460021054850
:102EB000FDF720FD03484438846401210148FDF7F3
:102EC00019FD10BD4400024010B5002440F2244119
:102ED000114800F0E6F9E8B10F480488001D0488A5
:102EE00000210E48FDF706FD00200D4908600D4841
:102EF00000680AF003FA0A48006801280AD1084865
:102F0000006838B14FF0805007490860BFF34F8F19
:102F1000BFF36F8F10BD0000003801405800024021
:102F20000C0000200000002004ED00E01FB5044666
:102F300000F076F800F056F8B4F5E13F03D8B4F5A8
:102F4000966F00D300940020ADF80C000C20ADF873
:102F50000A000020ADF80800ADF80600ADF8040046
:102F60006946164800F0ECF900F02AF8FFF744FF34
:102F7000002240F22661114800F0BDF9002240F223
:102F800025510E4800F0B7F9012240F224410B48C8
:102F900000F0B1F901224021084800F06CF901224B
:102FA0008021064800F067F90121044800F057F934
:102FB0004021024800F04AF91FBD000000380140DE
:102FC00008B525208DF800000F208DF801000020A5
:102FD0008DF8020001208DF803006846FFF7C6FA5D
:102FE00008BD000008B518208DF803004FF40070EC
:102FF000ADF8000003208DF8020069460748FEF78F
:103000003BFB48208DF803004FF48060ADF80000D2
:1030100069460248FEF730FB08BD00000008014089
:1030200010B501210846FFF703FB01210420FFF73B
:103030002FFB01210846FFF72BFB01218803FFF737
:1030400027FB10BD00B58BB02648FDF75FFC264876
:10305000009026480190102002900001039000206B
:1030600004908020059000200690079008904FF46F
:103070004050099000200A9069461A48FDF7F9FC73
:1030800000F0ECF901220A211648FDF7E9FC0021C5
:103090001448FDF72FFC13481438FDF737FC12488D
:1030A000009013480190002002904FF4807003902C
:1030B0000020049080200590002006900790089042
:1030C0004FF44050099000200A9069460548143892
:1030D000FDF7CFFC012103481438FDF70BFC0BB0C2
:1030E00000BD0000800002400444004077990020A9
:1030F0007798002010B5002440F224410A4800F0DF
:10310000D0F880B108480488001D048800210748D1
:10311000FDF7F0FB4FF480710448FDF7C8FC012176
:103120000248FDF7E7FB10BD004400406C00024080
:103130001FB5044600F074F800F056F8B4F5E13F0E
:1031400003D8B4F5966F00D300940020ADF80C00BE
:103150000C20ADF80A000020ADF80800ADF806001C
:10316000ADF804006946164800F0EAF800F02AF8C5
:10317000FFF768FF002240F22661114800F0BBF81B
:10318000002240F225510E4800F0B5F8012240F22D
:1031900024410B4800F0AFF801224021084800F01C
:1031A0006AF801228021064800F065F801210448F0
:1031B00000F055F84021024800F048F81FBD00001B
:1031C0000044004008B526208DF800000F208DF83F
:1031D000010000208DF8020001208DF803006846F0
:1031E000FFF7C4F908BD000008B518208DF80300EA
:1031F0002020ADF8000002208DF802006946074843
:10320000FEF73AFA48208DF803004020ADF80000A0
:1032100069460248FEF730FA08BD0000001401407C
:1032200010B501210820FEF7B3FA01210846FFF787
:10323000FFF901212020FFF72BFA01210846FFF7B3
:1032400027FA01214804FFF713FA10BD01F40072B8
:10325000B2F5007F00D100BFCA430280704721B1A0
:10326000828942F40052828104E082894DF6FF7324
:103270001A40828170471AB1838A0B43838202E02D
:10328000838A8B438382704702460020B1F5007F1A
:1032900000D100BF13880B400BB1012000E00020DB
:1032A000704770B50246002400230025002040F638
:1032B0006A16B14200D100BFC1F3421501F01F03ED
:1032C000012606FA03F3012D02D19689334006E068
:1032D000022D02D1168A334001E0968A33400C1247
:1032E000012606FA04F41688344013B10CB101200B
:1032F00000E0002070BDF0B5034600240026002544
:10330000002040F66A17B94200D100BF1846C1F349
:10331000421401F01F06012707FA06F5012C01D11E
:103320000C3004E0022C01D1103000E014301AB14E
:1033300007682F43076002E00768AF430760F0BDEE
:103340002DE9F04786B005460E460024A24600BF90
:10335000A1460027B08900B100BF2F462C8A4CF649
:10336000FF700440F08804432C82AC894EF6F310C1
:103370000440B08831890843718908430443AC8113
:10338000AC8A4FF6FF400440B0890443AC8201A8E8
:10339000FFF78EF91F48874202D1DDF810A001E047
:1033A000DDF80CA0A88900F4004040B10AEBCA0087
:1033B00000EB0A1031684900B0FBF1F807E00AEBB6
:1033C000CA0000EB0A1031688900B0FBF1F86420F4
:1033D000B8FBF0F004012009642101FB1089A889E1
:1033E00000F4004040B1322000EBC900B0FBF1F026
:1033F00000F00700044308E0322000EB09106421CC
:10340000B0FBF1F000F00F0004432C8106B0BDE8E2
:10341000F087000000380140C1F308028280704745
:1034200002A000F02DF800BFFEE7000055736167B1
:1034300065204661756C7421200D0A0008B50E20C8
:103440008DF800008DF8010000208DF802000120A9
:103450008DF803006846FFF789F808BD08B511200C
:103460008DF800000E208DF8010000208DF802007C
:1034700001208DF803006846FFF778F808BD0000CA
:103480000FB4054B10B503A9044A029800F0DAF80E
:1034900010BC5DF814FB0000414F0008380100200B
:1034A00002E008C8121F08C1002AFAD1704770470D
:1034B000002001E001C1121F002AFBD1704700006B
:1034C0002DE9FF5F82B00021DDE90430020DDDF857
:1034D00040B0034318D044F61050A2F2FF324243EA
:1034E0001514119801281FD0A5EB0B00401C5FEAB2
:1034F000000A4FF000064E4FDFF83891B0465046B4
:1035000015D5CAF1000413E0119801244AA301283B
:1035100001D16FEA0B010298119AC0E90031C0E9AC
:10352000024206B0BDE8F09FCBF10000DFE70446A1
:103530000021404A491842EB0450CDE9001012E046
:10354000E00707D032463B4640464946FCF787FF36
:103550008046894632463B4610461946FCF77FFFB7
:1035600006460F466410002CEAD1DDE90401DDE9CE
:103570000023BAF1000F06DAFCF771FF42464B4612
:10358000FCF76DFF05E0FCF7DCFF42464B46FCF71D
:10359000D8FF04460E460022284BFDF759F803D801
:1035A0004FF0FF30014607E00022254B2046314610
:1035B000FCF7AEFEFDF734F8102409E0002C0ADB1E
:1035C0000A220023FCF773FE039B30321A55641E57
:1035D00050EA0102F2D1641C039AC4F111031444AD
:1035E000119A012A03D0012208430DD10AE00843B1
:1035F00004D000204FF0110B119072E7A3EB0B05E4
:103600006D1E0DE05B4504DD4FF0000205F1010584
:1036100004E003DA4FF00002A5F10105002AECD026
:1036200002981199C0E90231C0E9004579E700002C
:10363000000014400000F03F300000000000F043A4
:103640000000E03F2DE9FF4F95B09B4689460646B6
:1036500000250FE2252877D100242746F84A0121CA
:10366000059400E0044316F8013F203B01FA03F003
:103670001042F7D130782A2811D06FF02F0330781C
:10368000A0F13002092A16D8059A44F0020402EB90
:10369000820203EB42021044761C0590EFE759F8D2
:1036A000042B0592002A03DA504244F4005405909A
:1036B00044F00204761C30782E2816D116F8010F3B
:1036C00044F004042A280DD06FF02F023078A0F1C6
:1036D0003003092B09D807EB870302EB4303C71814
:1036E000761CF3E759F8047B761C30786C280FD0F1
:1036F00006DC4C2817D068280DD06A2814D104E0C5
:10370000742810D07A280FD10DE044F400140AE098
:1037100044F4801401E044F440147278824202D1EF
:1037200004F58014761C761C307866280BD013DCE8
:10373000582877D009DC002875D04528F6D04628CF
:10374000F4D047281AD19DE118E0632835D06428C9
:1037500079D0652812D195E1702873D008DC6728EC
:10376000F1D069286FD06E280DD06F2806D1B5E052
:1037700073282CD0752875D0782874D05A4617999C
:1037800090476D1C75E1C4F30250022809D003284C
:103790000DD0D9F8001004280DD00D6009F10409EE
:1037A00067E1D9F80010EA17C1E90052F6E7D9F845
:1037B00000100D80F2E70D70F0E719F8041B8DF88A
:1037C000001000208DF80100EA46012003E059F8BE
:1037D00004AB4FF0FF3061074FF0000102D40DE061
:1037E00008F101018846B9420FDA8045F8DB1AF882
:1037F00008100029F4D108E008F10101884681424F
:10380000FADB1AF808100029F6D105985B46A0EB00
:10381000080721463846179A00F094FA284400EB2E
:10382000080507E04DE029E10DE01AF8010B5A46C2
:1038300017999047B8F10108F7D25B462146384600
:10384000179A13E142E00A220092C4F302524FF0A9
:10385000000A022A08D059F804CB032A4FEAEC7177
:103860000AD00DE029E02AE009F1070121F0070262
:10387000F2E802C1914609E00FFA8CFC4FEAEC71C4
:10388000042A03D14FFA8CFC4FEAEC71002907DAC5
:103890000A460021DCF1000C61EB02012D2202E05E
:1038A000220504D52B228DF80420012203E0E20733
:1038B00001D02022F7E7904659E00A2102E01022C9
:1038C0000DE010214FF0000A00910BE010224FF0A4
:1038D000000A44F004040827009203E008224FF095
:1038E000000A0092C4F30252022A05D059F804CB10
:1038F0000021032A08D009E009F1070121F007029D
:10390000F2E802C1914605E01FFA8CFC042A01D1BD
:103910000CF0FF0C4FF00008220728D5702806D0C5
:10392000009B83F0100353EA0A0305D00EE0402207
:103930008DF80420012208E05CEA010206D0302262
:103940008DF804208DF8050002229046009B83F03C
:10395000080353EA0A030AD15CEA010201D16207B3
:1039600005D530228DF804204FF001087F1E58281D
:1039700004D034A003900EA802900DE036A0F9E721
:1039800053466046009AFCF792FC84460398825C9A
:103990000298401E029002705CEA0100F0D1029889
:1039A00006A9081A00F1200A600702D524F4803421
:1039B00000E00127574502DDA7EB0A0000E00020E8
:1039C00000EB0A01009005984144401A0590E0037D
:1039D00006D45B462146179A059800F0B3F90544D2
:1039E000002706E001A85A46C05D179990476D1C54
:1039F0007F1C4745F6DBE0030CD55B462146179A52
:103A0000059800F09FF9054404E030205A461799C4
:103A100090476D1C0099481E00900029F5DC08E0D5
:103A2000029802995A460078491C029117999047CA
:103A30006D1CBAF10001AAF1010AF1DC65E1000098
:103A40000928010030313233343536373839616274
:103A50006364656600000000303132333435363738
:103A600038394142434445460000000000F058F90F
:103A70000544761C307800287FF4ECAD19B0284658
:103A8000BDE8F08F620700D4062709F1070222F093
:103A9000070CFCE80223E14603F000485FEA080C4B
:103AA00002D00FF2702C0DE05FEA045C02D50FF239
:103AB000682C07E05FEAC47C02D00FF2602C01E0C2
:103AC000AFF2700C4FF0FF3823F00043CDF850C038
:103AD00065280CD006DC452809D046281DD047288B
:103AE0003DD13DE0662818D067287ED138E000211E
:103AF000112F01DB112000E0781CCDE9000106A99F
:103B00000EA8FFF7DDFCDDE90F010E9A03910021FD
:103B1000009207F1010A04914DE04FF00040009738
:103B2000CDE9011006A90EA8FFF7CAFCDDE90F02D6
:103B300003920E9B11990022DDF80CA000930492D1
:103B400011B9791C00EB010AB7EB0A0004D4C0F1EB
:103B5000FF3007F1010A0490AAEB0700019044E04E
:103B6000012F00DA01270021112F01DD112000E0D3
:103B70003846CDE9000106A90EA8FFF7A1FCDDE952
:103B80000F010E9A0391002104910092BA46210779
:103B90000CD40399514500DA8A46BAF1010F05DDCC
:103BA000009AAAF10101515C302908D0B84202DA2A
:103BB00010F1040F06DA0121CDE9011015E0AAF198
:103BC0000101E9E7002805DC049901440491AAEB0E
:103BD000000102E0411C514500DD8A460499401A6B
:103BE000401C01904FF000400290200704D401983F
:103BF000504501DBCDF8048000208DF84F0002987D
:103C00000DF14F07B0F1004F25D02B200E900298F8
:103C10004FF0020800280CDA404202902D200E904E
:103C200007E00A210298FCF72CFB3031029007F8DC
:103C3000011DB8F10001A8F10108F2DC029800288A
:103C4000EFD1791E0E980870307800F0200040F017
:103C5000450007F8020D12A8C01B00F107081498D0
:103C6000007800B1012000EB0A01019801EBE0713E
:103C700005984144401A401E0590E00306D45B4677
:103C80002146179A059800F05DF8054414980078CD
:103C900018B15A46179990476D1CE00324D55B462E
:103CA0002146179A059800F04DF805441CE0049849
:103CB000002807DBDDE90301884203DD0098405C52
:103CC000179901E0179930205A469047049805F15A
:103CD0000105401C04900198401E019004D12E2043
:103CE0005A46179990476D1CBAF10001AAF1010AD2
:103CF000DDDC05E017F8010B5A46179990476D1C5B
:103D0000B8F10001A8F10108F4DC5B462146179ADE
:103D10000598ABE62D0000002B00000020000000FD
:103D20002DE9F041044600251E461746880404D4B8
:103D300005E039462020B0476D1C641EF9D52846A1
:103D4000BDE8F0812DE9F041044600251E4690466D
:103D5000C80301D5302700E02027880404D505E0FA
:103D600041463846B0476D1C641EF9D52846BDE86B
:103D7000F081000070B5044600255CB9FEF700FF35
:103D80004FF4006007490880FEF7ECFE00B900E040
:103D9000012501E0012500BF00BF0DB1012070BD6C
:103DA0000020FCE7200100202DE9FC47054688465D
:103DB000164600BF5DB95CA340F2BB2265A169A0B5
:103DC000FFF75EFB0020002000BFBDE8FC8700BFBE
:103DD00070892A280EDA6D48408C401C81B26B48ED
:103DE0004184C08B401C81B26848C183304603F0D7
:103DF000AFFFEAE7776807F10E042088B0F5807F0F
:103E000008D12079062805D16079042802D160887C
:103E100008280ED05D48008D401C81B25B480185AA
:103E2000C08B401C81B25948C183304603F090FFDB
:103E3000CBE75648408B401C81B254484183D4F8AC
:103E40000E000190A0690090281D08B1686810B9A3
:103E50004FF0000907E000986968884201D101200D
:103E600000E000208146B9F1000F01D0012000E000
:103E70000220034604F1080201A9284600F074FE5E
:103E8000E088B0F5807F03D0B0F5007F3ED13CE004
:103E9000B9F1000F37D0022002F02DFDE080D4F8F8
:103EA0000E00A0616868C4F80E0000BF95F82200FB
:103EB00006280CD000BF1CA340F21132344929A0BF
:103EC000FFF7DEFA0020002000BFAFF3008000BF44
:103ED000A068C4F81200A089E082A0683860A089B8
:103EE000B880D8F80000A060B8F80400A081D8F825
:103EF0000000C7F80600B8F804007881314628466B
:103F0000AA69904700E000BF07E006E01F48808DE7
:103F1000401C81B21D48818500BF00BF304603F0C0
:103F200017FF00BF51E700002E2E5C7372635C70B8
:103F3000726F746F636F6C5C6C7769705F315F3444
:103F40005F315C6E657469665C6574686172702E61
:103F5000630000006E6574696620213D204E554C5B
:103F60004C000000417373657274696F6E202225E6
:103F70007322206661696C6564206174206C696ECF
:103F80006520256420696E2025730A008470002056
:103F90003CD900082DE9FE4F064688464FF00A0935
:103FA000CA460A270024002002900190BB460090D8
:103FB00000BF71E004EB84007A4901EB8000857C4E
:103FC0000A2F02D10DB967B264E0002D62D000BFA4
:103FD000012D0ED0022D0CDA00BF73A340F22B127C
:103FE0007CA18CA0FFF74CFA0020002000BFAFF3AB
:103FF000008000BF5EB104EB84016A4A02EB8101DC
:1040000030684968884202D160B2BDE8FE8F012D58
:104010002AD104EB8400634951F8200088B104EBF5
:10402000840001EB8000C17C0098814232DB4FFAB2
:1040300084FB04EB84005B4901EB8000C07C0090B2
:1040400028E004EB8400574901EB8000C17C029812
:1040500081421FDB4FFA84F904EB8400514901EBE4
:104060008000C07C029015E0022D13DB042D11DAD4
:1040700004EB84004B4901EB8000C17C0198814234
:1040800008DB4FFA84FA04EB8400464901EB800018
:10409000C07C0190601CC4B20A2C8BDB08F00200CB
:1040A00020B90A2F05D108F0010010B94FF0FF30F8
:1040B000ABE70A2F01DAFCB23CE0BAF10A0F16DADC
:1040C0000AF0FF0400BF04EB8400364951F82000D9
:1040D00060B100BF34A340F2711258A14DA0FFF7A8
:1040E000CFF90020002000BFAFF300800EE0B9F14F
:1040F0000A0F02DA09F0FF0408E0BBF10A0F02DA46
:104100000BF0FF0402E04FF0FF307EE700BF0A2C07
:104110000CDB00BF24A340F283124EA13DA0FFF7A9
:10412000AFF90020002000BFAFF3008000BF2046A1
:1041300000F0B0F800BF0A2C0CDB00BF1AA340F25D
:10414000871244A133A0FFF79BF90020002000BF95
:10415000AFF3008000BF00BF04EB8400114901EB06
:104160008000807C60B100BF0FA34FF4C4723EA1F9
:1041700028A0FFF785F90020002000BFAFF30080E2
:1041800000BF36B104EB8401064A02EB81013068BE
:104190004860002004EB8401024A02EB8101C874EC
:1041A00060B232E7AC7100202E2E5C7372635C70DB
:1041B000726F746F636F6C5C6C7769705F315F34C2
:1041C0005F315C6E657469665C6574686172702EDF
:1041D000630000007374617465203D3D20455448C0
:1041E0004152505F53544154455F50454E44494EEF
:1041F00047207C7C207374617465203E3D204554CB
:10420000484152505F53544154455F535441424CCE
:1042100045000000417373657274696F6E2022253A
:104220007322206661696C6564206174206C696E1C
:104230006520256420696E2025730A006172705F15
:104240007461626C655B695D2E71203D3D204E5549
:104250004C4C000069203C204152505F5441424C7C
:10426000455F53495A4500006172705F7461626C2A
:10427000655B695D2E7374617465203D3D20455416
:10428000484152505F53544154455F454D50545935
:104290000000000010B5044604EB84000C4951F8FE
:1042A000200060B104EB8401094A52F8210003F0B8
:1042B0004FFD002004EB8401054A42F82100002054
:1042C00004EB8401024A02EB8101887410BD0000F6
:1042D000AC7100202DE9FC4704460F461546A9465F
:1042E00000BF002C0CD100BF64A340F275326EA158
:1042F00071A0FFF7C5F80020002000BFAFF30080D9
:1043000000BF00BF67B900BF5CA340F2763274A162
:1043100069A0FFF7B5F80020002000BFAFF30080D0
:1043200000BF00BF002D0CD100BF54A340F2773274
:104330006EA161A0FFF7A4F80020002000BFAFF33A
:10434000008000BF0E21384603F0E6FD40B16B4807
:104350004089401C694948816FF00100BDE8FC8735
:104360002146286801F00FF910B1DFF894817DE053
:10437000287800F0F000E02815D101208DF8000029
:1043800000208DF801005E208DF80200687800F0B2
:104390007F008DF80300A8788DF80400E8788DF888
:1043A0000500E84661E02868A1680840D4E90112E8
:1043B0001140884210D0288880B24FF6A961884207
:1043C0000AD004F10C0020B1E06810B104F10C092E
:1043D00002E06FF00300C1E74A48007800EB80007C
:1043E000494901EB8000807C022818DB45490978A7
:1043F00001EB8101444A02EB8101D9F800004968D0
:1044000088420CD13D48C08D401C81B23B48C185DB
:104410003C4802783946204600F078F89EE70026AE
:104420001BE006EB8600384901EB8000807C022807
:1044300011DB06EB8601344A02EB8101D9F800005A
:104440004968884207D12F490E70F2B2394620469A
:1044500000F05CF882E7701C46B20A2EE1DB3A46B7
:104460004946204600F0E0F878E700BF434604F1F3
:1044700023023946204600F01DFB6FE72E2E5C73A9
:1044800072635C70726F746F636F6C5C6C77697071
:104490005F315F345F315C6E657469665C6574685A
:1044A0006172702E630000006E6574696620213DA4
:1044B000204E554C4C000000417373657274696F57
:1044C0006E2022257322206661696C656420617408
:1044D000206C696E6520256420696E2025730A00B2
:1044E0007120213D204E554C4C00000069706164E4
:1044F000647220213D204E554C4C000084700020F9
:1045000060D800089E000020AC71002070B5054600
:104510000E46144600BF04EB8400214901EB8000E5
:10452000807C02280CDA00BF1EA34FF4537228A12E
:1045300033A0FEF7A5FF0020002000BFAFF30080EE
:1045400000BF04EB8400164901EB8000807C022848
:1045500017D104EB840001EB8000C07CE42810DB61
:1045600004EB84000A4602EB8000011D284600F09F
:104570008BFA30B9032004EB8401094A02EB810174
:10458000887404EB8400064901EB800000F10C0301
:1045900005F123023146284600F08CFA70BD000078
:1045A000AC7100202E2E5C7372635C70726F746F3E
:1045B000636F6C5C6C7769705F315F345F315C6E28
:1045C000657469665C6574686172702E63000000D2
:1045D0006172705F7461626C655B6172705F696467
:1045E000785D2E7374617465203E3D2045544841CA
:1045F00052505F53544154455F535441424C45001F
:10460000417373657274696F6E2022257322206670
:1046100061696C6564206174206C696E6520256435
:1046200020696E2025730A002DE9F05F80460F4651
:10463000164608F123094FF0FF3A4146386800F06A
:10464000A2FF38B9387800F0F000E02802D00FB1AE
:10465000386818B96FF00D00BDE8F09F01213846A9
:10466000FFF798FC0446002C08DA2EB16848808CCD
:10467000401C81B2664881842046EDE704EB84004B
:10468000644901EB8000807C30B9012004EB840197
:10469000604A02EB8101887400BF04EB84005D492D
:1046A00001EB8000807C012813D004EB840001EB37
:1046B0008000807C02280CDA00BF57A340F2194228
:1046C00060A16AA0FEF7DCFE0020002000BFAFF36F
:1046D000008000BF04EB84004E4901EB8000807C29
:1046E000012800D03EB93946404600F0CDF9824657
:1046F0000EB95046B0E700BF66B900BF46A340F20E
:104700002D4264A159A0FEF7BBFE0020002000BF8F
:10471000AFF3008000BF04EB84003E4901EB800052
:10472000807C02280FDB5E490C7004EB8400394961
:1047300001EB800000F10C034A463146404600F090
:10474000B9F9824661E004EB8400324901EB800054
:10475000807C012859D14FF0000B35461BE000BF8B
:104760006889298988420ED1286860B100BF2AA3D0
:1047700040F23E424BA13DA0FEF782FE0020002009
:1047800000BFAFF3008000BF287B012802D04FF0AC
:10479000010B02E02D68002DE1D100BFBBF1000F3D
:1047A00010D029890022032002F034FE05466DB1A5
:1047B0003146284603F000F940B1284603F0C8FA14
:1047C000002503E03546284603F04AFDA5B104EB79
:1047D0008400104951F8200030B104EB84010D4AE7
:1047E00052F8210003F0B4FA04EB8400094941F8BF
:1047F00020504FF0000A07E00548808C401C81B231
:10480000034881844FF0FF3A00BF504624E7000080
:1048100084700020AC7100202E2E5C7372635C707B
:10482000726F746F636F6C5C6C7769705F315F344B
:104830005F315C6E657469665C6574686172702E68
:10484000630000006172705F7461626C655B695D3A
:104850002E7374617465203D3D2050454E44494E91
:1048600047206F7220535441424C45004173736599
:104870007274696F6E2022257322206661696C65EF
:1048800064206174206C696E6520256420696E2047
:1048900025730A007120213D204E554C4C0000002C
:1048A0009E0000206E6F207061636B6574207175CF
:1048B0006575657320616C6C6F776564210000001D
:1048C0002DE9F84F0746884691469A46DDF828B00C
:1048D0000020009000BF002F0CD100BF42A340F287
:1048E000A5424CA14FA0FEF7CBFD0020002000BF49
:1048F000AFF3008000BF00222A21032002F08AFDCE
:1049000005464DB95148808C401C81B24F48818486
:104910004FF0FF30BDE8F88F00BF68892A280CDA15
:1049200000BF31A34FF4966249A13EA0FEF7A8FD57
:104930000020002000BFAFF3008000BF6E6806F1CA
:104940000E040D9801F0D7FFE08000BF97F8220019
:1049500006280CD000BF24A34FF49762494931A028
:10496000FEF78EFD0020002000BFAFF3008000BFE7
:10497000DAF80000A060BAF80400A0810B98016882
:10498000C4F812108088E082D9F800003060B9F8CD
:104990000400B080D8F80000C6F80600B8F804009B
:1049A0007081DBF80000C4F80E000C980068A0616C
:1049B0004FF4807020800820608006202071042041
:1049C00060714FF4C160B08129463846BA6990479A
:1049D00000901E48008B401C1C490883284603F0A9
:1049E000B7F90025009895E72E2E5C7372635C7012
:1049F000726F746F636F6C5C6C7769705F315F347A
:104A00005F315C6E657469665C6574686172702E96
:104A1000630000006E6574696620213D204E554C90
:104A20004C000000417373657274696F6E2022251B
:104A30007322206661696C6564206174206C696E04
:104A40006520256420696E2025730A00847000208B
:104A5000636865636B20746861742066697273743F
:104A600020706275662063616E20686F6C642073CD
:104A70007472756374206574686172705F686472C3
:104A8000000000003CD900087FB504460D46012116
:104A9000064A201D04F123038DE825000391044AF2
:104AA00019462046FFF70CFF04B070BD66D8000819
:104AB00060D800082DE9F04104460E461746984696
:104AC000756800BF94F8220006280CD000BF10A320
:104AD00040F2A31219491AA0FEF7D2FC00200020D0
:104AE00000BFAFF3008000BFD8F800002860B8F81E
:104AF0000400A8803868C5F80600B88868810820D6
:104B0000A88131462046A2699047BDE8F0810000A7
:104B10002E2E5C7372635C70726F746F636F6C5C6B
:104B20006C7769705F315F345F315C6E65746966A4
:104B30005C6574686172702E630000003CD90008E7
:104B4000417373657274696F6E202225732220662B
:104B500061696C6564206174206C696E65202564F0
:104B600020696E2025730A002DE9F04706460D46A0
:104B70001746984600BF96F8220006280CD000BFC2
:104B800034A340F2C3123EA147A0FEF779FC0020F7
:104B9000002000BFAFF3008000BF5DB1286848B1BE
:104BA0003146286800F0EFFC20B9287800F0F000CA
:104BB000E02803D16FF00D00BDE8F087414628469C
:104BC000FFF7E8F90446002C01DA2046F4E708F084
:104BD000040038B1042004EB84013D4A02EB81015A
:104BE000887406E0022004EB8401394A02EB81015B
:104BF000887404EB8400364901EB8000866004EB86
:104C0000840001EB80003968C160B988018200200E
:104C100004EB84012E4A02EB8101C87404EB84008A
:104C2000114651F8200098B104EB840051F820900F
:104C3000002004EB840142F821003B4606F12302E8
:104C400049463046FFF736FF484603F081F800BF7B
:104C50000020B1E72E2E5C7372635C70726F746F0C
:104C6000636F6C5C6C7769705F315F345F315C6E71
:104C7000657469665C6574686172702E630000001B
:104C80006E657469662D3E6877616464725F6C65F9
:104C90006E203D3D204554484152505F48574144A5
:104CA00044525F4C454E0000417373657274696FE6
:104CB0006E2022257322206661696C656420617410
:104CC000206C696E6520256420696E2025730A00BA
:104CD000AC7100202DE9F04104460E464FF00E085D
:104CE00060890E280BDC3848008D401C81B23648A4
:104CF0000185C08B401C81B23348C1835FE0656889
:104D0000AF89287800F00100B0B12878012809D1D6
:104D1000687888B9A8785E280ED1607B40F01000D2
:104D2000607309E0062229492846FBF79DFA18B965
:104D3000607B40F008006073082F03D0B7F5C16FA7
:104D40002DD11FE096F8290000F0200000B936E0D0
:104D5000C8F1000001B2204603F0DEF868B100BFE0
:104D600000BF1BA340F24F5224A12DA0FEF788FBE9
:104D70000020002000BFAFF300803146204600F045
:104D8000A3FD18E096F8290000F0200000B916E015
:104D9000224606F123013046FFF706F80BE00A48E9
:104DA000008D401C81B208480185C08B401C81B237
:104DB0000548C18303E000BF0020BDE8F081204624
:104DC00002F0C6FF0020F8E78470002060D80008D9
:104DD0002E2E5C7372635C70726F746F636F6C5CA9
:104DE0006C7769705F315F345F315C6E65746966E2
:104DF0005C6574686172702E6300000043616E2709
:104E000074206D6F7665206F7665722068656164C9
:104E1000657220696E207061636B6574000000002C
:104E2000417373657274696F6E2022257322206648
:104E300061696C6564206174206C696E652025640D
:104E400020696E2025730A0070B5044600BF002C4F
:104E50000CD100BF13A340F245121EA121A0FEF702
:104E60000FFB0020002000BFAFF3008000BF082030
:104E700001F07EFE054615B94FF0FF3070BDE561CB
:104E8000732084F82A0074212B2001551F4860618B
:104E90001F48A06104F123002860204601F084FC33
:104EA0000020EBE72E2E5C7372635C70726F746F80
:104EB000636F6C5C6C7769705F315F345F315C6E1F
:104EC000657469665C65746865726E657469662E82
:104ED000630000006E6574696620213D204E554CCC
:104EE0004C000000417373657274696F6E20222557
:104EF0007322206661696C6564206174206C696E40
:104F00006520256420696E2025730A00D5420008BB
:104F1000A968000870B50446204601F08BFC0646DF
:104F200016B94FF0FF3070BD2146304622699047D8
:104F300005461DB1304602F00BFF00262846F2E779
:104F400070B504460D46E1B20548FEF765FA00BFAC
:104F500040210348FEF798F90028F9D0204670BD9B
:104F60000044004070B505460C4622460321284601
:104F700000F0E8F970BD00002DE9FE4F04468946B7
:104F80009D48B0F86200401C81B29B48A0F86210B6
:104F90006668307800074FEA9068C8F10001204643
:104FA00002F0BAFF10B92089042800D20BE1606832
:104FB00090F800A0BAF1000F03D0BAF1080F70D139
:104FC00000E0FBE001278D48007800F0F000E028C9
:104FD00000D1002789490868494600F0D4FA00B199
:104FE000002767B98448B0F87400401C81B2824839
:104FF000A0F87410204602F0ABFEBDE8FE8F2089B9
:10500000082800D2DFE0204600F041FA58B12046DF
:1050100002F09EFE7848B0F86800401C81B27648E5
:10502000A0F86810E9E72221204602F075FF002869
:105030005CD04146204602F06FFF00280CD000BF34
:1050400000BF6FA3982279A185A0FEF719FA00206E
:10505000002000BFAFF3008021890022022002F06F
:10506000D9F9074607B9BAE000BF798908F1080005
:1050700081420BD200BF62A3A12283A178A0FEF7D8
:10508000FFF90020002000BFAFF3008000BF2146E1
:10509000384602F091FC70B100BF00BF58A3A522B2
:1050A00000E07BE086A16EA0FEF7EAF90020002078
:1050B00000BFAFF300807E68C8F1000001B238463F
:1050C00002F02AFF00280CD000BF00BF4CA3AB2287
:1050D00085A163A0FEF7D4F90020002000BFAFF344
:1050E0000080204602F034FE3C4612E06FF02101C1
:1050F000204602F011FF60B100BF00BF40A3B522FF
:1051000079A157A0FEF7BCF90020002000BFAFF343
:105110000080656839480068F06080480068306148
:105120000020287068884FF6F771884203D368889A
:105130000930688002E0688808306880FF2030729B
:10514000002070811421304600F097F970812A48C0
:10515000B0F86000401C2849A1F860004146204694
:1051600002F0DAFE60B100BF00BF25A3DA226CA115
:105170003BA0FEF785F90020002000BFAFF30080C0
:1051800001200021FF230A46CDE9010900911B49B6
:10519000204600F01DFD074600BF0FE01648B0F89E
:1051A0007000401C81B21448A0F87010B0F866007E
:1051B000401C81B21048A0F8661000BF00BF204616
:1051C00002F0C6FD19E7204602F0C2FD0A48B0F819
:1051D0006A00401C81B20848A0F86A100DE720461A
:1051E00002F0B6FD0448B0F87400401C81B20248D9
:1051F000A0F8741000BF00E7847000209000002029
:105200002E2E5C7372635C70726F746F636F6C5C74
:105210006C7769705F315F345F315C636F72655CBE
:10522000697076345C69636D702E630069636D70BC
:105230005F696E7075743A206D6F76696E67207065
:105240002D3E7061796C6F616420746F20697020ED
:10525000686561646572206661696C65640A000056
:10526000417373657274696F6E2022257322206604
:1052700061696C6564206174206C696E65202564C9
:1052800020696E2025730A00636865636B2074686B
:105290006174206669727374207062756620636140
:1052A0006E20686F6C642073747275637420746808
:1052B000652049434D5020686561646572000000B7
:1052C00069636D705F696E7075743A20636F707991
:1052D000696E6720746F206E657720706275662036
:1052E0006661696C65640A0069636D705F696E7000
:1052F00075743A20726573746F72696E67206F728D
:105300006967696E616C20702D3E7061796C6F61A8
:1053100064206661696C65640A0000008C000020EE
:1053200043616E2774206D6F7665206F76657220FD
:1053300068656164657220696E207061636B657475
:10534000000000002DE9FE4306460F46904600226D
:105350002421012002F05EF805460DB9BDE8FE8368
:1053600000BF688924280CD200BF1EA34FF4997295
:1053700027A132A0FEF784F80020002000BFAFF381
:10538000008000BFD6F804906C68277084F8018014
:105390000020A080E08071686A6802F108001C2289
:1053A000FAF73EFF002060806989204600F065F82A
:1053B00060802C48B0F86000401C2A49A1F86000C9
:1053C000D9F80C00029001200021FF2302AACDE9A8
:1053D0000010284600F096FB284602F0B9FC00BFFA
:1053E000BCE700002E2E5C7372635C70726F746F8A
:1053F000636F6C5C6C7769705F315F345F315C63E5
:105400006F72655C697076345C69636D702E6300E1
:10541000636865636B207468617420666972737475
:1054200020706275662063616E20686F6C6420690D
:10543000636D70206D65737361676500417373659B
:105440007274696F6E2022257322206661696C6513
:1054500064206174206C696E6520256420696E206B
:1054600025730A008470002070B505460C4622465C
:105470000B212846FFF766FF70BD70B504460D4648
:105480002946204601F049FAC04380B270BD2DE99B
:10549000F041064600240027354617E06989686810
:1054A00001F03BFA0444A0B200EB1444688900EB1D
:1054B000D0714910A0EB410139B1C7F10100C7B269
:1054C000E0B2C4F3072141EA00242D68002DE5D1A4
:1054D00027B1E0B2C4F3072141EA0024E04380B2DF
:1054E000BDE8F0812DE9F05F0746884691469A466F
:1054F0000024A3463D4618E06989686801F00DFA6A
:105500000444A0B200EB1444688900EBD071491048
:10551000A0EB410141B1CBF1010000F0FF0BE0B283
:10552000C4F3072141EA00242D68002DE4D1BBF12A
:10553000000F04D0E0B2C4F3072141EA0024D8F8F8
:105540000060B0B204444FF6FF7000EA1640044415
:10555000D9F80060B0B204444FF6FF7000EA16407C
:105560000444504601F0C7F904440A9801F0C3F915
:105570000444A0B200EB1444A0B200EB1444E04396
:1055800080B2BDE8F09F18B502460092D04300B14A
:105590000AB9012018BD91F8290000F0020008B9ED
:1055A0000020F7E74868904201D10020F2E7009818
:1055B0008B681840D1E901342340984208D18868AB
:1055C00022EA00008C68E343984201D10120E1E720
:1055D0000020DFE72DE9F74F8CB004468946B9F883
:1055E00020000890142004904FF0000860680B9091
:1055F0000B9EF08801F08BF903900398C0F30C0028
:105600000790039800F4005006902089143880B267
:1056100009900899A1F11400C11700EB5171C1F371
:10562000CF010A91B9E0089814380999884201DB42
:10563000012000E0002005900798C0F30C000699B7
:1056400008430390059818B9039840F4005003905C
:10565000059808B1099801E00A98C0001FFA80FB7C
:1056600000221421022001F0D5FE054625B94FF095
:10567000FF300FB0BDE8F08F00BF608914280CDA4E
:1056800000BF49A340F2FB2253A15BA0FDF7F8FE47
:105690000020002000BFAFF3008000BF1422686824
:1056A0000B99FAF7BDFD6E68616804980844606064
:1056B00061890498081A6081CDF808B03FE06189DB
:1056C0000298814201DD029800E060898046B8F1CD
:1056D000000F01D1246832E000F0A6F807462FB988
:1056E000284602F035FB4FF0FF30C2E760683B46CA
:1056F00002224146CDE90008032002F02BF8824641
:10570000BAF1000F08D1384600F094F8284602F0AC
:105710001FFB4FF0FF30ACE7204602F0A1FD7C619B
:105720003F4838615146284602F090F80298A0EBB5
:10573000080080B20290029800B1246800BF02986D
:105740000028BCD1CDF81080039801F0D4F8F08087
:105750000BF1140188B201F0CEF870800020708146
:1057600014213046FFF789FE7081D9F8143029469C
:1057700048460E9A98472B48008E401C29490886B7
:10578000284602F0E5FA0998A0EB0B0080B20990D8
:105790000A990798084480B20790099800287FF476
:1057A00042AF00BF65E700002E2E5C7372635C7031
:1057B000726F746F636F6C5C6C7769705F315F34AC
:1057C0005F315C636F72655C697076345C69705FD1
:1057D000667261672E63000074686973206E656588
:1057E00064732061207062756620696E206F6E653B
:1057F0002070696563652100417373657274696F18
:105800006E2022257322206661696C6564206174B4
:10581000206C696E6520256420696E2025730A005E
:10582000DD6600088470002010B5062001F066FCDB
:1058300010BD000010B5044600BF002C0CD100BF05
:1058400008A340F2792213A115A0FDF719FE00204C
:10585000002000BFAFF3008000BF2146062001F00A
:10586000DFFB10BD2E2E5C7372635C70726F746F01
:10587000636F6C5C6C7769705F315F345F315C6360
:105880006F72655C697076345C69705F66726167BF
:105890002E6300007020213D204E554C4C0000002E
:1058A000417373657274696F6E20222573222066BE
:1058B00061696C6564206174206C696E6520256483
:1058C00020696E2025730A002DE9F04706460F4631
:1058D0008648B0F84A00401C81B28448A0F84A10BB
:1058E000756828780421B1EB201F14D0304602F0EF
:1058F0002FFA7E48B0F85C00401C81B27B48A0F8CB
:105900005C10B0F84E00401C81B27848A0F84E10F0
:105910000020BDE8F087287800F00F084FF6FF70F0
:1059200000EA8808688800F0F2FF814670894045E7
:1059300002DB3089484513DA304602F009FA6B4839
:10594000B0F85200401C81B26848A0F85210B0F87C
:105950004E00401C81B26548A0F84E100020D8E7E8
:1059600041462846FFF789FD98B1304602F0F0F92C
:105970005E48B0F85000401C81B25C48A0F850105E
:10598000B0F84E00401C81B25848A0F84E100020DC
:10599000BFE74946304602F06BFB2869544908606E
:1059A000E868544908604FF0010A3C4600BF94F88B
:1059B000290000F0010078B1201D68B1606858B17D
:1059C0004B4800686168884205D04949086821460B
:1059D000FFF7D9FD00B10DE0BAF1000F04D04FF090
:1059E000000A4548046800E02468BC4200D12468ED
:1059F000002CDCD100BF3F4908683946FFF7C3FDE2
:105A000028B93C48007800F0F000E0280CD130467E
:105A100002F09EF93548B0F84E00401C81B2334880
:105A2000A0F84E10002074E724B9304602F090F937
:105A300000206EE7E8884FF63F71084038B13046E5
:105A400000F0C4F906460EB9002062E775682B48DD
:105A500007602B4805603946304602F0FBFFD0BB9B
:105A6000687A01280DD0062806D011280ED13946B3
:105A7000304606F071FF2DE03946304603F036FD22
:105A800028E039463046FFF777FA23E018490868DE
:105A90003946FFF778FD50B91548007800F0F0005E
:105AA000E02804D0756002213046FFF75BFA3046EB
:105AB00002F04EF90D48B0F85800401C81B20B4876
:105AC000A0F85810B0F84E00401C81B20748A0F86A
:105AD0004E1000BF00BF0020084908600849086058
