:020000040800F2
:10000000988B0020FD01000809180008650B000806
:10001000691600080D0300083528000800000000DC
:100020000000000000000000000000006501000862
:10003000A905000800000000A90100089559000862
:10004000170200081702000817020008170200082C
:10005000170200081702000817020008170200081C
:10006000170200081702000817020008170200080C
:1000700017020008170200087103000817020008A1
:1000800017020008B503000817020008170200084D
:1000900017020008170200081702000817020008DC
:1000A00017020008170200081702000817020008CC
:1000B00017020008170200081702000817020008BC
:1000C00017020008170200081702000817020008AC
:1000D00017020008DD2200080925000817020008A1
:1000E00017020008170200081702000800000000AD
:1000F0000000000000000000000000000000000000
:1001000000000000000000001702000817020008AD
:10011000170200081702000817020008170200085B
:10012000170200081702000817020008170200084B
:10013000170200081702000817020008170200083B
:10014000170200081702000817020008170200082B
:10015000DFF80CD000F0A8F800480047994B0008E1
:10016000988B0020224B19680868B0E8F00F80F3E4
:100170000988BFF36F8F4FF0000080F311884EF0B5
:100180000D0E70470000000006480068006880F30C
:10019000088862B661B6BFF34F8FBFF36F8F00DF81
:1001A00000BF00BF08ED00E0EFF30980BFF36F8FE1
:1001B0000F4B1A6820E9F00F106008B54FF0BF0030
:1001C00080F31188BFF34F8FBFF36F8F05F07AFB79
:1001D0004FF0000080F31188BDE8084019680868F6
:1001E000B0E8F00F80F30988BFF36F8F704700BF4E
:1001F00014000020EFF30580704700000648804798
:1002000006480047FEE7FEE7FEE7FEE7FEE7FEE7FB
:10021000FEE7FEE7FEE7FEE739200008510100088F
:1002200040EA01039B0703D009E008C9121F08C078
:10023000042AFAD203E011F8013B00F8013B521EF8
:10024000F9D270472DE9F05F0546002092469B46A3
:1002500088460646814640241BE0284641464746DC
:10026000224600F042F853465A46C01A914110D334
:1002700011461846224600F029F82D1A67EB0108AE
:100280004F4622460120002100F020F817EB00091C
:100290004E41201EA4F10104DFDC484631462A46C7
:1002A0004346BDE8F09F0000064C074D06E0E068BD
:1002B00040F0010394E8070098471034AC42F6D3AD
:1002C000FFF74AFFF40D0308140E0308202A04DB8D
:1002D000203A00FA02F1002070479140C2F1200359
:1002E00020FA03F3194390407047202A04DB203A98
:1002F00021FA02F00021704721FA02F3D040C2F146
:1003000020029140084319467047000002A002F005
:10031000C1FA00BFFEE70000427573204661756CAC
:100320007421200D0A00000010B54FF4407001F058
:10033000B1FA10BD30B502460B464FF6FF700021F2
:1003400012E0555C684000240AE000F0010525B188
:100350004AF2010585EA600000E04010651CACB27D
:10036000082CF2DB4D1CA9B29942EADB30BD00003B
:1003700010B500200C4908600C48006805F0CCFC62
:100380000948006801280AD10748006838B14FF0D1
:10039000805007490860BFF34F8FBFF36F8F4FF452
:1003A000204000F013F810BD0800002004000020D9
:1003B00004ED00E010B50120034981F801024FF07F
:1003C000206000F003F810BDA72B002000F0805142
:1003D00011B10349086001E002494860704700001C
:1003E000040402400000024021B1026842F0010210
:1003F000026004E002684FF6FE731A400260704724
:1004000001684FF6FE7211400160002101604160F9
:100410008160C1604B49884208D14A49083949681E
:1004200041F00F01474A083A51608AE045491431CA
:10043000884208D143490839496841F0F001414AEE
:10044000083A51607DE03F492831884208D13D4952
:100450000839496841F470613A4A083A516070E0DD
:1004600038493C31884208D136490839496841F455
:100470007041344A083A516063E032495031884251
:1004800008D130490839496841F470212D4A083AA9
:10049000516056E02B496431884208D12949083916
:1004A000496841F47001274A083A516049E02549FA
:1004B0007831884208D123490839496841F0706190
:1004C000204A083A51603CE01F49884206D1011F8A
:1004D000096841F00F01021F116032E01A4914311E
:1004E000884208D11849091F096841F0F001164AED
:1004F000121F116025E014492831884208D11249A1
:10050000091F096841F470610F4A121F116018E059
:100510000D493C31884208D10B49091F096841F453
:100520007041094A121F11600BE00749503188429F
:1005300007D10549091F096841F47021024A121FB9
:1005400011607047080002400804024001464868F4
:1005500080B270471AB103680B43036002E003687E
:100560008B430360704710B50022026847F6F073B2
:100570009A430C6A8B6823430C6923434C692343D9
:100580008C692343CC6923434C6A23438C6A2343FD
:100590001A430260CB6843600B6883604B68C3609A
:1005A00010BD41607047000002A002F073F900BF67
:1005B000FEE700004465627567204661756C742132
:1005C000200D0A0010B5ADF59E6D24224CA11AA88D
:1005D000FFF726FE012253A1AFA803F0FFFB04465C
:1005E0000D2C22D150A002F055F94FF40070594B58
:1005F0000022072100904BA003F0AEF804467CB91E
:1006000055A002F047F9012246A1002003F0E6FBC5
:100610000446012243A1AFA803F0E0FB044611E029
:1006200055A002F037F900BFFEE744B1214658A0BB
:1006300002F030F960A002F02DF900BFFEE768A0DB
:1006400002F028F970A002F025F9122279A124A85D
:1006500003F0F2FB0446002C1CD17AA002F01AF938
:1006600023AB23221AA924A803F00AFE23982328E7
:1006700008D17CA0239902F00DF91AA982A002F0FA
:1006800009F903E0214688A002F004F924A803F048
:1006900052F802E08AA002F0FDF890A002F0FAF809
:1006A000012264A124A803F0C7FB0446002C18D142
:1006B00093A002F0EFF823AB232201A924A803F0B2
:1006C000B9FC044644B993A0239902F0E3F801A9C8
:1006D00098A002F0DFF807E021469DA002F0DAF8CA
:1006E00002E0A1A002F0D6F824A803F024F8012229
:1006F0000CA1002003F072FB0DF59E6D10BD0000F3
:10070000C9F1D6DB4956BAC5BFAAB7A2B0E52C20BD
:10071000464154CEC4BCFECFB5CDB3B2E2CAD4215B
:100720000D0A0000303A0000A1B7464C415348BBC7
:10073000B9C3BBD3D0CEC4BCFECFB5CDB3A3ACBC84
:10074000B4BDABBDF8D0D0B8F1CABDBBAF2E2E2E14
:100750000D0A0000A4270020A1B7464C415348D2FF
:10076000D1B3C9B9A6B8F1CABDBBAFCEC4BCFECF28
:10077000B5CDB3A1A30D0A00A1B6A1B6B8F1CABD0B
:10078000BBAFCAA7B0DCA1A3A1B7A1B70D0A0000F7
:10079000A3A1A3A1CDE2B2BF466C617368B9D2D464
:1007A000D8CEC4BCFECFB5CDB3CAA7B0DCA1A328B8
:1007B0002564290D0A000000A3A1A3A1BFC9C4DCC0
:1007C000D4ADD2F2A3BA53504920466C617368B3DA
:1007D000F5CABCBBAFB2BBB3C9B9A6A1A30D0A0091
:1007E0000D0ACEC4BCFECFB5CDB3B9D2D4D8B3C9EF
:1007F000B9A6A3ACBFC9D2D4BDF8D0D0B6C1D0B4CD
:10080000B2E2CAD40D0A00000D0A2A2A2A2A2A2A8C
:1008100020BCB4BDABBDF8D0D0CEC4BCFED0B4C8F3
:10082000EBB2E2CAD42E2E2E202A2A2A2A2A2A0DF8
:100830000A0000004661744673746573742E747800
:10084000740000000D0A20B4F2BFAAB4B4BDA846DB
:100850006174467374657374CEC4BCFEB3C9B9A623
:10086000200D0A00A1B7CEC4BCFED0B4C8EBB3C9FA
:10087000B9A6A3ACD0B4C8EBD7D6BDDACAFDBEDDED
:10088000A3BA25640A000000A1B7CFF2CEC4BCFE13
:10089000D0B4C8EBB5C4CAFDBEDDCEAAA3BA0D0A5A
:1008A00025730D0A00000000A3A1A3A1CEC4BCFEC5
:1008B000D0B4C8EBCAA7B0DCA3BA282564290A00C3
:1008C000A3A1A3A1B4F2BFAA2FB4B4BDA8CEC4BC47
:1008D000FECAA7B0DCA1A30D0A0000002A2A2A2A1A
:1008E0002A2A20BCB4BDABBDF8D0D0CEC4BCFEB665
:1008F000C1C8A1B2E2CAD42A2A2A2A2A2A0D0A0089
:10090000200D0A20B4F2BFAACEC4BCFEB3C9B9A65A
:10091000200D0A00CEC4BCFEB6C1C8A1B3C9B9A699
:100920002CB6C1B5BDD7D6BDDACAFDBEDDA3BA258A
:10093000640D0A00B6C1C8A1B5C3B5C4CEC4BCFE1F
:10094000CAFDBEDDCEAAA3BA0D0A2573200D0A008A
:10095000A3A1A3A1CEC4BCFEB6C1C8A1CAA7B0DCE6
:10096000A3BA282564290A00A3A1A3A1B4F2BFAAAF
:10097000CEC4BCFECAA7B0DCA1A30D0A00000000D3
:1009800008B50121480500F09FFF0121082000F073
:10099000ABFFC020ADF8000003208DF802001C2042
:1009A0008DF803006946024800F004F808BD000015
:1009B000000C01402DE9F0410246002500260020F0
:1009C00000230024002791F803C00CF00F0591F8D4
:1009D00003C00CF0100CBCF1000F03D091F802C062
:1009E0004CEA050591F800C0BCF1000F31D0146845
:1009F00000202BE04FF0010C0CFA00F3B1F800C01E
:100A00000CEA03069E4220D183004FF00F0C0CFA33
:100A100003F7BC4305FA03FC4CEA040491F803C055
:100A2000BCF1280F06D14FF0010C0CFA00FCC2F803
:100A300014C00AE091F803C0BCF1480F05D14FF093
:100A4000010C0CFA00FCC2F810C0401C0828D1D3DD
:100A50001460B1F800C0BCF1FF0F34DD5468002011
:100A60002EE000F1080C4FF0010808FA0CF3B1F881
:100A700000C00CEA03069E4221D183004FF00F0C08
:100A80000CFA03F7BC4305FA03FC4CEA040491F8A2
:100A900003C0BCF1280F05D100F1080C08FA0CF8CE
:100AA000C2F8148091F803C0BCF1480F07D100F1DF
:100AB000080C4FF0010808FA0CF8C2F81080401C2E
:100AC0000828CED35460BDE8F0810000F0B50A4696
:100AD000002300240021002500F00046B6F1004F5D
:100AE00002D11D4EF16901E01B4E7168C0F3034550
:100AF00083B200F44016B6F5401F08D121F07061B2
:100B0000154E766826F07066134F7E6012E000F492
:100B10008016B6F5801F06D1032606FA05F4A14318
:100B200041F0706106E0460D360103FA06F6B14366
:100B300041F0706122B1460D360103FA06F63143E9
:100B400000F00046B6F1004F02D1034EF16101E022
:100B5000014E7160F0BD000000000140416170472E
:100B6000016170470348006800F0010000B100BE59
:100B700000BFFEE7F0ED00E010B5FFF7D5FB00F099
:100B8000D3F84FF4E13001F0DBFB4FF4E13001F03A
:100B9000D9FC002002F052FD044624B103A001F06C
:100BA00079FE00BFFEE700F03DF810BD0D0A2046BB
:100BB000415420494E495449414C4953452065729E
:100BC000726F7221200D0A0021B1028842F00102E9
:100BD000028004E002884FF6FE731A4002807047DC
:100BE0001FB50020ADF804004BF6FF70ADF806000D
:100BF0000020ADF808004FF48060ADF80A00000155
:100C0000ADF80C00054800906946054800F016F85C
:100C100001210348FFF7D8FF1FBD0000801A06001E
:100C20000054004010B5FFF7ABFEFFF7D9FFA0203E
:100C30000149088010BD0000100000202DE9F0439C
:100C400085B004460D460026B1460427DFF8CC8067
:100C5000A6884FF6C0700640684600F055FEDDF8E5
:100C600008802F48B8FBF0F01FFA80F946EA090621
:100C7000A68020884FF6FE71084020800026294972
:100C8000286888420CD828684000B8FBF0F087B28A
:100C9000042F00DA04273E4309F10100208427E0F5
:100CA000E8884BF6FF71884206D1286800EB4000C7
:100CB000B8FBF0F087B209E0286800EBC00101EB57
:100CC0000010B8FBF0F087B247F48047C7F30B0081
:100CD00008B947F0010747F4004006434FF4967007
:100CE00009FB00F04FF47A7190FBF1F0401C208476
:100CF000A683208840F00100208026884FF6F5303A
:100D00000640A8886989084306432680A88929895E
:100D10000843208105B0BDE8F083000000127A008E
:100D200040420F00A086010008B50121202000F0FC
:100D3000DBFD0420ADF8000010208DF80300032037
:100D40008DF8020069461B48FFF734FE0121202080
:100D500000F0CAFD0820ADF8000010208DF8030057
:100D600003208DF8020069461248FFF723FE012197
:100D7000202000F0B9FD1020ADF800008DF8030030
:100D800003208DF8020069460A48FFF713FE01218F
:100D9000202000F0A9FD8020ADF8000010208DF883
:100DA000030003208DF8020069460248FFF702FEA7
:100DB00008BD0000001401402DE9F34F83B08146C7
:100DC0000026CB46049C9BF80200000201909BF891
:100DD00003000199084301909BF8040005029BF869
:100DE00005000543012D02DBB5F5FA6F1FDD5648FE
:100DF000007804F8010B701C86B2812004F8010B06
:100E0000701C86B2032004F8010B701C86B23146B8
:100E10000498FFF78FFA074604F8017B380A04F8B4
:100E2000010BB01C86B2304605B0BDE8F08F0198CA
:100E3000284401281DDD4448007804F8010B701C8B
:100E400086B2812004F8010B701C86B2022004F8DF
:100E5000010B701C86B231460498FFF76BFA074607
:100E600004F8017B380A04F8010BB01C86B2304646
:100E7000DAE73548007804F8010B701C86B20120CF
:100E800004F8010B701C86B2082D02DA4FF0010A3B
:100E900015E0E91705EB5171C910A5EBC10141B18E
:100EA0002846E91705EB5171C910491C01F0FF0AEA
:100EB00005E02846E91705EB5171C1F3C70A04F8AC
:100EC00001AB701C86B2002020700290804626E0A4
:100ED0004FEAE87108EB5171C910A8EBC10131B9B3
:100EE000B8F1000F03D0641C00202070029001991B
:100EF0004144C8B200F052FC012808D101210298F7
:100F00008140C8B200902178009801432170029876
:100F1000401C80B2029008F1010000F0FF08A845D3
:100F2000D6DB06EB0A0086B2641C31460498FFF754
:100F300001FA074604F8017B380A04F8010BB01CDB
:100F400086B2304670E70000790000202DE9F34FAB
:100F500083B081460026CB46049C9BF80200000229
:100F600000909BF803000099084300909BF8040050
:100F700005029BF805000543012D02DBB5F5FA6F6C
:100F800020DD5548007804F8010B701C86B28220E1
:100F900004F8010B701C86B2032004F8010B701CCE
:100FA00086B231460498FFF7C5F9804604F8018BF4
:100FB0004FEA182004F8010BB01C86B2304605B089
:100FC000BDE8F08F009828445A281EDD424800787A
:100FD00004F8010B701C86B2822004F8010B701C0F
:100FE00086B2022004F8010B701C86B231460498C8
:100FF000FFF7A0F9804604F8018B4FEA182004F8A7
:10100000010BB01C86B23046D9E73348007804F8AB
:10101000010B701C86B2022004F8010B701C86B212
:10102000082D02DA4FF0010A15E0E91705EB5171BE
:10103000C910A5EBC10141B12846E91705EB517173
:10104000C910491C01F0FF0A05E02846E91705EB25
:101050005171C1F3C70A04F801AB701C86B20020BD
:1010600020700190002721E0F91707EB5171C9109A
:10107000A7EBC10121B91FB1641C002020700190B1
:101080000099394488B200F099FB012808D1012168
:1010900001988140C8B202902178029801432170E2
:1010A0000198401C80B20190781C87B2AF42DBDB14
:1010B00006EB0A0086B2641C31460498FFF73AF941
:1010C000804604F8018B4FEA182004F8010BB01C8D
:1010D00086B2304673E70000790000202DE9F34F17
:1010E00081B007460025BB46029C9BF80200000227
:1010F00000909BF803000099084300909BF80400BF
:101100004FEA00289BF8050040EA0808B8F1010FF3
:1011100002DBB8F5FA6F1EDD3C48007804F8010BDD
:10112000681C85B2832004F8010B681C85B203207B
:1011300004F8010B681C85B229460298FFF7FAF8FB
:10114000064604F8016B300A04F8010BA81C85B2AE
:101150002846BDE8FE8F00984044B0F5AF7F1DDD06
:101160002A48007804F8010B681C85B2832004F833
:10117000010B681C85B2022004F8010B681C85B2C3
:1011800029460298FFF7D6F8064604F8016B300AA4
:1011900004F8010BA81C85B22846DAE71B48007842
:1011A00004F8010B681C85B2032004F8010B681CCD
:1011B00085B24FEA4860000E04F8010B681C85B246
:1011C0004FF0000A11E00099514488B200F0FEFA95
:1011D00081464FEA192004F8010B04F8019BA81C72
:1011E00085B20AF101001FFA80FAC245EBDB2946FD
:1011F0000298FFF79FF8064604F8016B300A04F8DE
:10120000010BA81C85B22846A3E700007900002046
:101210002DE9F34F81B007460025BA46029C9AF8A3
:101220000200000200909AF8030000990843009021
:101230009AF804004FEA00289AF8050040EA0808E6
:10124000B8F1010F02DBB8F5FA6F1EDD3B480078FC
:1012500004F8010B681C85B2842004F8010B681C9B
:1012600085B2032004F8010B681C85B22946029858
:10127000FFF760F8064604F8016B300A04F8010B2A
:10128000A81C85B22846BDE8FE8F00984044FA2885
:101290001DDD2A48007804F8010B681C85B2842003
:1012A00004F8010B681C85B2022004F8010B681CCD
:1012B00085B229460298FFF73DF8064604F8016B0F
:1012C000300A04F8010BA81C85B22846DBE71B484E
:1012D000007804F8010B681C85B2042004F8010BA7
:1012E000681C85B24FEA4860000E04F8010B681CC8
:1012F00085B24FF0000911E00099494488B200F02E
:1013000079FA83464FEA1B2004F8010B04F801BB6D
:10131000A81C85B209F101001FFA80F9C145EBDB79
:1013200029460298FFF706F8064604F8016B300AD2
:1013300004F8010BA81C85B22846A4E77900002018
:101340002DE9F35F06460025B146019C99F802009D
:101350004FEA002B99F8030040EA0B0B99F80400C0
:101360004FEA002A99F8050040EA0A0ABAF57F4FC9
:1013700021D0BAF1000F1ED02F48007804F8010BDD
:10138000681C85B2852004F8010B681C85B2032017
:1013900004F8010B681C85B229460198FEF7CAFFC4
:1013A000074604F8017B380A04F8010BA81C85B233
:1013B0002846BDE8FC9FBBF1010F1DDB1E480078ED
:1013C00004F8010B681C85B2852004F8010B681C29
:1013D00085B2022004F8010B681C85B229460198E9
:1013E000FEF7A8FF074604F8017B380A04F8010B52
:1013F000A81C85B22846DCE7BAF57F4F05D10BF073
:10140000FF00012100F0D2F904E00BF0FF00002101
:1014100000F0CCF94FF0000807E019F8080004F8D4
:10142000080008F1010000F0FF08B8F1080FF4DB34
:1014300008252846BDE70000790000202DE9F35F6C
:1014400006460025B146019C99F802004FEA002BA0
:1014500099F8030040EA0B0B99F804004FEA002AC0
:1014600099F8050040EA0A0ABAF5803F1EDB2A48CF
:10147000007804F8010B681C85B2862004F8010B83
:10148000681C85B2032004F8010B681C85B229464C
:101490000198FEF74FFF074604F8017B380A04F86D
:1014A000010BA81C85B22846BDE8FC9FBBF5AF7FA9
:1014B0001DDB1948007804F8010B681C85B28620F2
:1014C00004F8010B681C85B2022004F8010B681CAB
:1014D00085B229460198FEF72DFF074604F8017BE7
:1014E000380A04F8010BA81C85B22846DCE75146EF
:1014F000584600F075F94FF0000807E019F80800A9
:1015000004F8080008F1010000F0FF08B8F1080F26
:10151000F4DB08252846C7E7790000202DE9F34FC2
:1015200083B0814600200290824601900025009001
:10153000C846049C98F802000002029098F8030044
:1015400002990843029098F804004FEA002A98F89C
:10155000050040EA0A0A98F806000190BAF1010F66
:1015600007DBBAF17B0F04DC4FEA4A0101988142A4
:101570001FD03C48007804F8010B681C85B290200D
:1015800004F8010B681C85B2032004F8010B681CE9
:1015900085B229460498FEF7CDFE064604F8016B95
:1015A000300A04F8010BA81C85B2284605B0BDE836
:1015B000F08F02985044B0F5AF7F1DDD29480078C8
:1015C00004F8010B681C85B2902004F8010B681C1C
:1015D00085B2022004F8010B681C85B229460498E4
:1015E000FEF7A8FE064604F8016B300A04F8010B6A
:1015F000A81C85B22846D9E74FF0000B002718E059
:1016000008F1070010F80B000002009008F1080034
:1016100010F80B000099084300900299394488B2F1
:10162000009900F0DDF80BF102001FFA80FB781C36
:1016300087B25745E4DB002706E018F80700E055BD
:10164000681C85B2781C87B2062FF6DB2946049801
:10165000FEF770FE0646A671300AE071A81C85B23E
:101660002846A3E77900002002A001F013F900BF8B
:10167000FEE70000204D656D4D616E616765204697
:1016800061756C7421200D0A000000002DE9F047FF
:1016900006460D463446042D01DABDE8F087207871
:1016A0003A490978884202D0207800B1F5E74FF036
:1016B0000008A81E81B22046FEF73CFE804608F0D6
:1016C000FF094FEA182A681E205C504503D1A81E66
:1016D000205C484500D0E0E700235A1E19462C48FC
:1016E000006804F0ADF96778042F26D006DC012FDE
:1016F0000BD0022F11D0032F3FD116E0052F24D09D
:10170000062F2AD0102F38D12FE022493046FFF77C
:1017100053FB214981F8000230E01E493046FFF7B3
:1017200015FC1D4981F8000228E01A493046FFF7F0
:10173000D5FC194981F8000220E016493046FFF730
:1017400067FD154981F8000218E012493046FFF79D
:10175000F7FD114981F8000210E00E493046FFF70D
:101760006DFE0D4981F8000208E00A493046FFF796
:10177000D5FE094981F8000200E08EE700BF064966
:1017800091F8000200F09AFD00BF86E77900002082
:1017900004000020A42A0020A429002001460129D9
:1017A00001DA014A505C704778000020012801DA14
:1017B000014A1154704700007800002001465A2960
:1017C00001DA014A505C7047888200200146B1F579
:1017D000AF7F02DA014A32F811007047D684002048
:1017E000B0F5AF7F02DA024A22F81010704700000D
:1017F000D68400200146FA2902DA024A32F81100A2
:1018000070470000E282002002A001F043F800BF10
:10181000FEE70000204E4D49204661756C74212082
:101820000D0A000070B5002100230F22C47804B314
:10183000154C246804F4E064C4F5E064210AC1F1A5
:101840000403CA40447804FA03F184781440214325
:1018500009010E4C0678A155047804F01F050124F7
:10186000AC4005786D11AD0005F1E025C5F80041EB
:1018700009E0047804F01F050124AC40044D06780B
:10188000761145F8264070BD0CED00E000E400E064
:1018900080E100E002490143024A11607047000004
:1018A0000000FA050CED00E029B1064A5269024336
:1018B000044B5A6104E0034A52698243014B5A6166
:1018C000704700000010024029B1064AD269024365
:1018D000044BDA6104E0034AD2698243014BDA61C6
:1018E000704700000010024029B1064A9269024385
:1018F000044B9A6104E0034A92698243014B9A6166
:1019000070470000001002402DE9F0410021002244
:10191000002500230026002400278C46DFF8608184
:10192000D8F8048008F00C0121B1042907D0082957
:1019300059D109E0DFF84C81C0F8008058E0DFF8A9
:101940004881C0F8008053E0DFF83481D8F8048083
:1019500008F47012DFF82881D8F8048008F4803584
:10196000920C0D2A01D0921C00E0062235B9DFF856
:101970001C8102FB08F8C0F8008033E0DFF800812A
:10198000D8F82C8008F48036DFF8F480D8F82C8062
:1019900008F00F0808F1010446B9DFF8EC80B8FB45
:1019A000F4F808FB02F8C0F800801BE0DFF8D080F4
:1019B000D8F82C80C8F3031808F10107DFF8C080BD
:1019C000D8F82C80C8F3032808F1020CDFF8B8809F
:1019D000B8FBF7F808FB0CF8B8FBF4F808FB02F8C2
:1019E000C0F8008004E0DFF89C80C0F8008000BFF1
:1019F00000BFDFF88C80D8F8048008F0F0010909F6
:101A0000DFF88C8018F80130D0F8008028FA03F84D
:101A1000C0F80480DFF86880D8F8048008F4E0613A
:101A2000090ADFF86C8018F80130D0F8048028FA31
:101A300003F8C0F80880DFF84880D8F8048008F47C
:101A40006051C90ADFF8488018F80130D0F80480E6
:101A500028FA03F8C0F80C80DFF82480D8F8048056
:101A600008F44041890BDFF82C8018F80130D0F8D9
:101A70000C80B8FBF3F8C0F81080BDE8F0810000DE
:101A80000010024000127A0040787D0100093D00FC
:101A90007A0000208A00002000B585B000F04CF8E4
:101AA00000F028F80020ADF800004FF48270ADF887
:101AB00002000020ADF804000220ADF8060001206D
:101AC000ADF808004002ADF80A001820ADF80C008F
:101AD0000020ADF80E000720ADF81000694604485C
:101AE00000F0A4F80121024800F094F805B000BD10
:101AF0000030014008B5E020ADF8000003208DF86B
:101B0000020018208DF8030069460948FEF752FFCD
:101B10004FF40070ADF8000003208DF80200102093
:101B20008DF8030069460348FEF744FF08BD000036
:101B300000080140000C014010B501210420FFF70E
:101B4000D3FE01210820FFF7CFFE01210846FFF751
:101B5000CBFE01210803FFF7C7FE10BD024600219E
:101B600007E0481C81B24FF6FE70814201DB002085
:101B700070470E48008900F002000028F1D00B48A1
:101B80008281002107E0481C81B24FF6FE7081423D
:101B900001DB0020ECE70548008900F00100002887
:101BA000F1D002488089C0B2E2E700000030014075
:101BB0002DE9F04104460E46174600F003FA00BF37
:101BC0004FF400711248FEF7C9FF00BF0220FFF773
:101BD000C5FFC4F30740FFF7C1FFC4F30720FFF7B9
:101BE000BDFFE0B2FFF7BAFF002504E0705DFFF72C
:101BF000B5FF681C85B2BD42F8DB00BF4FF4007131
:101C00000348FEF7ADFF00BF00F078F9BDE8F081B2
:101C1000000C014021B1028842F04002028004E041
:101C200002884FF6BF731A400280704710B5002239
:101C3000028802F441520B884C8823438C8823434A
:101C4000CC8823430C8923434C8923438C89234329
:101C5000CC8923431A430280838B4FF2FF742340C5
:101C600083830B8A038210BD10B500F001F810BD0C
:101C70000CB50020019000903F48006840F480308F
:101C80003D49086000BF3C48006800F40030009007
:101C90000198401C0190009818B90198B0F5A06F08
:101CA000F1D13548006800F4003010B101200090F7
:101CB00001E000200090009801285CD12F480068C6
:101CC00040F010002D4908600846006820F003002D
:101CD00008600846006840F0020008602648406836
:101CE000254948600846406848600846406840F416
:101CF000806048600846C06A214908401E49C862A1
:101D00000846C06A1F4908431B49C8620846006864
:101D100040F08060086000BF1748006800F0006075
:101D20000028F9D01448406820F47C10124948601B
:101D30000846406840F4E81048600846006840F0F3
:101D40008070086000BF0C48006800F00070002838
:101D5000F9D00948406820F0030007494860084668
:101D6000406840F00200486000BF0348406800F04F
:101D70000C000828F9D10CBD0010024000200240E0
:101D800000F0FEFF4406010010B5002400F070F8DA
:101D900004464EF61470844201D1002010BD01208B
:101DA000FCE7000010B50446240300F00BF900F036
:101DB000A5F800BF4FF400710D48FEF7CFFE00BF3D
:101DC0002020FFF7CBFEC4F30740FFF7C7FEC4F3A4
:101DD0000720FFF7C3FEE0B2FFF7C0FE00BF4FF4DD
:101DE00000710348FEF7BCFE00BF00F087F810BD8D
:101DF000000C014010B5FFF74FFE00BF4FF400711B
:101E00000248FEF7ADFE00BF10BD0000000C01400F
:101E10002DE9F04104460E46174600BF4FF400710D
:101E20001248FEF79BFE00BF0320FFF797FEC4F3A6
:101E30000740FFF793FEC4F30720FFF78FFEE0B2E1
:101E4000FFF78CFE002505E0FF20FFF787FE7055A9
:101E5000681C85B2BD42F7DB00BF4FF40071034838
:101E6000FEF77EFE00BFBDE8F0810000000C0140DF
:101E700010B5002400BF4FF400711148FEF76EFE4C
:101E800000BF9020FFF76AFE0020FFF767FE0020EA
:101E9000FFF764FE0020FFF761FEFF20FFF75EFE04
:101EA00044EA0024FF20FFF759FE044300BF4FF42B
:101EB00000710348FEF754FE00BF204610BD00002D
:101EC000000C014010B5002400BF4FF400710A4817
:101ED000FEF744FE00BF0520FFF740FEFF20FFF79E
:101EE0003DFE044600BF4FF400710348FEF738FE84
:101EF00000BF204610BD0000000C014010B500BF1F
:101F0000FFF7E0FF00F001000028F9D110BD00004C
:101F10002DE9F0470746894616464FEA1738C7F3BA
:101F20000B0ACAF58054A64200DC344644E04FEA6E
:101F300008304FF480522249FFF76AFF002508E07D
:101F40000AEB05001E49085CFF2800D003E0681C6E
:101F500085B2A542F4DB00BFA54216DA4046FFF782
:101F600021FF002507E019F8050005EB0A01144AD6
:101F70005054681C85B2A542F5DB4FEA08304FF497
:101F800080520F4900F034F804E0224649463846B2
:101F900000F02EF8A64200D10FE008F101084FF042
:101FA000000AA1442744301B86B2B6F5805F02DDEB
:101FB0004FF4805400E03446B9E700BFBDE8F08735
:101FC000AA2D002010B500BF4FF400710748FEF79E
:101FD000C5FD00BF0620FFF7C1FD00BF4FF4007133
:101FE0000248FEF7BDFD00BF10BD0000000C01401F
:101FF0002DE9F04106460F461446F0B2C0F5807553
:10200000AC4200DC254612E02A4639463046FFF74E
:10201000CFFDAC4200D10BE02F442E44601B84B2B4
:10202000B4F5807F02DD4FF4807500E02546EBE7D4
:1020300000BFBDE8F081000010B51648006840F010
:1020400001001449086008464068134908401149D6
:10205000486008460068114908400E490860084673
:10206000006820F4802008600846406820F4FE00E4
:1020700048600846006820F0A05008604FF47F00D8
:1020800088600020C862FFF7EFFD4FF00060044950
:10209000086010BD001002400000FFF0FFFFF6FED8
:1020A00008ED00E000BF00BF1048006880F00400A9
:1020B0000E49086000BF00BF0846006880F00800B5
:1020C000086000BF00BF0846006880F0100008608C
:1020D00000BF00BF0846006880F08000086000BFB5
:1020E0004FF47A7003F018FBDDE700000C14014098
:1020F00000B585B00020019002900390049001206B
:102100000023802205A10090084803F06BFE0128FF
:1021100001D000BFFEE705B000BD00005461736B45
:102120005F4C65645F546F67676C6500A5200008AD
:1021300038B505460024032000231A4619460090AE
:10214000012003F05EFC194908600846006808B9E0
:1021500000BFFEE70021012003F036FC14490860AF
:102160000846006808B900BFFEE700BF00235A1EFA
:1021700019460E48006803F063FC0128F6D10D48AB
:10218000FEF7E4F9C0F5807084B204B938BD214689
:102190000948FFF77BFA4FF480710648FEF701FA11
:1021A00001210448FEF720F9E0E7000000000020CC
:1021B0000400002058000240A429002000B585B08A
:1021C00000200190029003900490052000234FF41A
:1021D000807205A10090094803F004FE012801D097
:1021E00000BFFEE705B000BD5461736B5F4D6F64C7
:1021F0006275735F50726F636573730031210008FD
:1022000010B5FFF775FFFFF7D9FF10BD00B58BB014
:102210002648FEF7F5F82648009026480190102041
:10222000029000010390002004908020059000207F
:102230000690079008904FF44050099000200A90B3
:1022400069461A48FEF78FF900F002FB01220A21C5
:102250001648FEF77FF900211448FEF7C5F8134829
:102260001430FEF7CDF8124800901348019000207A
:1022700002904FF48070039000200490802005901D
:1022800000200690079008904FF4405009900020DD
:102290000A90694605481430FEF765F901210348A4
:1022A0001430FEF7A1F80BB000BD0000440002405E
:1022B00004380140A42A0020A429002010B50446B7
:1022C00000210548FEF790F8034844388464012152
:1022D0000148FEF789F810BD4400024010B5002403
:1022E00040F22441114800F0E6F9E8B10F480488B3
:1022F000001D048800210E48FEF776F800200D49E5
:1023000008600D48006803F007FD0A4800680128CE
:102310000AD10848006838B14FF08050074908607A
:10232000BFF34F8FBFF36F8F10BD00000038014027
:10233000580002400C0000200000002004ED00E0E6
:102340001FB5044600F076F800F056F8B4F5E13F0A
:1023500003D8B4F5966F00D300940020ADF80C00BC
:102360000C20ADF80A000020ADF80800ADF806001A
:10237000ADF804006946164800F0ECF900F02AF8C0
:10238000FFF744FF002240F22661114800F0BDF93A
:10239000002240F225510E4800F0B7F9012240F228
:1023A00024410B4800F0B1F901224021084800F017
:1023B0006CF901228021064800F067F901210448E8
:1023C00000F057F94021024800F04AF91FBD000013
:1023D0000038014008B525208DF800000F208DF849
:1023E000010000208DF8020001208DF803006846EE
:1023F000FFF718FA08BD000008B518208DF8030093
:102400004FF40070ADF8000003208DF8020069461B
:102410000748FEF7CFFA48208DF803004FF480609C
:10242000ADF8000069460248FEF7C4FA08BD000096
:102430000008014010B501210846FFF735FA0121D7
:102440000420FFF751FA01210846FFF74DFA012158
:102450008803FFF749FA10BD00B58BB02648FDF799
:10246000CFFF2648009026480190102002900001DE
:102470000390002004908020059000200690079093
:1024800008904FF44050099000200A9069461A487D
:10249000FEF769F800F0ECF901220A211648FEF770
:1024A00059F800211448FDF79FFF13481438FDF731
:1024B000A7FF1248009013480190002002904FF4AB
:1024C00080700390002004908020059000200690EA
:1024D000079008904FF44050099000200A906946F8
:1024E00005481438FEF73FF8012103481438FDF77A
:1024F0007BFF0BB000BD00008000024004440040A0
:10250000A72C0020A72B002010B5002440F2244166
:102510000A4800F0D0F880B108480488001D0488FB
:1025200000210748FDF760FF4FF480710448FEF773
:1025300038F801210248FDF757FF10BD0044004064
:102540006C0002401FB5044600F074F800F056F825
:10255000B4F5E13F03D8B4F5966F00D300940020A2
:10256000ADF80C000C20ADF80A000020ADF8080012
:10257000ADF80600ADF804006946164800F0EAF828
:1025800000F02AF8FFF768FF002240F226611148A8
:1025900000F0BBF8002240F225510E4800F0B5F8DB
:1025A000012240F224410B4800F0AFF80122402103
:1025B000084800F06AF801228021064800F065F81A
:1025C0000121044800F055F84021024800F048F885
:1025D0001FBD00000044004008B526208DF8000013
:1025E0000F208DF8010000208DF8020001208DF8E9
:1025F00003006846FFF716F908BD000008B518206B
:102600008DF803002020ADF8000002208DF80200B4
:1026100069460748FEF7CEF948208DF803004020B0
:10262000ADF8000069460248FEF7C4F908BD000095
:102630000014014010B501210820FEF747FA0121DE
:102640000846FFF731F901212020FFF74DF901215C
:102650000846FFF749F901214804FFF735F910BD95
:1026600001F40072B2F5007F00D100BFCA430280BE
:10267000704721B1828942F40052828104E082894C
:102680004DF6FF731A40828170471AB1838A0B435B
:10269000838202E0838A8B43838270470246002054
:1026A000B1F5007F00D100BF13880B400BB10120B2
:1026B00000E00020704770B502460024002300258A
:1026C000002040F66A16B14200D100BFC1F34215A6
:1026D00001F01F03012606FA03F3012D02D19689AA
:1026E000334006E0022D02D1168A334001E0968A7B
:1026F00033400C12012606FA04F41688344013B154
:102700000CB1012000E0002070BDF0B503460024AC
:1027100000260025002040F66A17B94200D100BF0C
:102720001846C1F3421401F01F06012707FA06F507
:10273000012C01D10C3004E0022C01D1103000E05A
:1027400014301AB107682F43076002E00768AF43EF
:102750000760F0BD2DE9F04786B005460E4600241F
:10276000A24600BFA1460027B08900B100BF2F4696
:102770002C8A4CF6FF700440F08804432C82AC890C
:102780004EF6F3100440B08831890843718908433C
:102790000443AC81AC8A4FF6FF400440B089044347
:1027A000AC8201A8FFF7B0F81F48874202D1DDF8DC
:1027B00010A001E0DDF80CA0A88900F4004040B1B1
:1027C0000AEBCA0000EB0A1031684900B0FBF1F8CF
:1027D00007E00AEBCA0000EB0A1031688900B0FB81
:1027E000F1F86420B8FBF0F004012009642101FB3A
:1027F0001089A88900F4004040B1322000EBC900E4
:10280000B0FBF1F000F00700044308E0322000EBD9
:1028100009106421B0FBF1F000F00F0004432C819B
:1028200006B0BDE8F087000000380140C1F308029F
:102830008280704702A000F02DF800BFFEE7000084
:102840005573616765204661756C7421200D0A001F
:1028500008B50E208DF800008DF8010000208DF8DD
:10286000020001208DF803006846FEF7DBFF08BD7B
:1028700008B511208DF800000E208DF80100002011
:102880008DF8020001208DF803006846FEF7CAFFAC
:1028900008BD00000FB4054B10B503A9044A029807
:1028A00000F018F810BC5DF814FB00002D4900087A
:1028B0009000002002E008C8121F08C1002AFAD1C7
:1028C00070477047002001E001C1121F002AFBD1B0
:1028D000704700002DE9FF4F8DB00F4605460026DA
:1028E00006E025280BD0DDE90F1290476D1C761C01
:1028F00028780028F5D111B03046BDE8F08F0024CB
:10290000A246A1460122EC4900E0044315F8013F2C
:10291000203B02FA03F00842F7D128782A2810D089
:102920006FF02F022878A0F13001092914D80AEBA2
:102930008A0102EB410144F0020400EB010A6D1C24
:10294000F0E701CF5FEA000A03D544F40054CAF16E
:10295000000A44F002046D1C28782E2817D115F8BF
:10296000010F44F004042A280ED06FF02F022878BB
:10297000A0F1300109290AD809EB890102EB4101D4
:1029800000EB01096D1CF2E757F8049B6D1C2878D9
:102990006C280FD006DC4C2817D068280DD06A2888
:1029A00014D104E0742810D07A280FD10DE044F43B
:1029B00000140AE044F4801401E044F440146978FF
:1029C000814202D104F580146D1C6D1C2A786E2A98
:1029D0001FD00CDC632A31D004DC002A8BD0582AAB
:1029E00011D1A3E0642A68D0692A0CD165E0732A6A
:1029F0002ED004DC6F2A73D0702A04D19BE0752A94
:102A00006FD0782A6ED01046DDE90F129047761C01
:102A100050E1C4F30250022806D0032809D004284C
:102A200001CF09D0066045E101CFF117C0E900618F
:102A300040E101CF06803DE106703BE117F8040B51
:102A40008DF8000000208DF80100EB46012003E026
:102A500057F804BB4FF0FF3061074FF0000102D47C
:102A60000DE008F10101884649450FDA8045F8DBA1
:102A70001BF808100029F4D108E008F1010188468C
:102A80008142FADB1BF808100029F6D1DDE90F239B
:102A9000AAEB08008146214600F036F9304400EBED
:102AA000080604E0DDE90F121BF8010B9047B8F1AE
:102AB0000108F7D221464846F7E00A21C4F3025341
:102AC0004FF0000B0891022B04D001CFC117032B4C
:102AD00009D00AE0FF1D27F00707F7E8020108E028
:102AE00032E01FE020E000B2C117042B01D140B258
:102AF000C117031E71F1000307DA4FF0000CD0EB91
:102B00000C006CEB01012D2302E0230504D52B23DF
:102B10008DF82430012303E0E30701D02023F7E7F9
:102B2000984658E00A2110E010210EE010204FF0E6
:102B3000000B08900CE010214FF0000B44F004044F
:102B40004FF00809089103E008214FF0000B0891AD
:102B5000C4F30253022B04D001CF0021032B06D073
:102B600006E0FF1D27F00707F7E8020103E080B247
:102B7000042B00D1C0B24FF0000823072BD5702AD8
:102B800007D0DDF820C08CF0100C5CEA0B0C05D0EF
:102B90000EE040238DF82430012308E050EA0103C1
:102BA00006D030238DF824308DF825200223984656
:102BB000DDF820C08CF0080C5CEA0B0C0BD150EA5D
:102BC000010301D1630706D530238DF824304FF07F
:102BD0000108A9F10109582A04D038A20B9208AAC9
:102BE0000A920BE03AA2F9E75B46089AFDF72AFB46
:102BF0000B9B9B5C0A9A521E0A92137050EA0102C8
:102C0000F2D10A98ADEB000000F1200B600702D56D
:102C100024F4803401E04FF00109D94502DDA9EB2D
:102C20000B0000E0002000EB0B0141440890AAEBF0
:102C3000010AE00306D4DDE90F232146504600F0E7
:102C400063F806444FF0000908E009A911F80900EB
:102C5000DDE90F12904709F10109761CC145F4DB4B
:102C6000E0030CD5DDE90F232146504600F04CF877
:102C7000064404E0DDE90F1230209047761C0899E5
:102C8000481E08900029F5DC08E00A980A990078A7
:102C9000491C0A91DDE90F129047761CBBF1000137
:102CA000ABF1010BF1DC21465046DDE90F2300F0CA
:102CB00019F806446D1C1BE6092801003031323337
:102CC0003435363738396162636465660000000068
:102CD0003031323334353637383941424344454652
:102CE000000000002DE9F041044600251E4617466D
:102CF000880404D405E039462020B0476D1C641ECA
:102D0000F9D52846BDE8F0812DE9F04104460025BB
:102D10001E469046C80301D5302700E020278804CE
:102D200004D505E041463846B0476D1C641EF9D510
:102D30002846BDE8F081000070B504460D4600202D
:102D4000E070401E20632946204601F057FF08B17D
:102D5000042070BD04F2322001F018FF4AF655211C
:102D6000884201D00320F4E794F83400E92807D022
:102D700094F83400EB2817D13620005D902813D149
:102D800004F16A0001F0F6FE20F07F400749884216
:102D900001D10020DDE704F1860001F0EBFE0449DB
:102DA000884201D10020D4E70220D2E746415400F6
:102DB00046415433024600E0521C107810B110789E
:102DC0008842F9D110787047F0B503460D461E6869
:102DD000986A021D680A7789B0FBF7F400BF02CA3F
:102DE00009B90020F0BD8C4200D202E0641A121D25
:102DF000F5E700BF10682044F4E70246891E906999
:102E0000801E884201D8002070475389D06A01FB98
:102E10000300F9E72DE9F04780460C4604F11A005B
:102E200001F0B4FE10B10020BDE8F087207800F07A
:102E30003F00401E00EB800101EBC0054FF001098F
:102E4000002621E01849895D081901F09FFE074618
:102E5000B9F1000F11D0FF2D0BD2384601F046FB1F
:102E6000824629466D1C38F8110001F03FFB82456F
:102E700001D00020D8E7B94605E04FF6FF70874241
:102E800001D00020D0E7761C0D2EDBD3207800F097
:102E9000400038B1B9F1000F04D038F8150008B17E
:102EA0000020C1E70120BFE7046200082DE9F047D8
:102EB00082468946DAF80040B9F1000F06D1276949
:102EC00017B1A069B84215D8012713E0494650460A
:102ED00001F0A4FD0646022E02D20120BDE8F087D3
:102EE000701C08B93046F9E7A069B04201D93046F4
:102EF000F4E74F463D4600BF6D1CA069A84204D8C8
:102F00000225BD4201D90020E8E72946504601F0DC
:102F100085FD064606B909E0012E01D0701C08B9EE
:102F20003046DBE7BD42E7D10020D7E700BF00BF56
:102F30004FF0FF322946204602F0FCF88046B8F1F7
:102F4000000F08D1B9F1000F05D02A4649462046A6
:102F500002F0F0F88046B8F1000F0DD12561D4E9F8
:102F60000510801E814202D26069401E6061207996
:102F700040F00100207107E0B8F1010F02D14FF0DD
:102F8000FF3000E0012005462846A7E72DE9F34F72
:102F900083B08146049800680190D9F80000D0F809
:102FA0000CA000200646054600BF28466D1C01996E
:102FB0000C5C202C00DA41E02F2C01D05C2C0AD1D3
:102FC00000E06D1C0198405D2F28FAD00198405D0B
:102FD0005C28F6D032E0FF2E03D3062005B0BDE812
:102FE000F08FE4B2812C13DBE0B2FE2810DC28461F
:102FF0006D1C01990F5C07EB042084B2402F01DBAC
:103000007E2F05DD802F01DBFE2F01DD0620E5E7A9
:103010000121204601F02CFA04460CB90620DDE718
:10302000802C06DA21466FA0FFF7C4FE08B1062007
:10303000D4E73046761C2AF81040B6E700BF019866
:10304000411904980160202C01DA042000E00020DE
:10305000804608E0701E3AF81040202C02D02E2C3A
:1030600000D002E0761E002EF4D100BF00202AF826
:1030700016000EB90620B1E70B22202109F120002D
:1030800001F0B3FD002500E06D1C3AF81500202882
:10309000FAD03AF815002E28F6D00DB148F0030802
:1030A00000E0761E26B1701E3AF810002E28F8D1E6
:1030B0000020074602904FF0080B00BF28466D1C09
:1030C0003AF8104004B963E0202C03D02E2C04D130
:1030D000B54202D048F00308F0E70298584501D203
:1030E000B54214D1BBF10B0F02D148F003084FE0F9
:1030F000B54201D048F00308B54200D948E0354652
:10310000082002904FF00B0BB806070ED6E7802C74
:1031100009DB204601F0EAF90021009001F0A8F94E
:10312000044648F00208FF2C11DDABF101000299C2
:10313000884204D848F00308CDF808B0BEE7221250
:103140000298411C029109F120010A5419E024B1AE
:10315000214627A0FFF72EFE18B15F2448F0030890
:103160000FE0412C04DB5A2C02DC47F0020708E098
:10317000612C06DB7A2C04DC47F00107A4F1200067
:1031800084B20298411C029109F120010C5495E788
:1031900000BF99F82000E52802D1052089F8200019
:1031A000BBF1080F01D1B806070E07F00C000C2880
:1031B00003D007F00300032801D148F0020808F00B
:1031C000020058B907F00300012801D148F01008A7
:1031D00007F00C00042801D148F0080889F82B807A
:1031E0000020FBE6222A3A3C3E3F7C7F00000000A4
:1031F0002B2C3B3D5B5D00002DE9F04104460E4663
:10320000D4F800800021204600F0CBF90546EDB946
:10321000002700BF4046A16901F0F0FC054605B15A
:1032200013E0E0690078E52802D0E069007820B971
:10323000781C0746B04201D107E000270121204653
:1032400000F088F80546002DE4D000BF042D00D121
:1032500007252846BDE8F0812DE9F0470446D4F85B
:1032600000A00021204600F09CF9064616B1304629
:10327000BDE8F0874FF0FF08C1464FF0FF30E06235
:1032800000BF5046A16901F0B9FC064606B15EE0F8
:10329000E06905780DB9042659E0E069C07A00F0CC
:1032A0003F07A771E52D04D007F0080038B10F2FB4
:1032B00005D04FF0FF084FF0FF30E06240E00F2FE5
:1032C00022D12B20005D00F0400098BB05F04000AB
:1032D00038B1E06990F80D9005F0BF05A846206967
:1032E000E06245450CD1E069407B484508D1E16981
:1032F000DAF80C00FFF78EFD10B1A8F1010000E034
:10330000FF2000F0FF081BE0B8F1000F05D1E069D5
:1033100002F0E5F8484500D119E02B20005D00F0EF
:10332000010040B90B2204F12001E06901F03EFCEC
:1033300008B90CE004E04FF0FF084FF0FF30E06206
:103340000021204600F006F80646002E99D000BF66
:1033500030468DE72DE9F047044689462568206907
:1033600000F12007A06910B1B7F5001F02D30420B7
:10337000BDE8F087C7F30800002868D1A069401CA9
:10338000A061606938B92889B0EB571F5FD8002069
:10339000A0610420ECE76889401E00EA572000285D
:1033A00055D12046616901F039FB0646012E01D84E
:1033B0000220DDE7701C08B90120D9E7A869B042F6
:1033C0003FD8B9F1000F03D10020A0610420CFE75E
:1033D00020466169FFF76AFD06460EB90720C7E778
:1033E000012E01D10220C3E7701C08B90120BFE7FC
:1033F000284602F0CDF808B10120B9E74FF4007279
:10340000002105F1340001F0F0FB4FF000083146D7
:103410002846FFF7F2FC28630CE00120E8702846FC
:1034200002F0B6F808B10120A2E708F10108286B04
:10343000401C286368894045EFD8286BA0EB080042
:103440002863666131462846FFF7D7FCA0612761F3
:10345000C7F3080105F134000844E061002087E764
:103460002DE9FE4F044626682B20005D00F0A000E9
:1034700010B10620BDE8FE8F4FF0000901E009F110
:103480000109F06830F819000028F8D10C2204F185
:103490002001684601F09CFB9DF80B0000F0010044
:1034A00028B340212B2001554FF001080EE0434680
:1034B000694604F12000F26801F04AFA2046FFF75D
:1034C000CBFE054605B104E008F10108B8F1640F30
:1034D000EDD300BFB8F1640F01D10720CAE7042D76
:1034E00001D02846C6E79DF80B102B2001559DF80A
:1034F0000B0000F0020030B109F10C000D21B0FB0F
:10350000F1F0401C00E00120074639462046FFF755
:1035100073FE05464DBB781E071E26D02069A0EB22
:103520004711204600F03DF80546F5B904F12000AA
:1035300001F0D5FF824600BF3046A16901F05EFB75
:10354000054605B110E0FAB2E1695346F06801F0B2
:103550008DFE0120F07000212046FFF7FBFE05469E
:1035600015B9781E071EE7D100BFC5B93046A1695D
:1035700001F044FB054695B920220021E06901F0E5
:1035800034FB0B2204F12001E06901F021FB2B2028
:10359000005D00F01800E16908730120F070284612
:1035A00068E72DE9F04104460D462668B5F5001F91
:1035B00002D205F01F0010B10220BDE8F0812561A4
:1035C000A7681FB93078032800DBB76A47B930898C
:1035D000B0EB551F01D80220EFE7B06AA0611CE0F4
:1035E00070894FEA402811E03946204601F016FA6A
:1035F0000746781C08B90120DFE7022F02D3B06923
:10360000B84201D80220D8E7A5EB08054545EBD222
:1036100039463046FFF7F1FBA0616761A06908B940
:103620000220CAE7A06900EB5520A061C5F308019C
:1036300006F134000844E0610020BEE770B504469E
:1036400000255CB9FEF7D6FB4FF4006007490880FF
:10365000FEF79AFB00B900E0012501E0012500BF5B
:1036600000BF0DB1012070BD0020FCE776000020F6
:1036700010B50346D3B931B101290FD0022904D0C6
:10368000032910D106E000200FE04FF400741480ED
:1036900000200AE008241480002006E0044C24885E
:1036A0001460002001E0042000BF00BF10BD000036
:1036B000760000202DE9F0410746884615461C4655
:1036C00014B90420BDE8F08177B909E068024FF42D
:1036D00000724146FEF79CFB6D1C08F50078641EE5
:1036E000002CF3D1002601E0012600BF00BF3046C8
:1036F000E8E70146002070472DE9F041074688467B
:1037000015461C4614B90420BDE8F08177B909E0DC
:1037100068024FF400724146FEF7FAFB6D1C08F593
:103720000078641E002CF3D1002601E0012600BFC2
:1037300000BF3046E8E738B50546284600F050FDA2
:1037400004463CB96946284602F0ECF804460CB938
:1037500000202860204638BD2DE9FF4F95B0174660
:10376000012014904002139015A801F0CBF90290AB
:103770000298002803DA0B2019B0BDE8F08FFE494B
:10378000029851F8200028B10021FB4A029852F813
:10379000200001700298C0B2119000201090119882
:1037A000FFF74CFF0190019800F0010008B10320E1
:1037B000E2E7019800F0040008B10A20DCE70DAA56
:1037C00003211198FFF754FF50B90D9840B10D989F
:1037D000B0F5004F04D80D98401E0D99084008B16F
:1037E00001200D904FF4007A0FB1574505D3B7F182
:1037F000807F02D8781E384008B11320BCE7B7FBA1
:10380000FAF7189C2298B0FBFAF00E900E9800FB85
:103810000AF00F900F9808B90E20ADE700BF07AA75
:1038200001211198FFF724FF08B10120A4E71698A1
:1038300000F0080008B1002000E03F200A9007993E
:103840000A98814201D20E2096E707990A98081A31
:1038500007900798802801D20E208DE700BF00BF97
:10386000802F01D9132087E7169800F0020050B18D
:10387000169800F00700022803D0169800F0010007
:1038800008B9032607E0169800F0010008B91320D4
:1038900072E7022600BF00BF00BF3D46032E2DD1B8
:1038A000A5B907984FEA504900200390012503E08D
:1038B0000398401C03906D00B049039831F8100044
:1038C00020B1039831F810004845F1D90798B0FBB2
:1038D000F5F8082000EB88005044401EB0FBFAF0D9
:1038E000059020200690002004904FF6F57080454A
:1038F00002D9A348804535D90E203DE7A5B90798E0
:103900004FEA103900200390012503E00398401C82
:1039100003906D009B49039831F8100020B1039883
:1039200031F810004845F1D90798B0FBF5F840F69A
:10393000F570804503D9042000EB480906E0012614
:1039400008EB4800401C032101EB500909EB0A0079
:10395000401EB0FBFAF00590012006908003B0FBFA
:10396000FAF0049006990A98084409900999059874
:1039700001440498084408900D9908980844401E92
:10398000491E20EA01010898A1EB0009032E06D187
:1039900006984844069009984844099002E0059822
:1039A00048440590089800EB05110A98081A0799F1
:1039B000884201D90E20DFE6DDE90601091A0598E3
:1039C000091A0498081AB0FBF5F8032E0AD14FF62D
:1039D000F570804506D81FB96808071E00D031E091
:1039E0000E20C9E6022E24D14FF6F570804514D979
:1039F0002FB94020B0EB450F01D36F0022E016989D
:103A000000F0020008B103261CE027B96800074651
:103A1000802800D816E00E20AEE640F6F57080450E
:103A200007D827B968000746802800D80AE00E208A
:103A3000A2E6012E05D140F6F570804501D90E2091
:103A40009AE600E029E700BF52460021204601F037
:103A5000CCF80B224CA1204601F0BAF8514604F1F3
:103A60000B0001F036FD6573069881B204F10E007B
:103A700001F02FFD01202074032E01D1002001E070
:103A80004FF40070014604F1110001F022FD079887
:103A9000B0F5803F06D2079881B204F1130001F01F
:103AA00018FD04E004F12000079901F006FDF8205C
:103AB00060753F2104F1180001F00BFDFF2104F1B6
:103AC0001A0001F006FD04F11C000A9901F0F5FC52
:103AD000032E28D101F012F80146009004F14300B2
:103AE00001F0EBFC04F12400059901F0E6FC022151
:103AF00004F12C0001F0E1FC012104F1300001F09F
:103B0000E8FC062104F1320001F0E3FC802084F897
:103B10004000292084F8420013221EA104F147002E
:103B200001F056F819E000F0E9FF0146009004F1B9
:103B3000270001F0C2FC059881B204F1160001F0E3
:103B4000C8FC802084F82400292084F82600132251
:103B500015A104F12B0001F03BF84AF6552104F5BC
:103B6000FF7001F0B6FC012321460A9A1198FFF775
:103B7000C3FD18B30120FFE56C000020306200088F
:103B8000F5FFFF0F22620008EBFE904D53444F53A8
:103B9000352E30004E4F204E414D452020202046EE
:103BA00041543332202020004E4F204E414D4520BD
:103BB000202020464154202020202000032E33D1F5
:103BC00001230A9A921D21461198FFF795FD52464E
:103BD0000021204601F009F87D49204601F06DFCE6
:103BE0007C4904F5F27001F068FCA8F1010104F5CC
:103BF000F47001F062FC022104F5F67001F05DFC46
:103C00004AF6552104F5FF7001F063FC01230A9A7E
:103C1000D21D21461198FFF76FFD01230A9A521C0D
:103C200021461198FFF768FD002120460F9A00F009
:103C3000DCFF09980C900020039041E0032E0FD187
:103C40006FF00701204601F038FC311F201D01F004
:103C500034FC6FF0704104F1080001F02EFC09E023
:103C6000012E01D15C4801E06FF0070001462046BB
:103C700001F023FC05980B9000BF0E990B98884229
:103C800001D90E9800E00B9881464B4621460C9ACC
:103C90001198FFF731FD08B101206DE55246002172
:103CA000204600F0A2FF0C9848440C900B98A0EB23
:103CB00009000B900B980028DFD10398401C03905B
:103CC00003980028BAD0032E01D1284600E00498BA
:103CD0000B9000BF0E990B98884201D90E9800E016
:103CE0000B9881464B4621460C9A1198FFF704FD2C
:103CF00008B1012040E50C9848440C900B98A0EBCB
:103D000009000B900B980028E4D100BF032E02D1CC
:103D10000C2012900CE00798B0F5803F02D30620EB
:103D2000129005E0022E01D1042000E00120129043
:103D300000BF169800F00800F0BB52460021204654
:103D400000F053FF4AF6552104F5FF7001F0C1FB66
:103D500004F5DF7B00208BF8000001208BF80100C8
:103D60008BF8020000208BF8030012988BF80400F7
:103D700007990A98084443F6C161B0FBF1F9FE20A7
:103D80008BF805003F2040EA99008BF806008BF87D
:103D900007900BF108000A9901F08FFB0BF10C0062
:103DA000079901F08AFB0123002221461198FFF7B1
:103DB000A3FC08B10120DFE4FFE7002211461198BF
:103DC000FFF756FC08B10120D6E40020D4E400003F
:103DD0005252614172724161F8FFFF00F7B582B043
:103DE00016460398019001A800F08CFE0546002DB0
:103DF00002DA0B2005B0F0BD0E4850F825400CB19A
:103E000000202070029810B1002002990870094922
:103E1000029841F82500029808B1012E01D0002037
:103E2000E8E7002202A903A800F0B2FB07463846E3
:103E3000E0E700006C0000202DE9F74FADF50E7DA6
:103E40000446164624B909200DF5117DBDE8F08F12
:103E500006F03F06324681A98FA800F099FB05467F
:103E6000002D73D1819882908199C1F80CD082A8DD
:103E70008F9900F009FD05462DB99DF8330200F039
:103E8000800000B1062506F01C00002856D045B180
:103E9000042D03D182A8FFF7E3FA054646F0080691
:103EA0000AE09DF80E0200F0110008B1072503E0BA
:103EB00006F0040000B10825002D51D106F00800DD
:103EC00000284DD000F01AFE8090899901F10E0073
:103ED000809901F0F2FA899901F11600809901F0B8
:103EE000ECFA20208999C8728999819800F02FFEF8
:103EF000814600228999819801F0CDFA899901F1D2
:103F00001C00002101F0D9FA01208199C870B9F193
:103F1000000F25D08198006B80900022494682A82E
:103F200001F06CFA0546DDB98099819800F066FED3
:103F30000546A9F101008199086111E085B99DF854
:103F40000E0200F0100010B1042509E05FE006F059
:103F5000020028B19DF80E0200F0010000B1072513
:103F60004DB906F0080008B146F040068198006B94
:103F7000206289986062002D57D18999819800F05C
:103F8000E6FDA060899901F11C0000F0F3FDE060FE
:103F90000020A062819820608198C088A08026744B
:103FA00000206074E06160614FF40072002104F150
:103FB0002C0000F01AFE06F0200040B3E06830B399
:103FC000E0686061819840894FEA402AA768D4F888
:103FD0000C800CE03946204600F020FD0746012FFA
:103FE00000D80225781C00B90125A8EB0A080DB9F4
:103FF000D045EFD8A76155B9C8F3080038B13946A4
:104000008198FEF7FAFEB0F1000B01D102250CE019
:104010000BEB5820E061E26981994878012304F1B3
:104020002C01FFF747FB00B101250DB100202060F6
:10403000284609E72DE9FF4F85B0044615469A4604
:10404000DDF818B00020CAF8000003A9204601F0EE
:1040500069FC0490049810B9607C049018B104982D
:1040600009B0BDE8F08F207C00F0010008B90720FE
:10407000F6E76169E068401A01900198854200D92D
:10408000019DA8E0A08AC0F30800002874D103981D
:104090004089401E616900EA5129B9F1000F1FD122
:1040A000606910B9A06802900CE0A06A28B12046AF
:1040B0006169FEF789FE029004E02046A16900F0E4
:1040C000ADFC02900298022802D202206074C7E779
:1040D0000298401C10B901206074C1E70298A061E9
:1040E000A1690398FEF789FE064616B9022060749E
:1040F000B6E74E444FEA5528B8F1000F29D009EB36
:10410000080003994989884203D903984089A0EBA4
:10411000090803994878434632465946FFF7CAFAD8
:1041200010B1012060749BE7207C00F0800068B132
:10413000E069801B404509D2E169891B0BEB4120F6
:104140004FF4007204F12C0100F042FD4FEA4827C1
:1041500037E0E069B04220D0207C00F0800080B1E0
:10416000E26903994878012304F12C01FFF7C4FAAE
:1041700018B10120607473E710E0207C00F07F002C
:104180002074039948780123324604F12C01FFF78B
:1041900091FA10B10120607462E7E661A08AC0F371
:1041A0000800C0F50077AF4200D92F46A08AC0F3BF
:1041B000080204F12C0011183A46584600F008FD98
:1041C00000BFBB44606938446061DAF800003844DD
:1041D000CAF80000ED1B002D7FF454AF00203FE72C
:1041E000F8B504466946204601F09CFB0646002EC1
:1041F00044D1207C00F0400000283FD0207C00F01B
:10420000800070B1E26900994878012304F12C0123
:10421000FFF772FA08B10120F8BD207C00F07F00A2
:10422000207400F06BFC0746216A009800F0E6FC61
:1042300006461EBB656AE87A40F02000E87229460F
:10424000A268206801F027F905F11C00E16801F07F
:1042500034F9394605F1160001F02FF9002105F176
:10426000120001F036F901200099C870009801F0A1
:1042700047F90646207C00F0BF0020743046CBE7AB
:104280002DE9FF4F83B0044615469B4604980090E5
:104290000020CBF8000001A9204601F043FB02906A
:1042A000029810B9607C029018B1029807B0BDE87E
:1042B000F08F207C00F0020008B90720F6E700BF6D
:1042C000606928446169884202D26069C0F1FF35A3
:1042D000C3E0A08AC0F3080000287DD1019840897E
:1042E000401E616900EA512ABAF1000F26D16069C7
:1042F00038B9A76897B900212046FEF7D7FD0746D1
:104300000CE0A06A28B120466169FEF75DFD074612
:1043100004E02046A169FEF7C9FD074607B99FE002
:10432000012F02D102206074C0E7781C10B901206F
:104330006074BBE7A761A06800B9A760207C00F0AB
:10434000800078B1E26901994878012304F12C01D9
:10435000FFF7D2F910B101206074A7E7207C00F0CC
:104360007F002074A1690198FEF747FD064616B943
:10437000022060749AE756444FEA5529B9F1000FBC
:104380002BD00AEB090001994989884203D9019889
:104390004089A0EB0A09019948784B4632460099BA
:1043A000FFF7AAF910B1012060747FE7E069801B74
:1043B00048450ED2E069801B009A02EB40214FF481
:1043C000007204F12C0000F003FC207C00F07F0060
:1043D00020744FEA49282BE013E0E069B0420FD087
:1043E000E168606988420BD201994878012332461E
:1043F00004F12C01FFF75EF910B10120607455E75C
:10440000E661A08AC0F30800C0F50078A84500D98D
:10441000A846A18AC1F3080204F12C0150184246B3
:10442000009900F0D5FB207C40F08000207400BF94
:10443000009840440090606940446061E1686069B0
:10444000884201D9606900E0E068E060DBF80000C4
:104450004044CBF80000A5EB0805002D7FF439AFF0
:1044600000BF207C40F04000207400201EE70000C8
:104470002DE9F04102460F46802A01DA10462FE06E
:104480001FB1184B45F2205602E0174B45F220565B
:104490000025102416E0A6EB050C0CEBDC7805EBF0
:1044A00068014FEA410C33F81CC0944500D10BE081
:1044B0004FEA410C33F81CC0944501DA0D4600E088
:1044C0000E46641E002CE6D100BF34B14FF0010C43
:1044D0000CEB410C33F81CC001E04FF0000C6046BF
:1044E000BDE8F081C2B601083E62000830B5B0F503
:1044F000805F01DA244D00E0244D294600BF31F8E9
:10450000022B0AB1904200DA3CE031F8023B1C1267
:10451000DBB2D518854230DD092C2CD2DFE804F05F
:1045200005090F13171B1F232700851A31F81500E3
:1045300021E0851A05F00105451BA8B21BE0A0F19A
:104540001005A8B217E0A0F12005A8B213E0A0F171
:104550003005A8B20FE0A0F11A05A8B20BE000F1F7
:104560000805A8B207E0A0F15005A8B203E0A0F545
:10457000E355A8B200BF00BF04E0002CBFD101EB9F
:104580004301BCE700BF30BD460B0308380D0308EC
:104590002DE9F74F8AB000210B9801600A9800F0CE
:1045A000B1FA08900898002803DA0B200DB0BDE896
:1045B000F08FB149089851F820400CB90C20F5E76C
:1045C0000B9804600C9800F0FE000C90207878B1F5
:1045D0006078FFF78EF8814609F0010040B90C9829
:1045E00020B109F0040008B10A20DFE70020DDE770
:1045F00000202070089860706078FFF71FF88146EF
:1046000009F0010008B10320D0E70C9820B109F0AF
:10461000040008B10A20C9E7002739462046FEF702
:104620008BFB0546022D01D02EDA2DE0002614E08A
:104630004FF4DF7000EB061104F1340008440990D8
:104640000998007920B10998083000F093FA00E049
:10465000002002A941F82600761C042EE8D300268B
:1046600006B1761E00BF02A850F8267027B1394661
:104670002046FEF761FB00E003200546022D03DB28
:10468000701C06460428EED3042D01D101208DE7CD
:10469000022D01DB0D2089E704F13F0000F076FADE
:1046A000B0F5007F01D00D2080E704F14A0000F052
:1046B0006DFA8046B8F1000F04D104F1580000F003
:1046C00059FA8046C4F81C804420005DA070A07890
:1046D000012804D0A078022801D00D2066E7A07838
:1046E00008FB00F84120005D6081608918B1608995
:1046F000411E084008B10D2058E704F1450000F0C4
:1047000045FA2081207A00F00F0008B10D204DE716
:1047100004F1470000F03AFA8246BAF1000F04D1E2
:1047200004F1540000F026FA824604F1420000F041
:104730002DFA0190019808B90D2037E701984044FF
:10474000218900EB111007900798824501D20D20B6
:104750002CE70798AAEB00006189B0FBF1FBBBF1E5
:10476000000F01D10D2021E703254FF6F570834599
:1047700000D8022540F6F570834500D801250BF1DD
:104780000200A061276201983844606207983844AB
:10479000E062032D13D104F15E0000F0F7F908B1D7
:1047A0000D2003E7208908B10D20FFE604F1600029
:1047B00000F0E0F9A062A0698000069014E0208972
:1047C00008B90D20F2E6606A4044A062022D02D1D1
:1047D000A069400007E0207E00F00100A16901EB24
:1047E000410100EB51000690E169069800F2FF10CC
:1047F000B1EB502F01D20D20D8E64FF0FF306061B1
:10480000206180202071032D2CD104F1640000F080
:10481000BDF9012826D1791C204600F0EFF908BB2C
:104820000020207104F2322000F0B0F94AF6552140
:10483000884217D104F1340000F09CF90F498842F6
:1048400010D104F5067000F095F90D49884209D1A0
:1048500004F5077000F08EF9606104F5087000F04F
:1048600089F92061257007480088401C80B20549FD
:104870000880E080002099E66C00002052526141DF
:1048800072724161740000202DE9F341044626460E
:10489000D6F8008002E00198401C01900198007851
:1048A0002F28F8D0019800785C28F4D00020B06060
:1048B00001980078202808D280212B200155002162
:1048C0002046FEF76EFE05462CE000BF01A92046FB
:1048D000FEF75CFB054605B123E02046FEF7BCFC75
:1048E00005462B20075D3DB1042D04D100BF07F024
:1048F000040000B9052514E007F0040000B110E041
:10490000B07900F0100008B905250AE0208AC0F34C
:10491000080208F134001118404600F018F9B060A0
:10492000D4E700BF2846BDE8FC81000070B504460E
:104930000D46E1B20548FDF779FF00BF402103486D
:10494000FDF7ACFE0028F9D0204670BD00380140CC
:104950002DE9FF4F83B0074691461E460B2238468D
:10496000049900F035F9052E19D9B04612E039F84E
:1049700002BB00250CE0584668F35F0080464FEA12
:104980006B0B08F4803010B1234888EA00086D1CD6
:10499000102DF0D3B9F800000028E8D146460725CD
:1049A00000BF06F00F0000F1300ABAF1390F03DD45
:1049B0000AF1070000F0FF0A28466D1E01A901F860
:1049C00000A03609002EECD17E20485500240BE0D3
:1049D000385D812807DB385DFE2804DC681EA042B4
:1049E00000D106E0641C641CAC4202D2385D202871
:1049F000EED100BF00BF082D04D228466D1C01A9CE
:104A0000095C00E020212046641C3954082CF2D3B4
:104A100007B0BDE8F08F0000211001002DE9F0473C
:104A200081460C46D9F80050022C02D3A869A04256
:104A300002D84FF001085EE04FF0FF3828780128D7
:104A400004D002282CD0032851D13CE0264606EBA6
:104A50005606686A00EB5621284600F0CFF800B1F0
:104A600048E03046761CC0F3080105F13400475C8D
:104A7000686A00EB5621284600F0C0F800B139E022
:104A8000C6F3080105F13400405C47EA002704F052
:104A9000010008B1380901E0C7F30B00804629E0A6
:104AA000686A00EB1421284600F0A8F800B121E064
:104AB00040F2FF1101EA440205F13401501800F000
:104AC00065F8804616E0686A00EBD411284600F0CD
:104AD00095F800B10EE040F2FF1101EA840205F101
:104AE0003401501800F046F820F0704802E04FF012
:104AF000010800BF00BF4046BDE8F087004870478E
:104B000000005F4970B502464FF0FF301568E5B10F
:104B1000116800E0491C0D78202D02D30D783A2D44
:104B2000F8D10D783A2D0FD1146814F8015BA5F176
:104B300030030A2B07D28C4205D1022B03D2184630
:104B40004D1C2946156070BD002000BFFBE770B505
:104B500005460C4604F11A0000F018F806462878BD
:104B6000032805D104F1140000F010F846EA0046CD
:104B7000304670BD0146C8788A7842EA00204A78FB
:104B800042EA00200A7842EA00207047014648784D
:104B90000A7842EA00207047FDF732FBFBF7ECFF92
:104BA000FBF710FD00F04CFE00BFFEE7F0B503463A
:104BB0001D460C46002000BF15F8017B14F801CB00
:104BC000A7EB0C00561E321E01D00028F4D0F0BD19
:104BD00030B503460C463AB100BF14F8015B03F848
:104BE000015B551E2A1EF8D130BD10B5034600BF2B
:104BF00003F8011B541E221EFAD110BD70B50446E5
:104C00000D460026206BA84210D0204600F0C0FCC4
:104C100006465EB9607801232A4604F13401FEF7A6
:104C200049FD10B14FF0FF3501262563304670BDB8
:104C300070B505460E461D480068001D00F0D1FC09
:104C400050B91A48006890F82C1001208840184983
:104C50000968814316480160681C38B936B11348A9
:104C60000168091D134800F0FAFC1EE012480068B4
:104C700044190E48006844600F480068844207D217
:104C80000A480168091D0D48006800F0CEFC0CE0E0
:104C900006480168091D0A48006800F0C6FC09487A
:104CA0000068844201D20748046070BD14000020EF
:104CB0002C000020743E0020280000201C00002052
:104CC00018000020440000202DE9F04707460D465B
:104CD000904699460DB9002601E007FB05F606F15E
:104CE0004C0000F003FB04461CB104F14C00C8F872
:104CF00000002046BDE8F0872DE9F04107460D464B
:104D000090461DB9B80000F0F1FA00E028460646CA
:104D100086B1B8F1000F03D1542000F0E7FA00E0AB
:104D2000404604460CB1266305E025B9304600F044
:104D3000C5FC00E000242046BDE8F08170B523E00A
:104D400000F0B8FD1348006808B9012000E0002019
:104D5000054601F0DFF9BDB900F08EFC0D48C068D2
:104D6000C468201D00F03DFC0B480068401E0A4945
:104D700008600A480068401E0849086000F08EFC80
:104D8000204600F062F800BF044800680028D7D130
:104D900070BD0000603E00202400002020000020A4
:104DA00070B504460D46206C70B1216CE068084473
:104DB000E0606168E068884201D32068E0602846CE
:104DC000226CE168FBF72CFA70BD2DE9F041044636
:104DD0000E4615460027206C40B9206878BB6068F5
:104DE00001F016F907460020606028E07DB93146E1
:104DF000226CA068FBF714FA216CA0680844A0603C
:104E0000D4E9011088421AD32068A06017E0314627
:104E1000226CE068FBF704FA216CE068401AE0605D
:104E20002168E068884203D2216C6068401AE06023
:104E3000022D04D1A06B10B1A06B401EA063A06B2B
:104E4000401CA0633846BDE8F08110B50446206BD5
:104E500000F034FC204600F031FC10BD30B54FF4BA
:104E60008843174800F007042CB1C01D20F007004C
:104E7000134C041B1B1B0246124C22600024114DD4
:104E80006C60D018083820F007000F4C2060002418
:104E90000D4D2D686C600C4D2D682C601146441A28
:104EA0004C60094C24680C60084D4C682C60084D1F
:104EB0004C682C604FF00044064D2C6030BD000063
:104EC000883E002050000020580000206000002094
:104ED0005C0000206400002000BFFFF72FFF0648A1
:104EE00000680128F9D94FF0805004490860BFF3E9
:104EF0004F8FBFF36F8FF0E7AC3D002004ED00E073
:104F00002DE9F04704460F4615469946DDF8208006
:104F1000002607E0B95D04F134008155B85D00B9A1
:104F200002E0761C102EF5D300BF0021432001556E
:104F3000062D00D30525E56265640020A064201DD0
:104F400000F070FB04F1180000F06CFB2461C5F167
:104F50000600A06164620020E06484F85000BDE8AF
:104F6000F087000010B5002407E004EB84010F4A2D
:104F700002EB810000F049FB641C062CF5D30C48C1
:104F800000F043FB0B4800F040FB0B4800F03DFBFA
:104F90000A4800F03AFB0A4800F037FB0448094988
:104FA000086004480849086010BD0000AC3D0020BE
:104FB000243E0020383E00204C3E0020603E002071
:104FC000743E0020180000201C00002010B501468F
:104FD000164800E0006803688B42FBD30246436832
:104FE00013448B4204D143684C6823444360014618
:104FF0000A464B6813440468A34211D10C4C036861
:105000002468A34208D04B680468646823444B605A
:1050100003681B680B6005E0054B1B680B6001E033
:1050200003680B60884200D0016010BD5000002072
:105030005800002070B5054600F01EFBA86B08B9AB
:10504000012400E0002400F029FB204670BD70B56B
:10505000054600F011FBA86BE96B884201D10124E1
:1050600000E0002400F01AFB204670BD0A490968E0
:10507000096809B9012100E0002121B14FF0FF3199
:10508000064A116006E004490968C968C868034A0D
:1050900041681160704700001800002044000020A3
:1050A00000BFBF2080F31188BFF34F8FBFF36F8F16
:1050B00000BF00BFFEE710B5044600F0DDFA11E0C6
:1050C000606A08B9012000E0002038B904F124002A
:1050D00000F0E0FF18B100F039FB00E005E0A06C43
:1050E000401EA064A06C0028EADC00BF4FF0FF3037
:1050F000A06400F0D3FA00F0BFFA11E0206908B90B
:10510000012000E0002050B904F1100000F0C2FFBF
:1051100008B100F01BFB606C401E606400E002E020
:10512000606C0028EADC00BF4FF0FF30606400F0E4
:10513000B5FA10BD2DE9F04704460D4616464FF06E
:105140000209022D74D3A069A84271D920780128E0
:1051500004D0022849D003280DD15EE02F4607EB8A
:105160005707606A00EB57212046FFF747FD81464D
:10517000B9F1000F00D075E038467F1CC0F308017C
:1051800004F1340001EB000805F0010028B1F1B290
:1051900098F8000061F31F1000E0304688F8000026
:1051A0000120E070606A00EB57212046FFF726FDE2
:1051B0008146B9F1000F00D054E0C7F3080104F1B3
:1051C000340001EB000805F0010010B1C6F3071030
:1051D00006E098F8000000F0F000C6F30321084351
:1051E00088F800000120E0703CE0606A00EB1521C7
:1051F0002046FFF703FD8146B9F1000F00D031E0F2
:10520000B1B240F2FF1202EA450304F134029818E9
:1052100000F05FF90120E07024E0606A00EBD51136
:105220002046FFF7EBFC8146B9F1000F01D019E0F1
:1052300019E040F2FF1101EA850204F1340150182F
:10524000FFF798FC66F31B00064640F2FF1101EAE7
:10525000850204F134015018314600F02EF9012086
:10526000E07000BF00BF4846BDE8F0872DE9F04779
:1052700007460C461546984684F80D800F20E072CC
:1052800000202073002104F11A0000F022F9681EAA
:1052900000EB800101EBC00900200646824600BFFA
:1052A0004FF6FF70864204D0484609F1010937F8ED
:1052B00010600D4911F80A100819314600F009F97B
:1052C0000EB94FF6FF760AF1010082460D28E7D3AA
:1052D0004FF6FF70864202D037F8190008B945F042
:1052E00040052570BDE8F087046200082DE9F04113
:1052F00005464FF0000800F0DDFA2B48006808B9B9
:10530000FFF7ACFD294800682840002847D145B187
:10531000083505F0070020B105F00700C0F10800CE
:105320000544002D3BD022480068854237D8214EE5
:105330003046046801E0264624686068A84202D22C
:1053400020680028F7D118480068844227D03068C8
:1053500000F10808206830606068401B102807D9F9
:1053600067196068401B786065603846FFF72EFE5D
:105370000F4960680968081A0D4908600846006806
:105380000D490968884203D2094800680A49086043
:10539000064960680968084360600020206000F0EA
:1053A000B9FE4046BDE8F0815800002064000020AE
:1053B0005C000020500000206000002006480068CB
:1053C00030B10549096801F14800896C491C016048
:1053D000014800687047000014000020001F4FF0D3
:1053E00080730360001F0160001F034B03601438CB
:1053F0000260203870470000A15000082DE9F047F6
:1054000081460E4617464FF00008D9F80040022E9C
:1054100002D3A069B04202D80220BDE8F08767B18C
:1054200000BF4FF0FF3239462046FFF783FE80462B
:10543000B8F1000F01D04046EFE700BF31464846C3
:10544000FFF7ECFA054605B922E0012D01D1022053
:10545000E3E7681C08B90120DFE700223146204657
:10546000FFF768FE8046B8F1000F01D04046D4E750
:10547000D4E90510801E814206D26069401C60613B
:10548000207940F0010020712E46A069B042D5D8A5
:1054900000BF0020C1E770B506460C461546A9B20C
:1054A00004F11A0000F015F83078032804D1290C13
:1054B00004F1140000F00DF870BD00F8011B090A9A
:1054C00000F8011B090A00F8011B090A00F8011B7A
:1054D000704700F8011B091200F8011B704730B536
:1054E000014600200B2200BF431003EBC01411F84B
:1054F000015B6319D8B2531E1A1EF5D130BD0000EE
:1055000070B50446204600F043F80546002D38D11A
:10551000207803282ED1207901282BD142020021A6
:1055200004F13400FFF761FB4AF6552104F2322002
:10553000FFF7CFFF144904F13400FFF7BEFF134912
:1055400004F50670FFF7B9FF04F507706169FFF70E
:10555000B4FF04F508702169FFF7AFFF206A401C13
:1055600020636078012304F13401226BFEF7C4F854
:1055700000202071607800221146FEF779F800B112
:105580000125284670BD000052526141727241618E
:105590002DE9F04104460027E078F8B1256B6078EA
:1055A00001232A4604F13401FEF7A6F808B10127C9
:1055B00014E00020E070606A281AE16988420DD288
:1055C000A67809E0E0690544607801232A4604F1E1
:1055D0003401FEF791F8761E022EF3D23846BDE86C
:1055E000F08101460A69D1E901309860D1E90103EF
:1055F00058605068884201D1886850600020086176
:105600001068401E10601068704700F1080141608A
:105610004FF0FF31816000F10801C160016100219C
:105620000160704700210161704710B502460B68A8
:105630005C1C0CB9106907E002F1080000E040684A
:10564000446824689C42FAD944684C604C68A16064
:10565000886041600A611468641C146010BD42686F
:105660004A6093688B609368596091600861036831
:105670005B1C03607047000000BFBF2080F31188EF
:10568000BFF34F8FBFF36F8F00BF03480068401C0C
:105690000149086070470000680000200648006863
:1056A000401E054908600846006820B9002080F3C4
:1056B000118800BF00BF70476800002070B5064623
:1056C0003546D6B1083D2C460C496068096808404B
:1056D00098B1206888B909496068096888436060A2
:1056E00000F0E8F806496068096808440449086061
:1056F0002046FFF76BFC00F00DFD70BD640000203C
:105700005C00002003484FF0E02148610720086159
:10571000704700003F19010070B50446002544B1F0
:1057200000F0C8F800212046FFF782FA00F0F2FCF2
:1057300005463DB94FF0805003490860BFF34F8FD5
:10574000BFF36F8F70BD000004ED00E00120014940
:10575000086070473800002070B505460C460548C3
:10576000016818312846FFF760FF01212046FFF746
:105770005FFA70BD1400002070B505462C46002D60
:105780004BD02649E06A0968C96A884245D2A069B7
:1057900000F0004028B921480068C06AC0F1060046
:1057A000A061E16A01EB81011D4A02EB81016069A0
:1057B000884201D1012000E0002050B3201DFFF7F6
:1057C00010FF78B9E06A00EB8000154951F820001D
:1057D00040B994F82C10012088401249096881438F
:1057E000104801600D480068C06AE06294F82C100F
:1057F000012088400B49096808430A490860E16AAA
:1058000001EB8101064A02EB8100211DFFF727FF12
:1058100003E002480068C06AE06270BD1400002026
:10582000AC3D00202C0000200349096801600349B9
:1058300009684160704700003C00002028000020FB
:10584000F0B585B000250026802700201249CDE95B
:10585000035003463A468DE8430010A1114800F07A
:10586000C1FA0446012C14D100BFBF2080F3118877
:10587000BFF34F8FBFF36F8F00BF4FF0FF300A4968
:10588000086001200949086000200949086000F00B
:1058900067F805B0F0BD00004800002049444C45C1
:1058A00000000000D94E0008440000203000002015
:1058B0002800002002480068401C01490860704729
:1058C0004C0000201248006818B1012011490860FE
:1058D0001DE000200F4908600F480068B0FA80F012
:1058E000C0F11F0101EB81020C4B03EB8200426807
:1058F0005268426000F108024368934202D1426854
:10590000526842604268D268054B1A6000BF704717
:105910004C000020380000202C000020AC3D00206E
:105920001400002070B504460D4684B1206870B1A3
:105930002068007858B12068C088A188884206D1C4
:1059400021684878FDF7D5FE00F0010018B100206D
:105950002860092602E0206828600026304670BDD5
:1059600010B50A48006840F47F00084908600846FE
:10597000006840F07F400860FFF7C4FE0020044943
:105980000860FAF701FC002010BD000020ED00E0E7
:105990006800002010B500BFBF2080F31188BFF35E
:1059A0004F8FBFF36F8F00BF00F0A2FA18B14FF016
:1059B00080500449086000BF002080F3118800BFB8
:1059C00010BD000004ED00E02DE9F84305460E4649
:1059D00001274FF0000833460022114601200095B0
:1059E00000F00FF804464CB1002060602060E060D9
:1059F00000231A461946204600F006F92046BDE865
:105A0000F8832DE9FF4106460D461F46DDF8288044
:105A10003B4602AA29463046FFF756F9044654B1E0
:105A20000DB9246001E002982060E663256401213D
:105A3000204600F0ABF8204604B0BDE8F08100003D
:105A40002DE9FF4383B0054688461E464FF0000906
:105A50002C4600BFFFF710FEA06B00283BD0E76884
:105A600041462046FFF79CF9DEB9A06B401EA063BB
:105A7000206810B9FFF7A2FC6060206908B9012016
:105A800000E0002008BB04F1100000F003FBE0B1CF
:105A90004FF080503C490860BFF34F8FBFF36F8FCA
:105AA00013E0E760606A08B9012000E0002060B9F7
:105AB00004F1240000F0EEFA38B14FF08050324982
:105AC0000860BFF34F8FBFF36F8FFFF7E7FD012033
:105AD00007B0BDE8F083059818B9FFF7DFFD002097
