:020000040800F2
:1000000040750020FD010008510D00088106000820
:100010002D0D000861020008A9180008000000006A
:100020000000000000000000000000006501000862
:10003000B904000800000000A9010008751F0008AD
:10004000170200081702000817020008170200082C
:10005000170200081702000817020008170200081C
:10006000170200081702000817020008170200080C
:10007000170200081702000889020008170200088A
:1000800017020008CD020008170200081702000836
:1000900017020008170200081702000817020008DC
:1000A00017020008170200081702000817020008CC
:1000B00017020008170200081702000817020008BC
:1000C00017020008170200081702000817020008AC
:1000D00017020008511300087D15000817020008D8
:1000E00017020008170200081702000800000000AD
:1000F0000000000000000000000000000000000000
:1001000000000000000000001702000817020008AD
:10011000170200081702000817020008170200085B
:10012000170200081702000817020008170200084B
:10013000170200081702000817020008170200083B
:10014000170200081702000817020008170200082B
:10015000DFF80CD000F072F8004800477D19000865
:1001600040750020224B19680868B0E8F00F80F352
:100170000988BFF36F8F4FF0000080F311884EF0B5
:100180000D0E70470000000006480068006880F30C
:10019000088862B661B6BFF34F8FBFF36F8F00DF81
:1001A00000BF00BF08ED00E0EFF30980BFF36F8FE1
:1001B0000F4B1A6820E9F00F106008B54FF0BF0030
:1001C00080F31188BFF34F8FBFF36F8F01F088FE6C
:1001D0004FF0000080F31188BDE8084019680868F6
:1001E000B0E8F00F80F30988BFF36F8F704700BF4E
:1001F00010000020EFF3058070470000064880479C
:1002000006480047FEE7FEE7FEE7FEE7FEE7FEE7FB
:10021000FEE7FEE7FEE7FEE73512000851010008A1
:1002200030B504460020034600E05B1C934203D235
:10023000E05CCD5C401BF8D030BD0000064C074DA3
:1002400006E0E06840F0010394E8070098471034A6
:10025000AC42F6D3FFF780FFB4230008D423000894
:1002600002A001F051FB00BFFEE7000042757320C1
:100270004661756C7421200D0A00000010B54FF422
:10028000407000F0ABFD10BD10B500200C490860B7
:100290000C48006801F088FE0948006801280AD16E
:1002A0000748006838B14FF0805007490860BFF335
:1002B0004F8FBFF36F8F4FF4204000F013F810BD45
:1002C000080000200400002004ED00E010B501202B
:1002D000034981F801024FF0206000F003F810BDDF
:1002E0005B2A002000F0805111B10349086001E051
:1002F00002494860704700000404024000000240C8
:1003000021B1026842F00102026004E002684FF687
:10031000FE731A400260704701684FF6FE7211408A
:1003200001600021016041608160C1604B498842E9
:1003300008D14A490839496841F00F01474A083A4B
:1003400051608AE045491431884208D1434908394F
:10035000496841F0F001414A083A51607DE03F4967
:100360002831884208D13D490839496841F4706113
:100370003A4A083A516070E038493C31884208D125
:1003800036490839496841F47041344A083A5160A5
:1003900063E032495031884208D130490839496810
:1003A00041F470212D4A083A516056E02B496431DE
:1003B000884208D129490839496841F47001274A1F
:1003C000083A516049E025497831884208D12349EB
:1003D0000839496841F07061204A083A51603CE0B0
:1003E0001F49884206D1011F096841F00F01021F11
:1003F000116032E01A491431884208D11849091FA6
:10040000096841F0F001164A121F116025E01449F5
:100410002831884208D11249091F096841F47061E6
:100420000F4A121F116018E00D493C31884208D173
:100430000B49091F096841F47041094A121F1160F4
:100440000BE007495031884207D10549091F096867
:1004500041F47021024A121F1160704708000240E7
:10046000080402401AB103680B43036002E003680A
:100470008B430360704710B50022026847F6F073A3
:100480009A430C6A8B6823430C6923434C692343CA
:100490008C692343CC6923434C6A23438C6A2343EE
:1004A0001A430260CB6843600B6883604B68C3608B
:1004B00010BD41607047000002A001F025FA00BFA6
:1004C000FEE700004465627567204661756C742123
:1004D000200D0A002DE9F0410246002500260020EB
:1004E00000230024002791F803C00CF00F0591F8B9
:1004F00003C00CF0100CBCF1000F03D091F802C047
:100500004CEA050591F800C0BCF1000F31D0146829
:1005100000202BE04FF0010C0CFA00F3B1F800C002
:100520000CEA03069E4220D183004FF00F0C0CFA18
:1005300003F7BC4305FA03FC4CEA040491F803C03A
:10054000BCF1280F06D14FF0010C0CFA00FCC2F8E8
:1005500014C00AE091F803C0BCF1480F05D14FF078
:10056000010C0CFA00FCC2F810C0401C0828D1D3C2
:100570001460B1F800C0BCF1FF0F34DD54680020F6
:100580002EE000F1080C4FF0010808FA0CF3B1F866
:1005900000C00CEA03069E4221D183004FF00F0CED
:1005A0000CFA03F7BC4305FA03FC4CEA040491F887
:1005B00003C0BCF1280F05D100F1080C08FA0CF8B3
:1005C000C2F8148091F803C0BCF1480F07D100F1C4
:1005D000080C4FF0010808FA0CF8C2F81080401C13
:1005E0000828CED35460BDE8F0810000F0B50A467B
:1005F000002300240021002500F00046B6F1004F42
:1006000002D11D4EF16901E01B4E7168C0F3034534
:1006100083B200F44016B6F5401F08D121F0706196
:10062000154E766826F07066134F7E6012E000F477
:100630008016B6F5801F06D1032606FA05F4A143FD
:1006400041F0706106E0460D360103FA06F6B1434B
:1006500041F0706122B1460D360103FA06F63143CE
:1006600000F00046B6F1004F02D1034EF16101E007
:10067000014E7160F0BD0000000001400161704753
:100680000348006800F0010000B100BE00BFFEE7B3
:10069000F0ED00E010B5FFF7F1FD00F0FFFA4FF4C8
:1006A000E13000F087FE4FF4E13000F085FF00F00C
:1006B000B3FD00F001F810BD1FB500F035F800F0F3
:1006C00021F80020ADF804004BF6FF70ADF80600ED
:1006D0000020ADF808004FF48060ADF80A0000017A
:1006E000ADF80C00054800906946054800F008FA8E
:1006F0000121034800F0C3F91FBD0000801A060065
:100700000054004008B5C020ADF8000003208DF86B
:1007100002001C208DF8030069460248FFF7DAFE4C
:1007200008BD0000000C014010B50121082000F0B8
:100730007FFB0121480500F06BFB10BD2DE9F04760
:100740000746884616461D464FF00009002408E07B
:10075000601C84B240F2DC50844202DB4FF001099D
:1007600006E04FF40031554800F0ADF90028EFD114
:1007700000BF0121514800F08EF9002408E0601C00
:1007800084B240F2DC50844202DB4FF0020905E003
:100790004B494A4800F058F90028F0D000BF002229
:1007A0003946464800F031FA002408E0601C84B263
:1007B00040F2DC50844202DB4FF0030905E041497E
:1007C0003E4800F041F90028F0D000BF01213B482D
:1007D00000F055F94146394800F020FA002408E0BD
:1007E000601C84B240F2DC50844202DB4FF004090A
:1007F00006E03449891C314800F026F90028EFD082
:1008000000BF01212D4800F046F9002408E0601CDB
:1008100084B240F2DC50844202DB4FF0050905E06F
:100820002749264800F010F90028F0D000BF012227
:100830003946224800F0E9F9002408E0601C84B23F
:1008400040F2DC50844202DB4FF0060906E01C490E
:10085000491C1A4800F0F8F80028EFD000BF23E048
:10086000012D07D10021154800F0E2F801211348BD
:1008700000F01DF9002408E0601C84B240F2DC5056
:10088000844202DB4FF0070906E00D493F310B4877
:1008900000F0DAF80028EFD000BF084800F0B1F906
:1008A0003070761C681EC5B2002DD9D101210348D5
:1008B00000F0BEF84846BDE8F08700000054004054
:1008C000010003008200070038B5044600200090B4
:1008D00000BF01210E4800F0DEF814210C4800F0A2
:1008E00085F9009000222146094800F08EF9142174
:1008F000074800F07BF900F002000028E9D0054924
:10090000034800F0B6F80121014800F0D0F838BDE6
:1009100000540040000400102DE9F04706468946C7
:10092000174698464FF0000A002408E0601C84B285
:1009300040F2DC50844202DB4FF0010A06E04FF443
:100940000031384800F0BFF80028EFD100BF012186
:10095000344800F0A0F8002408E0601C84B240F2A3
:10096000DC50844202DB4FF0020A05E02E492D489C
:1009700000F06AF80028F0D000BF00223146294874
:1009800000F043F9002408E0601C84B240F2DC501F
:10099000844202DB4FF0030A05E02449214800F0BD
:1009A00053F80028F0D000BF49461E4800F036F941
:1009B000002408E0601C84B240F2DC50844202DB78
:1009C0004FF0040A06E01949891C164800F03CF86B
:1009D0000028EFD000BF002518E0795D114800F035
:1009E0001DF9002408E0601C84B240F2DC5084420F
:1009F00002DB4FF0050A06E00C49891C094800F0AB
:100A000023F80028EFD000BF681CC5B24545E4DBE1
:100A10000121044800F04BF83046FFF755FF5046DF
:100A2000BDE8F08700540040010003008200070089
:100A300021B1028842F48062028004E002884FF60D
:100A4000FF331A400280704770B50246002400252B
:100A500000230020958A138B1B0445EA030626F029
:100A60007F4404EA01068E4201D1012000E000200B
:100A700070BD002221F07F42D3438382704721B1B1
:100A8000028842F00102028004E002884FF6FE7301
:100A90001A400280704721B1028842F480720280BD
:100AA00004E002884FF6FF631A400280704721B1CC
:100AB000028842F40072028004E002884FF6FF537D
:100AC0001A40028070470CB50246002000230193B3
:100AD000009300920B0F019321F07F41019B1BB10A
:100AE000009B1433009303E0090C009B1833009320
:100AF000009B1B680B400BB1012000E000200CBDE7
:100B00002DE9F04385B004460D460026B146042782
:100B1000DFF8CC80A6884FF6C0700640684600F02B
:100B200097F9DDF808802F48B8FBF0F01FFA80F93C
:100B300046EA0906A68020884FF6FE71084020800C
:100B400000262949286888420CD828684000B8FB4C
:100B5000F0F087B2042F00DA04273E4309F10100C8
:100B6000208427E0E8884BF6FF71884206D1286888
:100B700000EB4000B8FBF0F087B209E0286800EB1A
:100B8000C00101EB0010B8FBF0F087B247F48047DA
:100B9000C7F30B0008B947F0010747F400400643CC
:100BA0004FF4967009FB00F04FF47A7190FBF1F06E
:100BB000401C2084A683208840F0010020802688E5
:100BC0004FF6F5300640A888698908430643268019
:100BD000A88929890843208105B0BDE8F083000079
:100BE00000127A0040420F00A086010008B50246BC
:100BF000002000900092009808440090009800881F
:100C000008BD0146088AC0B2704712B141F0010127
:100C100002E04FF6FE73194001827047018270476F
:100C200010B5002403E010490C55601C84B2642CFC
:100C3000F9DB32230C4A0021A020FFF76DFE32239E
:100C40000A4A0021A020FFF779FD32220749064811
:100C5000FFF7E6FA18B906A000F056FE02E00AA077
:100C600000F052FE10BD000090270020F427002065
:100C70000D0A49494320777269746520737563636F
:100C8000657373210D0A00000D0A494943207772EC
:100C9000697465206661696C210D0A0008B501213F
:100CA000202000F0C5F80420ADF8000010208DF8D9
:100CB000030003208DF8020069461B48FFF70AFC79
:100CC0000121202000F0B4F80820ADF80000102029
:100CD0008DF8030003208DF8020069461248FFF7E3
:100CE000F9FB0121202000F0A3F81020ADF800004E
:100CF0008DF8030003208DF8020069460A48FFF7CB
:100D0000E9FB0121202000F093F88020ADF80000DD
:100D100010208DF8030003208DF802006946024878
:100D2000FFF7D8FB08BD00000014014002A000F04E
:100D3000EBFD00BFFEE70000204D656D4D616E616B
:100D40006765204661756C7421200D0A0000000063
:100D500002A000F0D9FD00BFFEE70000204E4D4983
:100D6000204661756C7421200D0A000070B50021C9
:100D700000230F22C47804B3154C246804F4E06403
:100D8000C4F5E064210AC1F10403CA40447804FABE
:100D900003F184781440214309010E4C0678A155D3
:100DA000047804F01F050124AC4005786D11AD00F6
:100DB00005F1E025C5F8004109E0047804F01F05BD
:100DC0000124AC40044D0678761145F8264070BDEC
:100DD0000CED00E000E400E080E100E002490143A6
:100DE000024A1160704700000000FA050CED00E0B7
:100DF00029B1064A52690243044B5A6104E0034A8E
:100E000052698243014B5A61704700000010024052
:100E100029B1064AD2690243044BDA6104E0034A6D
:100E2000D2698243014BDA61704700000010024032
:100E300029B1064A92690243044B9A6104E0034ACD
:100E400092698243014B9A61704700000010024092
:100E50002DE9F04100210022002500230026002476
:100E600000278C46DFF86081D8F8048008F00C0178
:100E700021B1042907D0082959D109E0DFF84C81B4
:100E8000C0F8008058E0DFF84881C0F8008053E0E7
:100E9000DFF83481D8F8048008F47012DFF8288174
:100EA000D8F8048008F48035920C0D2A01D0921CE9
:100EB00000E0062235B9DFF81C8102FB08F8C0F813
:100EC000008033E0DFF80081D8F82C8008F4803609
:100ED000DFF8F480D8F82C8008F00F0808F101043E
:100EE00046B9DFF8EC80B8FBF4F808FB02F8C0F86C
:100EF00000801BE0DFF8D080D8F82C80C8F30318FE
:100F000008F10107DFF8C080D8F82C80C8F3032867
:100F100008F1020CDFF8B880B8FBF7F808FB0CF812
:100F2000B8FBF4F808FB02F8C0F8008004E0DFF832
:100F30009C80C0F8008000BF00BFDFF88C80D8F82C
:100F4000048008F0F0010909DFF88C8018F80130FE
:100F5000D0F8008028FA03F8C0F80480DFF8688031
:100F6000D8F8048008F4E061090ADFF86C8018F80A
:100F70000130D0F8048028FA03F8C0F80880DFF8C0
:100F80004880D8F8048008F46051C90ADFF8488026
:100F900018F80130D0F8048028FA03F8C0F80C8063
:100FA000DFF82480D8F8048008F44041890BDFF88A
:100FB0002C8018F80130D0F80C80B8FBF3F8C0F89A
:100FC0001080BDE8F08100000010024000127A009D
:100FD00040787D0100093D00680000207800002075
:100FE00000B585B000F04CF800F028F80020ADF80E
:100FF00000004FF48270ADF802000020ADF804004C
:101000000220ADF806000120ADF808004002ADF85E
:101010000A001820ADF80C000020ADF80E000720E3
:10102000ADF810006946044800F048F80121024874
:1010300000F038F805B000BD0030014008B5E020F0
:10104000ADF8000003208DF8020018208DF8030091
:1010500069460948FFF73EFA4FF40070ADF800000A
:1010600003208DF8020010208DF803006946034824
:10107000FFF730FA08BD000000080140000C0140F5
:1010800010B501210420FFF7D3FE01210820FFF74E
:10109000CFFE01210846FFF7CBFE01210803FFF731
:1010A000C7FE10BD21B1028842F04002028004E078
:1010B00002884FF6BF731A400280704710B50022B5
:1010C000028802F441520B884C8823438C882343C6
:1010D000CC8823430C8923434C8923438C892343A5
:1010E000CC8923431A430280838B4FF2FF74234041
:1010F00083830B8A038210BD10B500F001F810BD88
:101100000CB50020019000903F48006840F480300A
:101110003D49086000BF3C48006800F40030009082
:101120000198401C0190009818B90198B0F5A06F83
:10113000F1D13548006800F4003010B10120009072
:1011400001E000200090009801285CD12F48006841
:1011500040F010002D4908600846006820F00300A8
:1011600008600846006840F00200086026484068B1
:10117000254948600846406848600846406840F491
:10118000806048600846C06A214908401E49C8621C
:101190000846C06A1F4908431B49C86208460068E0
:1011A00040F08060086000BF1748006800F00060F1
:1011B0000028F9D01448406820F47C101249486097
:1011C0000846406840F4E81048600846006840F06F
:1011D0008070086000BF0C48006800F000700028B4
:1011E000F9D00948406820F00300074948600846E4
:1011F000406840F00200486000BF0348406800F0CB
:101200000C000828F9D10CBD00100240002002405B
:1012100000F0FEFF4406010010B5FFF7E1FE00BF3D
:101220004FF400710248FFF729FA00BF10BD00001B
:10123000000C014010B51648006840F00100144948
:10124000086008464068134908401149486008464C
:101250000068114908400E4908600846006820F4FB
:10126000802008600846406820F4FE004860084678
:10127000006820F0A05008604FF47F0088600020D4
:10128000C862FFF739FF4FF000600449086010BDE5
:10129000001002400000FFF0FFFFF6FE08ED00E046
:1012A00000B58BB02648FFF737F82648009026484F
:1012B00001901020029000010390002004908020F3
:1012C000059000200690079008904FF44050099038
:1012D00000200A9069461A48FFF7CDF800F0F2FAAC
:1012E00001220A211648FFF7BDF800211448FFF734
:1012F00007F813481430FFF70FF81248009013480E
:101300000190002002904FF4807003900020049020
:101310008020059000200690079008904FF44050E0
:10132000099000200A90694605481430FFF7A3F899
:10133000012103481430FEF7E3FF0BB000BD0000AD
:101340004400024004380140582900205828002059
:1013500010B5002440F22441114800F0E6F9E8B14C
:101360000F480488001D048800210E48FEF7C8FFBE
:1013700000200D4908600D48006800F015FE0A487D
:10138000006801280AD10848006838B14FF0805041
:1013900007490860BFF34F8FBFF36F8F10BD000088
:1013A00000380140580002400C00002000000020DE
:1013B00004ED00E01FB5044600F076F800F056F8A2
:1013C000B4F5E13F03D8B4F5966F00D30094002044
:1013D000ADF80C000C20ADF80A000020ADF80800B4
:1013E000ADF80600ADF804006946164800F0ECF9C7
:1013F00000F02AF8FFF754FF002240F2266111485E
:1014000000F0BDF9002240F225510E4800F0B7F976
:10141000012240F224410B4800F0B1F901224021A1
:10142000084800F06CF901228021064800F067F9B5
:101430000121044800F057F94021024800F04AF920
:101440001FBD00000038014008B525208DF80000C0
:101450000F208DF8010000208DF8020001208DF88A
:1014600003006846FFF782FC08BD000008B518209D
:101470008DF803004FF40070ADF8000003208DF8E4
:10148000020069460748FFF725F848208DF8030059
:101490004FF48060ADF8000069460248FFF71AF883
:1014A00008BD00000008014010B501210846FFF703
:1014B0009FFC01210420FFF7BBFC01210846FFF738
:1014C000B7FC01218803FFF7B3FC10BD00B58BB05A
:1014D0002648FEF721FF264800902648019010205C
:1014E00002900001039000200490802005900020CD
:1014F0000690079008904FF44050099000200A9001
:1015000069461A48FEF7B7FF00F0ECF901220A21FC
:101510001648FEF7A7FF00211448FEF7F1FE134816
:101520001438FEF7F9FE124800901348019000208D
:1015300002904FF48070039000200490802005906A
:1015400000200690079008904FF44050099000202A
:101550000A90694605481438FEF78DFF01210348BB
:101560001438FEF7CDFE0BB000BD00008000024035
:10157000044400405B2B00205B2A002010B50024AF
:1015800040F224410A4800F0D0F880B108480488AD
:10159000001D048800210748FEF7B2FE4FF4807159
:1015A0000448FEF786FF01210248FEF7A9FE10BDA0
:1015B000004400406C0002401FB5044600F074F87F
:1015C00000F056F8B4F5E13F03D8B4F5966F00D3B8
:1015D00000940020ADF80C000C20ADF80A000020AB
:1015E000ADF80800ADF80600ADF8040069461648ED
:1015F00000F0EAF800F02AF8FFF768FF002240F256
:101600002661114800F0BBF8002240F225510E4837
:1016100000F0B5F8012240F224410B4800F0AFF889
:1016200001224021084800F06AF801228021064882
:1016300000F065F80121044800F055F84021024807
:1016400000F048F81FBD00000044004008B5262007
:101650008DF800000F208DF8010000208DF80200A9
:1016600001208DF803006846FFF780FB08BD0000ED
:1016700008B518208DF803002020ADF800000220E6
:101680008DF8020069460748FEF724FF48208DF8D0
:1016900003004020ADF8000069460248FEF71AFF3B
:1016A00008BD00000014014010B501210820FEF71C
:1016B0009DFF01210846FFF79BFB01212020FFF73A
:1016C000B7FB01210846FFF7B3FB01214804FFF7F0
:1016D0009FFB10BD01F40072B2F5007F00D100BF86
:1016E000CA430280704721B1828942F4005282814C
:1016F00004E082894DF6FF731A40828170471AB167
:10170000838A0B43838202E0838A8B438382704700
:1017100002460020B1F5007F00D100BF13880B40C6
:101720000BB1012000E00020704770B50246002494
:1017300000230025002040F66A16B14200D100BF08
:10174000C1F3421501F01F03012606FA03F3012D30
:1017500002D19689334006E0022D02D1168A334029
:1017600001E0968A33400C12012606FA04F416882A
:10177000344013B10CB1012000E0002070BDF0B581
:101780000346002400260025002040F66A17B942CF
:1017900000D100BF1846C1F3421401F01F06012713
:1017A00007FA06F5012C01D10C3004E0022C01D11E
:1017B000103000E014301AB107682F43076002E0D0
:1017C0000768AF430760F0BD2DE9F04786B00546D6
:1017D0000E460024A24600BFA1460027B08900B1F2
:1017E00000BF2F462C8A4CF6FF700440F08804435B
:1017F0002C82AC894EF6F3100440B088318908433E
:10180000718908430443AC81AC8A4FF6FF40044021
:10181000B0890443AC8201A8FFF71AFB1F48874236
:1018200002D1DDF810A001E0DDF80CA0A88900F4D9
:10183000004040B10AEBCA0000EB0A1031684900D1
:10184000B0FBF1F807E00AEBCA0000EB0A103168C0
:101850008900B0FBF1F86420B8FBF0F00401200926
:10186000642101FB1089A88900F4004040B13220B6
:1018700000EBC900B0FBF1F000F00700044308E002
:10188000322000EB09106421B0FBF1F000F00F00F2
:1018900004432C8106B0BDE8F08700000038014009
:1018A000C1F308028280704702A000F02DF800BF4B
:1018B000FEE700005573616765204661756C742111
:1018C000200D0A0008B50E208DF800008DF80100EB
:1018D00000208DF8020001208DF803006846FFF714
:1018E00045FA08BD08B511208DF800000E208DF8CE
:1018F000010000208DF8020001208DF803006846E9
:10190000FFF734FA08BD0000014A024900F013B89D
:10191000591900087C00002002E008C8121F08C105
:10192000002AFAD170477047002001E001C1121F60
:10193000002AFBD170472DE9F04116460F460446B8
:10194000002503E03946B047641C6D1C2078002850
:10195000F8D12846BDE8F08170B504460D46E1B2E5
:101960000548FFF79DFF00BF40210348FFF7D0FE69
:101970000028F9D0204670BD00440040FEF78AFEE2
:10198000FFF74EF900F06AFA00BFFEE72DE9F041DB
:1019900007460D4690461DB9B80000F067F900E013
:1019A0002846064686B1B8F1000F03D1542000F056
:1019B0005DF900E0404604460CB1266305E025B918
:1019C000304600F01DFA00E000242046BDE8F0811A
:1019D00070B523E000F07CFA1348006808B90120D4
:1019E00000E00020054600F06DFCBDB900F0E6F90E
:1019F0000D48C068C468201D00F0B0F90B480068AD
:101A0000401E0A4908600A480068401E08490860EC
:101A100000F0E6F9204600F00DF800BF0448006829
:101A20000028D7D170BD0000142D00202000002018
:101A30001C00002010B50446206B00F0E1F92046A0
:101A400000F0DEF910BD000030B54FF488431748B0
:101A500000F007042CB1C01D20F00700134C041B3C
:101A60001B1B0246124C22600024114D6C60D018E2
:101A7000083820F007000F4C206000240D4D2D6821
:101A80006C600C4D2D682C601146441A4C60094C5A
:101A900024680C60084D4C682C60084D4C682C6024
:101AA0004FF00044064D2C6030BD00003C2D00205E
:101AB0004C000020540000205C0000205800002052
:101AC0006000002000BFFFF783FF06480068012880
:101AD000F9D94FF0805004490860BFF34F8FBFF32E
:101AE0006F8FF0E7602C002004ED00E02DE9F04757
:101AF00004460F4615469946DDF82080002607E08B
:101B0000B95D04F134008155B85D00B902E0761C7E
:101B1000102EF5D300BF002143200155062D00D320
:101B20000525E56265640020A064201D00F037F9FA
:101B300004F1180000F033F92461C5F10600A0613A
:101B400064620020E06484F85000BDE8F087000083
:101B500010B5002407E004EB84010F4A02EB81007A
:101B600000F010F9641C062CF5D30C4800F00AF9BB
:101B70000B4800F007F90B4800F004F90A4800F0A0
:101B800001F90A4800F0FEF80448094908600448D1
:101B90000849086010BD0000602C0020D82C0020EF
:101BA000EC2C0020002D0020142D0020282D0020DA
:101BB000140000201800002010B50146164800E06F
:101BC000006803688B42FBD30246436813448B4290
:101BD00004D143684C682344436001460A464B687D
:101BE00013440468A34211D10C4C03682468A34237
:101BF00008D04B680468646823444B6003681B6822
:101C00000B6005E0054B1B680B6001E003680B608F
:101C1000884200D0016010BD4C000020540000201C
:101C20000A490968096809B9012100E0002121B1C8
:101C30004FF0FF31064A116006E004490968C9689F
:101C4000C868034A41681160704700001400002012
:101C50004000002000BFBF2080F31188BFF34F8FEA
:101C6000BFF36F8F00BF00BFFEE700002DE9F0411A
:101C700005464FF0000800F02BF92B48006808B922
:101C8000FFF7E2FE294800682840002847D145B107
:101C9000083505F0070020B105F00700C0F1080085
:101CA0000544002D3BD022480068854237D8214E9C
:101CB0003046046801E0264624686068A84202D2E3
:101CC00020680028F7D118480068844227D030687F
:101CD00000F10808206830606068401B102807D9B0
:101CE00067196068401B786065603846FFF764FFDD
:101CF0000F4960680968081A0D49086008460068BD
:101D00000D490968884203D2094800680A490860F9
:101D1000064960680968084360600020206000F0A0
:101D2000D1FA4046BDE8F081540000206000002058
:101D3000580000204C0000205C000020001F4FF0E5
:101D400080730360001F0160001F034B03601438A1
:101D50000260203870470000551C000801460A69DF
:101D6000D1E901309860D1E9010358605068884298
:101D700001D188685060002008611068401E106022
:101D80001068704700F1080141604FF0FF31816039
:101D900000F10801C160016100210160704700216C
:101DA0000161704742684A6093688B60936859602C
:101DB0009160086103685B1C0360704700BFBF202F
:101DC00080F31188BFF34F8FBFF36F8F00BF0348BD
:101DD0000068401C01490860704700006400002052
:101DE00006480068401E054908600846006820B99A
:101DF000002080F3118800BF00BF704764000020FE
:101E000070B506463546D6B1083D2C460C4960688B
:101E10000968084098B1206888B90949606809686C
:101E20008843606000F054F8064960680968084417
:101E3000044908602046FFF7BFFE00F043FA70BD7A
:101E4000600000205800002003484FF0E021486166
:101E500007200861704700003F190100F0B585B008
:101E600000250026802700201249CDE903500346B3
:101E70003A468DE8430010A1114800F0CDF8044621
:101E8000012C14D100BFBF2080F31188BFF34F8F06
:101E9000BFF36F8F00BF4FF0FF300A490860012089
:101EA0000949086000200949086000F049F805B0B8
:101EB000F0BD00004400002049444C4500000000F3
:101EC000C51A0008400000202C000020240000203B
:101ED00002480068401C0149086070474800002023
:101EE0001248006818B10120114908601DE0002067
:101EF0000F4908600F480068B0FA80F0C0F11F0178
:101F000001EB81020C4B03EB820042685268426095
:101F100000F108024368934202D14268526842606D
:101F20004268D268054B1A6000BF70474800002025
:101F30003400002028000020602C00201000002029
:101F400010B50A48006840F47F0008490860084658
:101F5000006840F07F400860FFF776FF00200449EA
:101F60000860FEF711F9002010BD000020ED00E030
:101F70006400002010B500BFBF2080F31188BFF3BC
:101F80004F8FBFF36F8F00BF00F0CCF818B14FF048
:101F900080500449086000BF002080F3118800BF12
:101FA00010BD000004ED00E02DE9F04105460E46AD
:101FB0002C4600BFBF21EFF3118081F31188BFF3DE
:101FC0004F8FBFF36F8F00BF8046A06BE16B8842DD
:101FD00019D2A06B401CA063A06C401C70B9606A51
:101FE00008B9012000E0002058B904F1240000F0F5
:101FF00029F930B12EB10120306002E0A06C401C04
:10200000A064012700E0002700BF88F3118800BF0B
:102010003846BDE8F08100002DE9FF4F81B08046D1
:1020200015469946DDE90E7A2846DDE91012FFF7DC
:10203000ADFC0446002C4FD0681E216B01EB800BD9
:102040002BF0070B00953A462046129B0299FFF7AA
:102050004DFD4A4641465846FFF770FE2060BAF1F2
:10206000000F01D0CAF80040FFF7A8FE264800681C
:10207000401C254908602548006840B92348046091
:102080000846006801280CD1FFF762FD09E02048EE
:10209000006830B91D480068C06AB84201D81B48C2
:1020A00004601C480068401C1A49086094F82C1011
:1020B0000120884018490968084317490860E16A07
:1020C00001EB8101154A02EB8100211DFFF76AFE39
:1020D0000126FFF785FE01E04FF0FF36012E0ED1FD
:1020E0000B48006858B109480068C06AB84206D277
:1020F00030070B490860BFF34F8FBFF36F8F304637
:1021000005B0BDE8F08F0000200000201000002086
:102110002C0000203C00002028000020602C002023
:1021200004ED00E02DE9F04100273B48006800285D
:1021300065D13A480068401C38490860084606687E
:102140008EB93748D0F800803648006834490860B6
:102150003448C0F8008034480068401C32490860A8
:10216000FFF75EFD00BF3148006886423BD300BFE9
:102170002B480068006808B9012000E0002020B169
:102180004FF0FF30294908602CE025480068C068FE
:10219000C4686568AE4202D22448056022E0201D72
:1021A000FFF7DCFDA06A18B104F11800FFF7D6FDB7
:1021B00094F82C10012088401D49096808431C49E7
:1021C0000860E16A01EB81011A4A02EB8100211DDE
:1021D000FFF7E8FD1849E06A0968C96A8842C7D371
:1021E0000127C5E700BF14480068C06A00EB800003
:1021F000104951F82000012806D9012704E00F48B2
:102200000068401C0D4908600D48006800B10127B6
:102210003846BDE8F081000048000020240000207E
:10222000140000201800002038000020400000208A
:1022300028000020602C002010000020300000202A
:102240003400002070B50646F068C46804F1180038
:10225000FFF784FD15480068A8B9201DFFF77EFD33
:1022600094F82C100120884011490968084310494E
:102270000860E16A01EB81010E4A02EB8100211D39
:10228000FFF790FD04E004F118010B48FFF78AFD09
:102290000A49E06A0968C96A884204D9012501200F
:1022A0000749086000E00025284670BD480000206E
:1022B00028000020602C0020002D002010000020AD
:1022C0003400002070B500240025FFF777FD30486A
:1022D0000068401E2E49086008460068002852D158
:1022E0002C48006800284ED024E02B48C068C46801
:1022F00004F11800FFF732FD201DFFF72FFD94F8C1
:102300002C100120884025490968084323490860AA
:10231000E16A01EB8101224A02EB8100211DFFF7F6
:1023200041FD2049E06A0968C96A884202D3012058
:102330001D4908601848006808B9012000E0002025
:102340000028D2D00CB1FFF76BFC1848006878B1B8
:102350000AE0FFF7E7FE10B10120134908601348B7
:102360000068401E11490860104800680028F0D13C
:102370000D48006838B1012528070D490860BFF3F2
:102380004F8FBFF36F8FFFF72BFD284670BD000006
:102390004800002020000020002D00202800002000
:1023A000602C0020100000203400002030000020AD
:1023B00004ED00E0D42300080000002080000000AD
:1023C000181900085424000880000020C074000080
:1023D00028190008000000000000000000000000B4
:1023E00000000000000000000000000000000000ED
:1023F00000000000000000000000000000000000DD
:1024000000000000000000000000000000000000CC
:1024100000000000000000000000000000000000BC
:1024200000000000000000000000000000000000AC
:102430000000000000000000AAAAAAAA00000000F4
:102440000102030401020304060708090204060846
:042450000000000088
:04000005080001519D
:00000001FF
