:020000040800F2
:1000000078520020FD0100084D140008A9070008DF
:10001000AD1200080D030008F121000800000000E7
:100020000000000000000000000000006501000862
:10003000A905000800000000A9010008E53000083B
:10004000170200081702000817020008170200082C
:10005000170200081702000817020008170200081C
:10006000170200081702000817020008170200080C
:1000700017020008170200087103000817020008A1
:1000800017020008B503000817020008170200084D
:1000900017020008170200081702000817020008DC
:1000A00017020008170200081702000817020008CC
:1000B00017020008170200081702000817020008BC
:1000C00017020008170200081702000817020008AC
:1000D00017020008991C0008C51E00081702000836
:1000E00017020008170200081702000800000000AD
:1000F0000000000000000000000000000000000000
:1001000000000000000000001702000817020008AD
:10011000170200081702000817020008170200085B
:10012000170200081702000817020008170200084B
:10013000170200081702000817020008170200083B
:10014000170200081702000817020008170200082B
:10015000DFF80CD000F0A8F8004800474D27000851
:1001600078520020224B19680868B0E8F00F80F33D
:100170000988BFF36F8F4FF0000080F311884EF0B5
:100180000D0E70470000000006480068006880F30C
:10019000088862B661B6BFF34F8FBFF36F8F00DF81
:1001A00000BF00BF08ED00E0EFF30980BFF36F8FE1
:1001B0000F4B1A6820E9F00F106008B54FF0BF0030
:1001C00080F31188BFF34F8FBFF36F8F02F040FFB2
:1001D0004FF0000080F31188BDE8084019680868F6
:1001E000B0E8F00F80F30988BFF36F8F704700BF4E
:1001F00014000020EFF30580704700000648804798
:1002000006480047FEE7FEE7FEE7FEE7FEE7FEE7FB
:10021000FEE7FEE7FEE7FEE7F519000851010008DA
:1002200040EA01039B0703D009E008C9121F08C078
:10023000042AFAD203E011F8013B00F8013B521EF8
:10024000F9D270472DE9F05F0546002092469B46A3
:1002500088460646814640241BE0284641464746DC
:10026000224600F042F853465A46C01A914110D334
:1002700011461846224600F029F82D1A67EB0108AE
:100280004F4622460120002100F020F817EB00091C
:100290004E41201EA4F10104DFDC484631462A46C7
:1002A0004346BDE8F09F0000064C074D06E0E068BD
:1002B00040F0010394E8070098471034AC42F6D3AD
:1002C000FFF74AFF5439000874390008202A04DB7C
:1002D000203A00FA02F1002070479140C2F1200359
:1002E00020FA03F3194390407047202A04DB203A98
:1002F00021FA02F00021704721FA02F3D040C2F146
:1003000020029140084319467047000002A001F006
:100310009FFF00BFFEE70000427573204661756CC9
:100320007421200D0A00000010B54FF4407001F058
:10033000D3F810BD30B502460B464FF6FF700021D2
:1003400012E0555C684000240AE000F0010525B188
:100350004AF2010585EA600000E04010651CACB27D
:10036000082CF2DB4D1CA9B29942EADB30BD00003B
:1003700010B500200C4908600C48006803F074F8C0
:100380000948006801280AD10748006838B14FF0D1
:10039000805007490860BFF34F8FBFF36F8F4FF452
:1003A000204000F013F810BD0800002004000020D9
:1003B00004ED00E010B50120034981F801024FF07F
:1003C000206000F003F810BD8B02002000F0805187
:1003D00011B10349086001E002494860704700001C
:1003E000040402400000024021B1026842F0010210
:1003F000026004E002684FF6FE731A400260704724
:1004000001684FF6FE7211400160002101604160F9
:100410008160C1604B49884208D14A49083949681E
:1004200041F00F01474A083A51608AE045491431CA
:10043000884208D143490839496841F0F001414AEE
:10044000083A51607DE03F492831884208D13D4952
:100450000839496841F470613A4A083A516070E0DD
:1004600038493C31884208D136490839496841F455
:100470007041344A083A516063E032495031884251
:1004800008D130490839496841F470212D4A083AA9
:10049000516056E02B496431884208D12949083916
:1004A000496841F47001274A083A516049E02549FA
:1004B0007831884208D123490839496841F0706190
:1004C000204A083A51603CE01F49884206D1011F8A
:1004D000096841F00F01021F116032E01A4914311E
:1004E000884208D11849091F096841F0F001164AED
:1004F000121F116025E014492831884208D11249A1
:10050000091F096841F470610F4A121F116018E059
:100510000D493C31884208D10B49091F096841F453
:100520007041094A121F11600BE00749503188429F
:1005300007D10549091F096841F47021024A121FB9
:1005400011607047080002400804024001464868F4
:1005500080B270471AB103680B43036002E003687E
:100560008B430360704710B50022026847F6F073B2
:100570009A430C6A8B6823430C6923434C692343D9
:100580008C692343CC6923434C6A23438C6A2343FD
:100590001A430260CB6843600B6883604B68C3609A
:1005A00010BD41607047000002A001F051FE00BF85
:1005B000FEE700004465627567204661756C742132
:1005C000200D0A0008B50121480500F09FFF012118
:1005D000082000F0ABFFC020ADF8000003208DF82C
:1005E00002001C208DF803006946024800F004F860
:1005F00008BD0000000C01402DE9F0410246002535
:100600000026002000230024002791F803C00CF0EE
:100610000F0591F803C00CF0100CBCF1000F03D0D3
:1006200091F802C04CEA050591F800C0BCF1000F3A
:1006300031D0146800202BE04FF0010C0CFA00F3CD
:10064000B1F800C00CEA03069E4220D183004FF0AF
:100650000F0C0CFA03F7BC4305FA03FC4CEA040444
:1006600091F803C0BCF1280F06D14FF0010C0CFA31
:1006700000FCC2F814C00AE091F803C0BCF1480FB6
:1006800005D14FF0010C0CFA00FCC2F810C0401C60
:100690000828D1D31460B1F800C0BCF1FF0F34DDDD
:1006A000546800202EE000F1080C4FF0010808FA11
:1006B0000CF3B1F800C00CEA03069E4221D183007E
:1006C0004FF00F0C0CFA03F7BC4305FA03FC4CEA9D
:1006D000040491F803C0BCF1280F05D100F1080C07
:1006E00008FA0CF8C2F8148091F803C0BCF1480F66
:1006F00007D100F1080C4FF0010808FA0CF8C2F815
:100700001080401C0828CED35460BDE8F081000062
:10071000F0B50A46002300240021002500F0004621
:10072000B6F1004F02D11D4EF16901E01B4E716818
:10073000C0F3034583B200F44016B6F5401F08D15C
:1007400021F07061154E766826F07066134F7E605A
:1007500012E000F48016B6F5801F06D1032606FAD3
:1007600005F4A14341F0706106E0460D360103FA3D
:1007700006F6B14341F0706122B1460D360103FA2D
:1007800006F6314300F00046B6F1004F02D1034EA9
:10079000F16101E0014E7160F0BD00000000014018
:1007A00041617047016170470348006800F0010033
:1007B00000B100BE00BFFEE7F0ED00E010B5FFF7AE
:1007C000B3FD00F0D3F84FF4E13001F097FA4FF4A5
:1007D000E13001F095FB002001F08CFF044624B1CC
:1007E00003A001F035FD00BFFEE700F03DF810BDAD
:1007F0000D0A2046415420494E495449414C495321
:1008000045206572726F7221200D0A0021B10288A5
:1008100042F00102028004E002884FF6FE731A40A3
:10082000028070471FB50020ADF804004BF6FF7042
:10083000ADF806000020ADF808004FF48060ADF878
:100840000A000001ADF80C00054800906946054813
:1008500000F016F801210348FFF7D8FF1FBD000084
:10086000801A06000054004010B5FFF7ABFEFFF7FA
:10087000D9FFA0200149088010BD00001000002011
:100880002DE9F04385B004460D460026B146042705
:10089000DFF8CC80A6884FF6C0700640684600F0AE
:1008A00055FEDDF808802F48B8FBF0F01FFA80F9FC
:1008B00046EA0906A68020884FF6FE71084020808F
:1008C00000262949286888420CD828684000B8FBCF
:1008D000F0F087B2042F00DA04273E4309F101004B
:1008E000208427E0E8884BF6FF71884206D128680B
:1008F00000EB4000B8FBF0F087B209E0286800EB9D
:10090000C00101EB0010B8FBF0F087B247F480475C
:10091000C7F30B0008B947F0010747F4004006434E
:100920004FF4967009FB00F04FF47A7190FBF1F0F0
:10093000401C2084A683208840F001002080268867
:100940004FF6F5300640A88869890843064326809B
:10095000A88929890843208105B0BDE8F0830000FB
:1009600000127A0040420F00A086010008B5012164
:10097000202000F0DBFD0420ADF8000010208DF8F1
:10098000030003208DF8020069461B48FFF734FE80
:100990000121202000F0CAFD0820ADF80000102041
:1009A0008DF8030003208DF8020069461248FFF716
:1009B00023FE0121202000F0B9FD1020ADF8000039
:1009C0008DF8030003208DF8020069460A48FFF7FE
:1009D00013FE0121202000F0A9FD8020ADF80000C9
:1009E00010208DF8030003208DF8020069460248AC
:1009F000FFF702FE08BD0000001401402DE9F34F8F
:100A000083B081460026CB46049C9BF8020000027E
:100A100001909BF803000199084301909BF80400A2
:100A200005029BF805000543012D02DBB5F5FA6FC1
:100A30001FDD5648007804F8010B701C86B2812037
:100A400004F8010B701C86B2032004F8010B701C23
:100A500086B231460498FFF76DFC074604F8017B27
:100A6000380A04F8010BB01C86B2304605B0BDE868
:100A7000F08F0198284401281DDD4448007804F8CF
:100A8000010B701C86B2812004F8010B701C86B229
:100A9000022004F8010B701C86B231460498FFF75F
:100AA00049FC074604F8017B380A04F8010BB01C26
:100AB00086B23046DAE73548007804F8010B701C3E
:100AC00086B2012004F8010B701C86B2082D02DAF0
:100AD0004FF0010A15E0E91705EB5171C910A5EBBC
:100AE000C10141B12846E91705EB5171C910491CF4
:100AF00001F0FF0A05E02846E91705EB5171C1F343
:100B0000C70A04F801AB701C86B200202070029066
:100B1000804626E04FEAE87108EB5171C910A8EB56
:100B2000C10131B9B8F1000F03D0641C002020705E
:100B3000029001994144C8B200F052FC012808D14A
:100B4000012102988140C8B20090217800980143A9
:100B500021700298401C80B2029008F1010000F060
:100B6000FF08A845D6DB06EB0A0086B2641C3146B6
:100B70000498FFF7DFFB074604F8017B380A04F806
:100B8000010BB01C86B2304670E700006F000020F9
:100B90002DE9F34F83B081460026CB46049C9BF899
:100BA0000200000200909BF80300009908430090A7
:100BB0009BF8040005029BF805000543012D02DBAC
:100BC000B5F5FA6F20DD5548007804F8010B701C6C
:100BD00086B2822004F8010B701C86B2032004F850
:100BE000010B701C86B231460498FFF7A3FB8046C8
:100BF00004F8018B4FEA182004F8010BB01C86B2F0
:100C0000304605B0BDE8F08F009828445A281EDD14
:100C10004248007804F8010B701C86B2822004F868
:100C2000010B701C86B2022004F8010B701C86B206
:100C300031460498FFF77EFB804604F8018B4FEAAB
:100C4000182004F8010BB01C86B23046D9E73348AF
:100C5000007804F8010B701C86B2022004F8010B26
:100C6000701C86B2082D02DA4FF0010A15E0E91770
:100C700005EB5171C910A5EBC10141B12846E91737
:100C800005EB5171C910491C01F0FF0A05E0284627
:100C9000E91705EB5171C1F3C70A04F801AB701CE9
:100CA00086B2002020700190002721E0F91707EBA1
:100CB0005171C910A7EBC10121B91FB1641C0020FB
:100CC000207001900099394488B200F099FB012806
:100CD00008D1012101988140C8B202902178029880
:100CE000014321700198401C80B20190781C87B2AA
:100CF000AF42DBDB06EB0A0086B2641C3146049887
:100D0000FFF718FB804604F8018B4FEA182004F81F
:100D1000010BB01C86B2304673E700006F00002064
:100D20002DE9F34F81B007460025BB46029C9BF896
:100D30000200000200909BF8030000990843009015
:100D40009BF804004FEA00289BF8050040EA0808D9
:100D5000B8F1010F02DBB8F5FA6F1EDD3C480078F0
:100D600004F8010B681C85B2832004F8010B681C91
:100D700085B2032004F8010B681C85B2294602984D
:100D8000FFF7D8FA064604F8016B300A04F8010BA5
:100D9000A81C85B22846BDE8FE8F00984044B0F5F7
:100DA000AF7F1DDD2A48007804F8010B681C85B26E
:100DB000832004F8010B681C85B2022004F8010BA3
:100DC000681C85B229460298FFF7B4FA064604F873
:100DD000016B300A04F8010BA81C85B22846DAE73B
:100DE0001B48007804F8010B681C85B2032004F846
:100DF000010B681C85B24FEA4860000E04F8010B35
:100E0000681C85B24FF0000A11E00099514488B285
:100E100000F0FEFA81464FEA192004F8010B04F8AD
:100E2000019BA81C85B20AF101001FFA80FAC24595
:100E3000EBDB29460298FFF77DFA064604F8016BC2
:100E4000300A04F8010BA81C85B22846A3E700006D
:100E50006F0000202DE9F34F81B007460025BA4608
:100E6000029C9AF80200000200909AF80300009990
:100E7000084300909AF804004FEA00289AF8050009
:100E800040EA0808B8F1010F02DBB8F5FA6F1EDD81
:100E90003B48007804F8010B681C85B2842004F8F4
:100EA000010B681C85B2032004F8010B681C85B295
:100EB00029460298FFF73EFA064604F8016B300A0D
:100EC00004F8010BA81C85B22846BDE8FE8F0098E7
:100ED0004044FA281DDD2A48007804F8010B681CFC
:100EE00085B2842004F8010B681C85B2022004F846
:100EF000010B681C85B229460298FFF71BFA0646CB
:100F000004F8016B300A04F8010BA81C85B22846CE
:100F1000DBE71B48007804F8010B681C85B204204D
:100F200004F8010B681C85B24FEA4860000E04F813
:100F3000010B681C85B24FF0000911E0009949448B
:100F400088B200F079FA83464FEA1B2004F8010BBF
:100F500004F801BBA81C85B209F101001FFA80F951
:100F6000C145EBDB29460298FFF7E4F9064604F891
:100F7000016B300A04F8010BA81C85B22846A4E7CF
:100F80006F0000202DE9F35F06460025B146019C65
:100F900099F802004FEA002B99F8030040EA0B0B86
:100FA00099F804004FEA002A99F8050040EA0A0A75
:100FB000BAF57F4F21D0BAF1000F1ED02F4800782C
:100FC00004F8010B681C85B2852004F8010B681C2D
:100FD00085B2032004F8010B681C85B229460198EC
:100FE000FFF7A8F9074604F8017B380A04F8010B5B
:100FF000A81C85B22846BDE8FC9FBBF1010F1DDB94
:101000001E48007804F8010B681C85B2852004F89E
:10101000010B681C85B2022004F8010B681C85B224
:1010200029460198FFF786F9074604F8017B380A3C
:1010300004F8010BA81C85B22846DCE7BAF57F4FFF
:1010400005D10BF0FF00012100F0D2F904E00BF014
:10105000FF00002100F0CCF94FF0000807E019F87C
:10106000080004F8080008F1010000F0FF08B8F1DA
:10107000080FF4DB08252846BDE700006F000020BC
:101080002DE9F35F06460025B146019C99F8020060
:101090004FEA002B99F8030040EA0B0B99F8040083
:1010A0004FEA002A99F8050040EA0A0ABAF5803F9B
:1010B0001EDB2A48007804F8010B681C85B28620E4
:1010C00004F8010B681C85B2032004F8010B681CAE
:1010D00085B229460198FFF72DF9074604F8017BF0
:1010E000380A04F8010BA81C85B22846BDE8FC9F0D
:1010F000BBF5AF7F1DDB1948007804F8010B681CB5
:1011000085B2862004F8010B681C85B2022004F821
:10111000010B681C85B229460198FFF70BF90746B9
:1011200004F8017B380A04F8010BA81C85B2284694
:10113000DCE75146584600F075F94FF0000807E02B
:1011400019F8080004F8080008F1010000F0FF0891
:10115000B8F1080FF4DB08252846C7E76F00002028
:101160002DE9F34F83B08146002002908246019022
:1011700000250090C846049C98F8020000020290E6
:1011800098F8030002990843029098F804004FEA87
:10119000002A98F8050040EA0A0A98F8060001902B
:1011A000BAF1010F07DBBAF17B0F04DC4FEA4A0109
:1011B000019881421FD03C48007804F8010B681C5C
:1011C00085B2902004F8010B681C85B2032004F856
:1011D000010B681C85B229460498FFF7ABF8064658
:1011E00004F8016B300A04F8010BA81C85B22846EC
:1011F00005B0BDE8F08F02985044B0F5AF7F1DDD1B
:101200002948007804F8010B681C85B2902004F886
:10121000010B681C85B2022004F8010B681C85B222
:1012200029460498FFF786F8064604F8016B300A51
:1012300004F8010BA81C85B22846D9E74FF0000B33
:10124000002718E008F1070010F80B0000020090DA
:1012500008F1080010F80B0000990843009002996B
:10126000394488B2009900F0DDF80BF102001FFA52
:1012700080FB781C87B25745E4DB002706E018F8AE
:101280000700E055681C85B2781C87B2062FF6DB94
:1012900029460498FFF74EF80646A671300AE07119
:1012A000A81C85B22846A3E76F00002002A000F02A
:1012B000CFFF00BFFEE70000204D656D4D616E6100
:1012C0006765204661756C7421200D0A00000000DE
:1012D0002DE9F04706460D463446042D01DABDE8F7
:1012E000F08720783A490978884202D0207800B106
:1012F000F5E74FF00008A81E81B22046FFF71AF864
:10130000804608F0FF094FEA182A681E205C504505
:1013100003D1A81E205C484500D0E0E700235A1EF8
:1013200019462C48006801F033FF6778042F26D057
:1013300006DC012F0BD0022F11D0032F3FD116E076
:10134000052F24D0062F2AD0102F38D12FE0224984
:101350003046FFF753FB214981F8000230E01E4977
:101360003046FFF715FC1D4981F8000228E01A49B4
:101370003046FFF7D5FC194981F8000220E01649F4
:101380003046FFF767FD154981F8000218E0124961
:101390003046FFF7F7FD114981F8000210E00E49D1
:1013A0003046FFF76DFE0D4981F8000208E00A495A
:1013B0003046FFF7D5FE094981F8000200E08EE7CC
:1013C00000BF064991F8000200F056FC00BF86E716
:1013D0006F00002004000020880100208800002009
:1013E0000146012901DA014A505C70476E00002075
:1013F000012801DA014A1154704700006E000020F4
:1014000001465A2901DA014A505C70476C490020B4
:101410000146B1F5AF7F02DA014A32F81100704798
:10142000BA4B0020B0F5AF7F02DA024A22F8101062
:1014300070470000BA4B00200146FA2902DA024A3E
:1014400032F8110070470000C649002002A000F0E9
:10145000FFFE00BFFEE70000204E4D4920466175AB
:101460006C7421200D0A000070B5002100230F22AA
:10147000C47804B3154C246804F4E064C4F5E06453
:10148000210AC1F10403CA40447804FA03F18478C4
:101490001440214309010E4C0678A155047804F04C
:1014A0001F050124AC4005786D11AD0005F1E02564
:1014B000C5F8004109E0047804F01F050124AC40A0
:1014C000044D0678761145F8264070BD0CED00E01D
:1014D00000E400E080E100E002490143024A1160BB
:1014E000704700000000FA050CED00E029B1064A43
:1014F00052690243044B5A6104E0034A5269824331
:10150000014B5A61704700000010024029B1064AA1
:10151000D2690243044BDA6104E0034AD269824390
:10152000014BDA61704700000010024029B1064A01
:1015300092690243044B9A6104E0034A9269824330
:10154000014B9A6170470000001002402DE9F04104
:1015500000210022002500230026002400278C46BD
:10156000DFF86081D8F8048008F00C0121B104296B
:1015700007D0082959D109E0DFF84C81C0F8008074
:1015800058E0DFF84881C0F8008053E0DFF834818C
:10159000D8F8048008F47012DFF82881D8F80480A5
:1015A00008F48035920C0D2A01D0921C00E006222E
:1015B00035B9DFF81C8102FB08F8C0F8008033E081
:1015C000DFF80081D8F82C8008F48036DFF8F4804A
:1015D000D8F82C8008F00F0808F1010446B9DFF8AC
:1015E000EC80B8FBF4F808FB02F8C0F800801BE0C0
:1015F000DFF8D080D8F82C80C8F3031808F1010771
:10160000DFF8C080D8F82C80C8F3032808F1020C5A
:10161000DFF8B880B8FBF7F808FB0CF8B8FBF4F873
:1016200008FB02F8C0F8008004E0DFF89C80C0F8F6
:10163000008000BF00BFDFF88C80D8F8048008F07D
:10164000F0010909DFF88C8018F80130D0F800802B
:1016500028FA03F8C0F80480DFF86880D8F804801E
:1016600008F4E061090ADFF86C8018F80130D0F85E
:10167000048028FA03F8C0F80880DFF84880D8F81A
:10168000048008F46051C90ADFF8488018F8013076
:10169000D0F8048028FA03F8C0F80C80DFF8248022
:1016A000D8F8048008F44041890BDFF82C8018F842
:1016B0000130D0F80C80B8FBF3F8C0F81080BDE81A
:1016C000F08100000010024000127A0040787D0195
:1016D00000093D00700000208000002000B585B0AA
:1016E00000F04CF800F028F80020ADF800004FF4AE
:1016F0008270ADF802000020ADF804000220ADF8C1
:1017000006000120ADF808004002ADF80A001820DC
:10171000ADF80C000020ADF80E000720ADF8100069
:101720006946044800F072F80121024800F062F8AE
:1017300005B000BD0030014008B5E020ADF8000064
:1017400003208DF8020018208DF80300694609482F
:10175000FEF752FF4FF40070ADF8000003208DF843
:10176000020010208DF8030069460348FEF744FF8D
:1017700008BD000000080140000C014010B5012127
:101780000420FFF7D3FE01210820FFF7CFFE01213F
:101790000846FFF7CBFE01210803FFF7C7FE10BD87
:1017A0000246002107E0481C81B24FF6FE708142DC
:1017B00001DB002070470E48008900F0020000287D
:1017C000F1D00B488281002107E0481C81B24FF61E
:1017D000FE70814201DB0020ECE70548008900F043
:1017E00001000028F1D002488089C0B2E2E7000081
:1017F0000030014021B1028842F04002028004E042
:1018000002884FF6BF731A400280704710B500225D
:10181000028802F441520B884C8823438C8823436E
:10182000CC8823430C8923434C8923438C8923434D
:10183000CC8923431A430280838B4FF2FF742340E9
:1018400083830B8A038210BD10B500F001F810BD30
:101850000CB50020019000903F48006840F48030B3
:101860003D49086000BF3C48006800F4003000902B
:101870000198401C0190009818B90198B0F5A06F2C
:10188000F1D13548006800F4003010B1012000901B
:1018900001E000200090009801285CD12F480068EA
:1018A00040F010002D4908600846006820F0030051
:1018B00008600846006840F002000860264840685A
:1018C000254948600846406848600846406840F43A
:1018D000806048600846C06A214908401E49C862C5
:1018E0000846C06A1F4908431B49C8620846006889
:1018F00040F08060086000BF1748006800F000609A
:101900000028F9D01448406820F47C10124948603F
:101910000846406840F4E81048600846006840F017
:101920008070086000BF0C48006800F0007000285C
:10193000F9D00948406820F003000749486008468C
:10194000406840F00200486000BF0348406800F073
:101950000C000828F9D10CBD001002400020024004
:1019600000F0FEFF4406010010B5002400F018F856
:1019700004464EF61470844201D1002010BD0120AF
:10198000FCE7000010B5FFF7A9FE00BF4FF400719F
:101990000248FEF707FF00BF10BD0000000C014029
:1019A00010B5002400BF4FF400711148FEF7F8FE97
:1019B00000BF9020FFF7F4FE0020FFF7F1FE0020AB
:1019C000FFF7EEFE0020FFF7EBFEFF20FFF7E8FE3B
:1019D00044EA0024FF20FFF7E3FE044300BF4FF476
:1019E00000710348FEF7DEFE00BF204610BD000078
:1019F000000C014010B51648006840F00100144981
:101A00000860084640681349084011494860084684
:101A10000068114908400E4908600846006820F433
:101A2000802008600846406820F4FE0048600846B0
:101A3000006820F0A05008604FF47F00886000200C
:101A4000C862FFF701FF4FF000600449086010BD55
:101A5000001002400000FFF0FFFFF6FE08ED00E07E
:101A600000BF00BF1048006880F004000E49086005
:101A700000BF00BF0846006880F00800086000BF93
:101A800000BF0846006880F01000086000BF00BF7B
:101A90000846006880F08000086000BF4FF47A704C
:101AA00001F000FADDE700000C14014000B585B03C
:101AB00000200190029003900490012000238022D6
:101AC00005A10090084801F035FD012801D000BFB4
:101AD000FEE705B000BD00005461736B5F4C6564A8
:101AE0005F546F67676C6500611A000838B505467A
:101AF0000024032000231A4619460090012001F01B
:101B000028FB194908600846006808B900BFFEE7CD
:101B10000021012001F000FB14490860084600681C
:101B200008B900BFFEE700BF00235A1E19460E4841
:101B3000006801F02DFB0128F6D10D48FEF706FDE7
:101B4000C0F5807084B204B938BD21460948FFF75A
:101B5000BFFB4FF480710648FEF723FD01210448C6
:101B6000FEF742FCE0E70000000000200400002037
:101B7000580002408800002000B585B00020019088
:101B8000029003900490052000234FF4807205A179
:101B90000090094801F0CEFC012801D000BFFEE70B
:101BA00005B000BD5461736B5F4D6F646275735F08
:101BB00050726F6365737300ED1A000810B5FFF77C
:101BC00075FFFFF7D9FF10BD00B58BB02648FEF7B3
:101BD00017FC264800902648019010200290000132
:101BE000039000200490802005900020069007902C
:101BF00008904FF44050099000200A9069461A4816
:101C0000FEF7B1FC00F002FB01220A211648FEF7A4
:101C1000A1FC00211448FEF7E7FB13481430FEF73F
:101C2000EFFB1248009013480190002002904FF4FF
:101C30008070039000200490802005900020069082
:101C4000079008904FF44050099000200A90694690
:101C500005481430FEF787FC012103481430FEF7D5
:101C6000C3FB0BB000BD000044000240043801403B
:101C7000880100208800002010B504460021054896
:101C8000FEF7B2FB03484438846401210148FEF7A3
:101C9000ABFB10BD4400024010B5002440F22441CB
:101CA000114800F0E6F9E8B10F480488001D0488E7
:101CB00000210E48FEF798FB00200D4908600D48F2
:101CC000006801F0D1FB0A48006801280AD10848E1
:101CD000006838B14FF0805007490860BFF34F8F5C
:101CE000BFF36F8F10BD0000003801405800024064
:101CF0000C0000200000002004ED00E01FB50446A9
:101D000000F076F800F056F8B4F5E13F03D8B4F5EA
:101D1000966F00D300940020ADF80C000C20ADF8B5
:101D20000A000020ADF80800ADF80600ADF8040088
:101D30006946164800F0ECF900F02AF8FFF744FF76
:101D4000002240F22661114800F0BDF9002240F265
:101D500025510E4800F0B7F9012240F224410B480A
:101D600000F0B1F901224021084800F06CF901228D
:101D70008021064800F067F90121044800F057F976
:101D80004021024800F04AF91FBD00000038014020
:101D900008B525208DF800000F208DF801000020E7
:101DA0008DF8020001208DF803006846FFF75CFB08
:101DB00008BD000008B518208DF803004FF400702E
:101DC000ADF8000003208DF8020069460748FEF7D1
:101DD00013FC48208DF803004FF48060ADF800003C
:101DE00069460248FEF708FC08BD000000080140F3
:101DF00010B501210846FFF779FB01210420FFF708
:101E000095FB01210846FFF791FB01218803FFF7AD
:101E10008DFB10BD00B58BB02648FEF7F1FA2648C1
:101E200000902648019010200290000103900020AD
:101E300004908020059000200690079008904FF4B1
:101E40004050099000200A9069461A48FEF78BFB23
:101E500000F0ECF901220A211648FEF77BFB002175
:101E60001448FEF7C1FA13481438FEF7C9FA1248AD
:101E7000009013480190002002904FF4807003906E
:101E80000020049080200590002006900790089084
:101E90004FF44050099000200A90694605481438D4
:101EA000FEF761FB012103481438FEF79DFA0BB0E1
:101EB00000BD000080000240044400408B0300206D
:101EC0008B02002010B5002440F224410A4800F0A3
:101ED000D0F880B108480488001D04880021074814
:101EE000FEF782FA4FF480710448FEF75AFB012195
:101EF0000248FEF779FA10BD004400406C00024031
:101F00001FB5044600F074F800F056F8B4F5E13F50
:101F100003D8B4F5966F00D300940020ADF80C0000
:101F20000C20ADF80A000020ADF80800ADF806005E
:101F3000ADF804006946164800F0EAF800F02AF807
:101F4000FFF768FF002240F22661114800F0BBF85D
:101F5000002240F225510E4800F0B5F8012240F26F
:101F600024410B4800F0AFF801224021084800F05E
:101F70006AF801228021064800F065F80121044832
:101F800000F055F84021024800F048F81FBD00005D
:101F90000044004008B526208DF800000F208DF881
:101FA000010000208DF8020001208DF80300684632
:101FB000FFF75AFA08BD000008B518208DF8030095
:101FC0002020ADF8000002208DF802006946074885
:101FD000FEF712FB48208DF803004020ADF800000A
:101FE00069460248FEF708FB08BD000000140140E6
:101FF00010B501210820FEF78BFB01210846FFF7F1
:1020000075FA01212020FFF791FA01210846FFF718
:102010008DFA01214804FFF779FA10BD01F400722E
:10202000B2F5007F00D100BFCA430280704721B1E2
:10203000828942F40052828104E082894DF6FF7366
:102040001A40828170471AB1838A0B43838202E06F
:10205000838A8B438382704702460020B1F5007F5C
:1020600000D100BF13880B400BB1012000E000201D
:10207000704770B50246002400230025002040F67A
:102080006A16B14200D100BFC1F3421501F01F032F
:10209000012606FA03F3012D02D19689334006E0AA
:1020A000022D02D1168A334001E0968A33400C1289
:1020B000012606FA04F41688344013B10CB101204D
:1020C00000E0002070BDF0B5034600240026002586
:1020D000002040F66A17B94200D100BF1846C1F38C
:1020E000421401F01F06012707FA06F5012C01D161
:1020F0000C3004E0022C01D1103000E014301AB191
:1021000007682F43076002E00768AF430760F0BD30
:102110002DE9F04786B005460E460024A24600BFD2
:10212000A1460027B08900B100BF2F462C8A4CF68B
:10213000FF700440F08804432C82AC894EF6F31003
:102140000440B08831890843718908430443AC8155
:10215000AC8A4FF6FF400440B0890443AC8201A82A
:10216000FFF7F4F91F48874202D1DDF810A001E023
:10217000DDF80CA0A88900F4004040B10AEBCA00C9
:1021800000EB0A1031684900B0FBF1F807E00AEBF8
:10219000CA0000EB0A1031688900B0FBF1F8642036
:1021A000B8FBF0F004012009642101FB1089A88923
:1021B00000F4004040B1322000EBC900B0FBF1F068
:1021C00000F00700044308E0322000EB091064210E
:1021D000B0FBF1F000F00F0004432C8106B0BDE825
:1021E000F087000000380140C1F308028280704788
:1021F00002A000F02DF800BFFEE7000055736167F4
:1022000065204661756C7421200D0A0008B50E200A
:102210008DF800008DF8010000208DF802000120EB
:102220008DF803006846FFF71FF908BD08B51120B7
:102230008DF800000E208DF8010000208DF80200BE
:1022400001208DF803006846FFF70EF908BD000075
:102250000FB4054B10B503A9044A029800F018F812
:1022600010BC5DF814FB0000292700088400002042
:1022700002E008C8121F08C1002AFAD1704770474F
:10228000002001E001C1121F002AFBD170470000AD
:102290002DE9FF4F8DB00F460546002606E02528A4
:1022A0000BD0DDE90F1290476D1C761C28780028B2
:1022B000F5D111B03046BDE8F08F0024A246A1460A
:1022C0000122EC4900E0044315F8013F203B02FAEB
:1022D00003F00842F7D128782A2810D06FF02F0297
:1022E0002878A0F13001092914D80AEB8A0102EB01
:1022F000410144F0020400EB010A6D1CF0E701CF3C
:102300005FEA000A03D544F40054CAF1000A44F01D
:1023100002046D1C28782E2817D115F8010F44F0FF
:1023200004042A280ED06FF02F022878A0F1300183
:1023300009290AD809EB890102EB410100EB0109E7
:102340006D1CF2E757F8049B6D1C28786C280FD0A1
:1023500006DC4C2817D068280DD06A2814D104E078
:10236000742810D07A280FD10DE044F400140AE04C
:1023700044F4801401E044F440146978814202D1AD
:1023800004F580146D1C6D1C2A786E2A1FD00CDC9D
:10239000632A31D004DC002A8BD0582A11D1A3E063
:1023A000642A68D0692A0CD165E0732A2ED004DC37
:1023B0006F2A73D0702A04D19BE0752A6FD0782AD7
:1023C0006ED01046DDE90F129047761C50E1C4F341
:1023D0000250022806D0032809D0042801CF09D0D2
:1023E000066045E101CFF117C0E9006140E101CF8E
:1023F00006803DE106703BE117F8040B8DF8000004
:1024000000208DF80100EB46012003E057F804BBE3
:102410004FF0FF3061074FF0000102D40DE008F1EA
:102420000101884649450FDA8045F8DB1BF80810A2
:102430000029F4D108E008F1010188468142FADB65
:102440001BF808100029F6D1DDE90F23AAEB0800DC
:102450008146214600F036F9304400EB080604E0DE
:10246000DDE90F121BF8010B9047B8F10108F7D214
:1024700021464846F7E00A21C4F302534FF0000B0F
:102480000891022B04D001CFC117032B09D00AE019
:10249000FF1D27F00707F7E8020108E032E01FE020
:1024A00020E000B2C117042B01D140B2C117031EB6
:1024B00071F1000307DA4FF0000CD0EB0C006CEB6D
:1024C00001012D2302E0230504D52B238DF82430B0
:1024D000012303E0E30701D02023F7E7984658E003
:1024E0000A2110E010210EE010204FF0000B0890A0
:1024F0000CE010214FF0000B44F004044FF00809E9
:10250000089103E008214FF0000B0891C4F3025337
:10251000022B04D001CF0021032B06D006E0FF1DC3
:1025200027F00707F7E8020103E080B2042B00D18F
:10253000C0B24FF0000823072BD5702A07D0DDF872
:1025400020C08CF0100C5CEA0B0C05D00EE0402390
:102550008DF82430012308E050EA010306D030232F
:102560008DF824308DF8252002239846DDF820C010
:102570008CF0080C5CEA0B0C0BD150EA010301D182
:10258000630706D530238DF824304FF00108A9F1F8
:102590000109582A04D038A20B9208AA0A920BE02B
:1025A0003AA2F9E75B46089AFDF74CFE0B9B9B5C51
:1025B0000A9A521E0A92137050EA0102F2D10A9846
:1025C000ADEB000000F1200B600702D524F480344D
:1025D00001E04FF00109D94502DDA9EB0B0000E055
:1025E000002000EB0B0141440890AAEB010AE00334
:1025F00006D4DDE90F232146504600F063F8064477
:102600004FF0000908E009A911F80900DDE90F12EF
:10261000904709F10109761CC145F4DBE0030CD5B4
:10262000DDE90F232146504600F04CF8064404E053
:10263000DDE90F1230209047761C0899481E08905B
:102640000029F5DC08E00A980A990078491C0A91EB
:10265000DDE90F129047761CBBF10001ABF1010BD5
:10266000F1DC21465046DDE90F2300F019F806445D
:102670006D1C1BE609280100303132333435363702
:1026800038396162636465660000000030313233BE
:10269000343536373839414243444546000000005E
:1026A0002DE9F041044600251E461746880404D44F
:1026B00005E039462020B0476D1C641EF9D5284638
:1026C000BDE8F0812DE9F041044600251E46904604
:1026D000C80301D5302700E02027880404D505E091
:1026E00041463846B0476D1C641EF9D52846BDE802
:1026F000F081000070B5044600255CB9FFF742F98F
:102700004FF4006007490880FFF72EF900B900E098
:10271000012501E0012500BF00BF0DB1012070BD02
:102720000020FCE76C00002070B504460D46E1B2C5
:102730000548FFF759FD00BF40210348FFF78CFC17
:102740000028F9D0204670BD00380140FFF736FA66
:10275000FEF734F800F03AFC00BFFEE770B505461E
:102760000E461D480068001D00F002FB50B91A48D3
:10277000006890F82C1001208840184909688143AE
:1027800016480160681C38B936B113480168091D44
:10279000134800F02BFB1EE01248006844190E4855
:1027A000006844600F480068844207D20A48016804
:1027B000091D0D48006800F0FFFA0CE006480168AA
:1027C000091D0A48006800F0F7FA094800688442C9
:1027D00001D20748046070BD140000202C000020C6
:1027E00058050020280000201C00002018000020B0
:1027F000440000202DE9F04707460D4690469946D3
:102800000DB9002601E007FB05F606F14C0000F0CB
:1028100027FA04461CB104F14C00C8F80000204619
:10282000BDE8F0872DE9F04107460D4690461DB9F9
:10283000B80000F015FA00E02846064686B1B8F167
:10284000000F03D1542000F00BFA00E0404604468C
:102850000CB1266305E025B9304600F0F5FA00E03A
:1028600000242046BDE8F08170B523E000F0E8FBCD
:102870001348006808B9012000E00020054600F078
:10288000F1FFBDB900F0BEFA0D48C068C468201D54
:1028900000F06EFA0B480068401E0A4908600A48BA
:1028A0000068401E0849086000F0BEFA204600F0AB
:1028B00062F800BF044800680028D7D170BD00004E
:1028C00044050020240000202000002070B50446AC
:1028D0000D46206C70B1216CE0680844E0606168CE
:1028E000E068884201D32068E0602846226CE168F5
:1028F000FDF796FC70BD2DE9F04104460E461546E5
:102900000027206C40B9206878BB606800F028FF81
:1029100007460020606028E07DB93146226CA0683F
:10292000FDF77EFC216CA0680844A060D4E901108A
:1029300088421AD32068A06017E03146226CE06814
:10294000FDF76EFC216CE068401AE0602168E068E9
:10295000884203D2216C6068401AE060022D04D1E5
:10296000A06B10B1A06B401EA063A06B401CA063C5
:102970003846BDE8F08110B50446206B00F064FADB
:10298000204600F061FA10BD30B54FF48843174877
:1029900000F007042CB1C01D20F00700134C041BED
:1029A0001B1B0246124C22600024114D6C60D01893
:1029B000083820F007000F4C206000240D4D2D68D2
:1029C0006C600C4D2D682C601146441A4C60094C0B
:1029D00024680C60084D4C682C60084D4C682C60D5
:1029E0004FF00044064D2C6030BD00006C05002007
:1029F0005000002058000020600000205C000020F3
:102A00006400002000BFFFF72FFF06480068012880
:102A1000F9D94FF0805004490860BFF34F8FBFF3DE
:102A20006F8FF0E79004002004ED00E02DE9F047FF
:102A300004460F4615469946DDF82080002607E03B
:102A4000B95D04F134008155B85D00B902E0761C2F
:102A5000102EF5D300BF002143200155062D00D3D1
:102A60000525E56265640020A064201D00F0A1F941
:102A700004F1180000F09DF92461C5F10600A06181
:102A800064620020E06484F85000BDE8F087000034
:102A900010B5002407E004EB84010F4A02EB81002B
:102AA00000F07AF9641C062CF5D30C4800F074F998
:102AB0000B4800F071F90B4800F06EF90A4800F07D
:102AC0006BF90A4800F068F90448094908600448AD
:102AD0000849086010BD000090040020080500208F
:102AE0001C0500203005002044050020580500206A
:102AF000180000201C00002010B50146164800E018
:102B0000006803688B42FBD30246436813448B4240
:102B100004D143684C682344436001460A464B682D
:102B200013440468A34211D10C4C03682468A342E7
:102B300008D04B680468646823444B6003681B68D2
:102B40000B6005E0054B1B680B6001E003680B6040
:102B5000884200D0016010BD5000002058000020C5
:102B600070B5054600F04EF9A86B08B9012400E0E5
:102B7000002400F059F9204670BD70B5054600F0FC
:102B800041F9A86BE96B884201D1012400E00024DF
:102B900000F04AF9204670BD0A490968096809B978
:102BA000012100E0002121B14FF0FF31064A116000
:102BB00006E004490968C968C868034A41681160A9
:102BC00070470000180000204400002000BFBF2014
:102BD00080F31188BFF34F8FBFF36F8F00BF00BF2B
:102BE000FEE710B5044600F00DF911E0606A08B97F
:102BF000012000E0002038B904F1240000F0F2FDCB
:102C000018B100F069F900E005E0A06C401EA06476
:102C1000A06C0028EADC00BF4FF0FF30A06400F099
:102C200003F900F0EFF811E0206908B9012000E095
:102C3000002050B904F1100000F0D4FD08B100F0FC
:102C40004BF9606C401E606400E002E0606C00289C
:102C5000EADC00BF4FF0FF30606400F0E5F810BD23
:102C60002DE9F04105464FF0000800F0E9F92B4846
:102C7000006808B9FFF788FE294800682840002846
:102C800047D145B1083505F0070020B105F0070030
:102C9000C0F108000544002D3BD022480068854261
:102CA00037D8214E3046046801E026462468606823
:102CB000A84202D220680028F7D118480068844250
:102CC00027D0306800F10808206830606068401B39
:102CD000102807D967196068401B7860656038461E
:102CE000FFF70AFF0F4960680968081A0D49086074
:102CF000084600680D490968884203D209480068FF
:102D00000A49086006496068096808436060002055
:102D1000206000F0A7FD4046BDE8F081580000208B
:102D2000640000205C0000205000002060000020B3
:102D30000648006830B10549096801F14800896C0E
:102D4000491C016001480068704700001400002021
:102D5000001F4FF080730360001F0160001F034BD2
:102D6000036014380260203870470000CD2B000843
:102D700001460A69D1E901309860D1E90103586040
:102D80005068884201D1886850600020086110684E
:102D9000401E10601068704700F1080141604FF05C
:102DA000FF31816000F10801C16001610021016013
:102DB000704700210161704710B502460B685C1C2A
:102DC0000CB9106907E002F1080000E040684468AF
:102DD00024689C42FAD944684C604C68A1608860C1
:102DE00041600A611468641C146010BD42684A6046
:102DF00093688B60936859609160086103685B1CFD
:102E00000360704700BFBF2080F31188BFF34F8F6E
:102E1000BFF36F8F00BF03480068401C0149086082
:102E2000704700006800002006480068401E054901
:102E300008600846006820B9002080F3118800BFB0
:102E400000BF70476800002070B506463546D6B111
:102E5000083D2C460C4960680968084098B1206814
:102E600088B90949606809688843606000F0E8F83B
:102E70000649606809680844044908602046FFF76D
:102E80003BFE00F0EFFC70BD640000205C00002001
:102E900003484FF0E02148610720086170470000B7
:102EA0003F19010070B50446002544B100F0C8F890
:102EB00000212046FFF752FC00F0D4FC05463DB946
:102EC0004FF0805003490860BFF34F8FBFF36F8FFF
:102ED00070BD000004ED00E001200149086070476A
:102EE0003800002070B505460C46054801681831C9
:102EF0002846FFF761FF01212046FFF72FFC70BD38
:102F00001400002070B505462C46002D4BD02649F4
:102F1000E06A0968C96A884245D2A06900F00040A9
:102F200028B921480068C06AC0F10600A061E16AC2
:102F300001EB81011D4A02EB81016069884201D1E8
:102F4000012000E0002050B3201DFFF711FF78B9E9
:102F5000E06A00EB8000154951F8200040B994F870
:102F60002C100120884012490968814310480160F3
:102F70000D480068C06AE06294F82C100120884077
:102F80000B49096808430A490860E16A01EB8101BD
:102F9000064A02EB8100211DFFF728FF03E00248EB
:102FA0000068C06AE06270BD140000209004002038
:102FB0002C00002003490968016003490968416049
:102FC000704700003C00002028000020F0B585B0CC
:102FD00000250026802700201249CDE90350034632
:102FE0003A468DE8430010A1114800F0A3FA0446C8
:102FF000012C14D100BFBF2080F31188BFF34F8F85
:10300000BFF36F8F00BF4FF0FF300A490860012007
:103010000949086000200949086000F049F805B036
:10302000F0BD00004800002049444C45000000006D
:10303000052A00084400002030000020280000205D
:1030400002480068401C0149086070474C0000209D
:103050001248006818B10120114908601DE00020E5
:103060000F4908600F480068B0FA80F0C0F11F01F6
:1030700001EB81020C4B03EB820042685268426014
:1030800000F108024368934202D1426852684260EC
:103090004268D268054B1A6000BF70474C000020A0
:1030A000380000202C000020900400201400002094
:1030B00010B50A48006840F47F00084908600846D7
:1030C000006840F07F400860FFF7E2FE00200449FE
:1030D0000860FDF759F8002010BD000020ED00E069
:1030E0006800002010B500BFBF2080F31188BFF337
:1030F0004F8FBFF36F8F00BF00F0A2FA18B14FF0EF
:1031000080500449086000BF002080F3118800BF90
:1031100010BD000004ED00E02DE9F84305460E4621
:1031200001274FF000083346002211460120009588
:1031300000F00FF804464CB1002060602060E060B1
:1031400000231A461946204600F006F92046BDE83D
:10315000F8832DE9FF4106460D461F46DDF828801D
:103160003B4602AA29463046FFF744FB044654B1C9
:103170000DB9246001E002982060E6632564012116
:10318000204600F0ABF8204604B0BDE8F081000016
:103190002DE9FF4383B0054688461E464FF00009DF
:1031A0002C4600BFFFF72EFEA06B00283BD0E7683F
:1031B00041462046FFF78AFBDEB9A06B401EA063A4
:1031C000206810B9FFF7B4FD6060206908B90120DC
:1031D00000E0002008BB04F1100000F003FBE0B1A8
:1031E0004FF080503C490860BFF34F8FBFF36F8FA3
:1031F00013E0E760606A08B9012000E0002060B9D0
:1032000004F1240000F0EEFA38B14FF0805032495A
:103210000860BFF34F8FBFF36F8FFFF705FE0120EC
:1032200007B0BDE8F083059818B9FFF7FDFD002051
:10323000F6E7B9F1000F04D101A8FFF7BBFE4FF08C
:103240000109FFF7F1FDFFF7FBFEFFF7DBFD606C07
:10325000401C08B900206064A06C401C08B9002024
:10326000A064FFF7E1FD05A901A800F035F938BB1E
:103270002046FFF775FCE8B1206830B9FFF7C2FDC2
:103280006068FFF73FFEFFF7CFFD04F124000599CA
:10329000FFF728FE2046FFF7A4FC00F0E3FA002821
:1032A00080D14FF080500C490860BFF34F8FBFF3BF
:1032B0006F8F77E72046FFF794FC00F0D3FA71E7B1
:1032C0002046FFF78EFC00F0CDFA2046FFF748FCC1
:1032D0000028EED00020A3E704ED00E070B505461D
:1032E0000E462C46FFF78EFDD4E90F12206801FB35
:1032F000020060600020A0632068A060E06B401EB8
:10330000226C216800FB0210E0604FF0FF30606427
:10331000A0649EB9206908B9012000E00020A8B986
:1033200004F1100000F05EFA80B14FF080500949BE
:103330000860BFF34F8FBFF36F8F07E004F11000F9
:10334000FFF72AFD04F12400FFF726FDFFF76CFDCF
:10335000012070BD04ED00E02DE9FF4383B0074676
:1033600088461D464FF000093C4600BFFFF74AFD66
:10337000A06BE16B884201D3022D28D12A46414639
:103380002046FFF7B8FA0646606A08B9012000E057
:10339000002068B904F1240000F024FA88B14FF04D
:1033A000805030490860BFF34F8FBFF36F8F08E044
:1033B0003EB14FF080502B490860BFF34F8FBFF3F1
:1033C0006F8FFFF731FD012007B0BDE8F08305984E
:1033D00018B9FFF729FD0020F6E7B9F1000F04D175
:1033E00001A8FFF7E7FD4FF00109FFF71DFDFFF70B
:1033F00027FEFFF707FD606C401C08B900206064E1
:10340000A06C401C08B90020A064FFF70DFD05A9C1
:1034100001A800F061F8F0B92046FFF7AEFBA0B1BB
:1034200004F110000599FFF75DFD2046FFF7D9FB79
:1034300000F018FA002899D14FF08050094908602F
:10344000BFF34F8FBFF36F8F90E72046FFF7C9FBA5
:1034500000F008FA8AE72046FFF7C3FB00F002FA03
:103460000020B1E704ED00E02DE9F04105460E46ED
:103470002C4600BFBF21EFF3118081F31188BFF309
:103480004F8FBFF36F8F00BF8046A06BE16B884208
:1034900019D2A06B401CA063A06C401C70B9606A7C
:1034A00008B9012000E0002058B904F1240000F020
:1034B00099F930B12EB10120306002E0A06C401CBF
:1034C000A064012700E0002700BF88F3118800BF37
:1034D0003846BDE8F081000070B504460D46FFF7A0
:1034E00091FC124802682868401C08B9002619E0BF
:1034F0000F4920680968884204D06068904201D86A
:1035000001260FE06068101A2968884209D22868ED
:103510006168511A401A28602046FFF74BFD0026CB
:1035200000E00126FFF780FC304670BD2800002037
:103530003C0000202DE9FF4F81B08046154699469A
:10354000DDE90E7A2846DDE91012FFF76BF9044633
:10355000002C4FD0681E216B01EB800B2BF0070B6A
:1035600000953A462046129B0299FFF75FFA4A46B9
:1035700041465846FFF7ECFB2060BAF1000F01D03E
:10358000CAF80040FFF73EFC26480068401C254969
:1035900008602548006840B9234804600846006870
:1035A00001280CD1FFF774FA09E02048006830B90F
:1035B0001D480068C06AB84201D81B4804601C4816
:1035C0000068401C1A49086094F82C1001208840BB
:1035D00018490968084317490860E16A01EB81014D
:1035E000154A02EB8100211DFFF700FC0126FFF7C1
:1035F0001BFC01E04FF0FF36012E0ED10B48006896
:1036000058B109480068C06AB84206D230070B4971
:103610000860BFF34F8FBFF36F8F304605B0BDE832
:10362000F08F000024000020140000203000002053
:10363000400000202C0000209004002004ED00E059
:103640002DE9F04100273B480068002865D13A4841
:103650000068401C38490860084606688EB937483B
:10366000D0F8008036480068344908603448C0F813
:10367000008034480068401C32490860FFF78CFA2B
:1036800000BF3148006886423BD300BF2B4800682A
:10369000006808B9012000E0002020B14FF0FF30A1
:1036A000294908602CE025480068C068C46865683E
:1036B000AE4202D22448056022E0201DFFF758FBED
:1036C000A06A18B104F11800FFF752FB94F82C100F
:1036D000012088401D49096808431C490860E16AC7
:1036E00001EB81011A4A02EB8100211DFFF77EFBED
:1036F0001849E06A0968C96A8842C7D30127C5E743
:1037000000BF14480068C06A00EB8000104951F8FF
:103710002000012806D9012704E00F480068401C5A
:103720000D4908600D48006800B101273846BDE822
:10373000F08100004C00002028000020180000202C
:103740001C0000203C000020440000202C00002031
:1037500090040020140000203400002038000020D5
:1037600070B505462C460026ADB3A06C401EA06483
:10377000616CE06A88422ED0A06C60BB201DFFF710
:10378000F7FA78B9E06A00EB8000144951F820009C
:1037900040B994F82C1001208840114909688143F0
:1037A0000F480160606CE062E06AC0F10600A06151
:1037B00094F82C10012088400949096808430849F9
:1037C0000860E16A01EB8101044A02EB8100211DDE
:1037D000FFF70CFB0126304670BD0000900400206E
:1037E0002C00002070B50646F068C46804F118008B
:1037F000FFF7BEFA15480068A8B9201DFFF7B8FA10
:1038000094F82C1001208840114909680843104998
:103810000860E16A01EB81010E4A02EB8100211D83
:10382000FFF7E4FA04E004F118010B48FFF7DEFAB1
:103830000A49E06A0968C96A884204D90125012059
:103840000749086000E00025284670BD4C000020B4
:103850002C000020900400203005002014000020DF
:103860003800002070B500240025FFF7CBFA30485F
:103870000068401E2E49086008460068002852D1A2
:103880002C48006800284ED024E02B48C068C4684B
:1038900004F11800FFF76CFA201DFFF769FA94F89D
:1038A0002C100120884025490968084323490860F5
:1038B000E16A01EB8101224A02EB8100211DFFF741
:1038C00095FA2049E06A0968C96A884202D3012052
:1038D0001D4908601848006808B9012000E0002070
:1038E0000028D2D00CB1FFF757F91848006878B11A
:1038F0000AE0FFF7A5FE10B1012013490860134844
:103900000068401E11490860104800680028F0D186
:103910000D48006838B1012528070D490860BFF33C
:103920004F8FBFF36F8FFFF77FFA284670BD0000FF
:103930004C00002024000020300500202C00002036
:1039400090040020140000203800002034000020E3
:1039500004ED00E074390008000000208800000039
:1039600070220008FC39000888000020F051000097
:10397000802200080000000000000000000000009D
:103980000000000000000000000000000000000037
:103990000000000000000000000000000000000027
:1039A0000000000000000000000000000000000017
:1039B0000000000000000000000000000000000007
:1039C00000000000000000000000000000000000F7
:1039D000000000000000000000000000AAAAAAAA3F
:1039E00000100001000000000102030401020304B2
:0C39F00006070809020406080000000099
:04000005080001519D
:00000001FF
