:020000040800F2
:10000000804B0020850200088D0200088F02000846
:100010009102000893020008950200080000000009
:10002000000000000000000000000000ED010008DA
:10003000990200080000000031020008150E0008B7
:100040009F0200089F0200089F0200089F0200080C
:100050009F0200089F0200089F0200089F020008FC
:100060009F0200089F0200089F0200089F020008EC
:100070009F0200089F0200089F0200089F020008DC
:100080009F0200089F0200089F0200089F020008CC
:100090009F0200089F0200089F0200089F020008BC
:1000A0009F0200089F0200089F0200089F020008AC
:1000B0009F0200089F0200089F0200089F0200089C
:1000C0009F0200089F0200089F0200089F0200088C
:1000D0009F0200089F0200089F0200089F0200087C
:1000E0009F0200089F0200089F0200080000000015
:1000F0000000000000000000000000000000000000
:1001000000000000000000009F0200089F0200089D
:100110009F0200089F0200089F0200089F0200083B
:100120009F0200089F0200089F0200089F0200082B
:100130009F0200089F0200089F0200089F0200081B
:100140009F0200089F0200089F0200089F0200080B
:1001500000F002F800F03AF80AA090E8000C82449F
:100160008344AAF10107DA4501D100F02FF8AFF27C
:10017000090EBAE80F0013F0010F18BFFB1A43F085
:1001800001031847E00F000000100000103A24BFE0
:1001900078C878C1FAD8520724BF30C830C144BFEC
:1001A00004680C607047000000230024002500262E
:1001B000103A28BF78C1FBD8520728BF30C148BFCA
:1001C0000B6070471FB51FBD10B510BD00F07DF866
:1001D0001146FFF7F7FF00F0A5FA00F09BF803B413
:1001E000FFF7F2FF03BC00F09FF80000224B1968F4
:1001F0000868B0E8F00F80F30988BFF36F8F4FF005
:10020000000080F311884EF00D0E704700000000D2
:1002100006480068006880F3088862B661B6BFF3DC
:100220004F8FBFF36F8F00DF00BF00BF08ED00E00E
:10023000EFF30980BFF36F8F0F4B1A6820E9F00FBF
:10024000106008B54FF0BF0080F31188BFF34F8FE7
:10025000BFF36F8F00F094FD4FF0000080F3118822
:10026000BDE8084019680868B0E8F00F80F3098815
:10027000BFF36F8F704700BF00000020EFF30580D1
:10028000704700000948804709480047FEE7FEE73D
:10029000FEE7FEE7FEE7FEE7FEE7FEE7FEE7FEE736
:1002A00004480549054A064B70470000250600082A
:1002B0005101000880450020804B0020804700202D
:1002C00080470020704770477047754600F028F857
:1002D000AE4605006946534620F00700854618B033
:1002E00020B5FFF7DDFFBDE820404FF000064FF0DE
:1002F00000074FF000084FF0000B21F00701AC465B
:10030000ACE8C009ACE8C009ACE8C009ACE8C00979
:100310008D4670470446AFF300802046FFF75FFF2D
:10032000004870472045002001491820ABBEFEE779
:100330002600020070472DE9F04102460025002604
:10034000002000230024002791F803C00CF00F05C3
:1003500091F803C00CF0100CBCF1000F03D091F821
:1003600002C04CEA050591F800C0BCF1000F31D085
:10037000146800202BE04FF0010C0CFA00F3B1F8E8
:1003800000C00CEA03069E4220D183004FF00F0C00
:100390000CFA03F7BC4305FA03FC4CEA040491F899
:1003A00003C0BCF1280F06D14FF0010C0CFA00FC81
:1003B000C2F814C00AE091F803C0BCF1480F05D19F
:1003C0004FF0010C0CFA00FCC2F810C0401C0828C9
:1003D000D1D31460B1F800C0BCF1FF0F34DD546814
:1003E00000202EE000F1080C4FF0010808FA0CF391
:1003F000B1F800C00CEA03069E4221D183004FF001
:100400000F0C0CFA03F7BC4305FA03FC4CEA040496
:1004100091F803C0BCF1280F05D100F1080C08FACF
:100420000CF8C2F8148091F803C0BCF1480F07D152
:1004300000F1080C4FF0010808FA0CF8C2F810801F
:10044000401C0828CED35460BDE8F08110B500F000
:1004500001F810BD08B50121202000F043F8042068
:10046000ADF8000010208DF8030003208DF8020085
:1004700069461B48FFF75FFF0121202000F032F89A
:100480000820ADF8000010208DF8030003208DF83F
:10049000020069461248FFF74EFF0121202000F0BC
:1004A00021F81020ADF800008DF8030003208DF82E
:1004B000020069460A48FFF73EFF0121202000F0B4
:1004C00011F88020ADF8000010208DF80300032003
:1004D0008DF8020069460248FFF72DFF08BD0000B5
:1004E0000014014029B1064A92690243044B9A6103
:1004F00004E0034A92698243014B9A61704700000D
:100500000010024010B500F001F810BD0CB500203D
:10051000019000903F48006840F480303D490860F9
:1005200000BF3C48006800F4003000900198401C77
:100530000190009818B90198B0F5A06FF1D1354835
:10054000006800F4003010B10120009001E00020AC
:100550000090009801285CD12F48006840F01000FE
:100560002D4908600846006820F00300086008462E
:10057000006840F00200086026484068254948604D
:100580000846406848600846406840F4806048601B
:100590000846C06A214908401E49C8620846C06A28
:1005A0001F4908431B49C8620846006840F0806044
:1005B000086000BF1748006800F000600028F9D00C
:1005C0001448406820F47C1012494860084640688E
:1005D00040F4E81048600846006840F08070086009
:1005E00000BF0C48006800F000700028F9D00948EE
:1005F000406820F00300074948600846406840F022
:100600000200486000BF0348406800F00C00082862
:10061000F9D10CBD001002400020024000F0FEFFA6
:100620004406010010B51648006840F00100144966
:100630000860084640681349084011494860084668
:100640000068114908400E4908600846006820F417
:10065000802008600846406820F4FE004860084694
:10066000006820F0A05008604FF47F0088600020F0
:10067000C862FFF747FF4FF000600449086010BDF3
:10068000001002400000FFF0FFFFF6FE08ED00E062
:1006900000BF00BF1048006880F004000E490860E9
:1006A00000BF00BF0846006880F00800086000BF77
:1006B00000BF0846006880F01000086000BF00BF5F
:1006C0000846006880F08000086000BF4FF47A7030
:1006D00000F0FAFADDE700000C14014000B585B027
:1006E00000200190029003900490012000238022BA
:1006F00005A10090084800F0A7FB012801D000BF29
:10070000FEE705B000BD00005461736B5F4C65648B
:100710005F546F67676C65009106000810B5FFF7BE
:10072000DDFF10BDFFF7FAFFFFF790FE00F0E6FADD
:1007300000BFFEE770B505460E461D480068001D67
:1007400000F028FA50B91A48006890F82C100120DF
:10075000884018490968814316480160681C38B907
:1007600036B113480168091D134800F051FA1EE024
:100770001248006844190E48006844600F48006839
:10078000844207D20A480168091D0D48006800F03C
:1007900025FA0CE006480168091D0A48006800F0C7
:1007A0001DFA09480068844201D20748046070BD00
:1007B00000000020180000200C0100201400002080
:1007C0000800002004000020300000202DE9F04146
:1007D00007460D4690461DB9B80000F063F900E0E9
:1007E0002846064686B1B8F1000F03D14C2000F030
:1007F00059F900E0404604460CB1266305E025B9EE
:10080000304600F033FA00E000242046BDE8F081D5
:1008100070B523E000F0ACFA1348006808B9012075
:1008200000E00020054600F025FCBDB900F0FCF911
:100830000D48C068C468201D00F0ACF90B48006882
:10084000401E0A4908600A480068401E08490860BE
:1008500000F0FCF9204600F00DF800BF04480068E5
:100860000028D7D170BD0000F80000201000002043
:100870000C00002010B50446206B00F0F7F920466C
:1008800000F0F4F910BD000030B54FF4884317486C
:1008900000F007042CB1C01D20F00700134C041B0E
:1008A0001B1B0246124C22600024114D6C60D018B4
:1008B000083820F007000F4C206000240D4D2D68F3
:1008C0006C600C4D2D682C601146441A4C60094C2C
:1008D00024680C60084D4C682C60084D4C682C60F6
:1008E0004FF00044064D2C6030BD00002001002078
:1008F0003C000020440000204C0000204800002064
:100900005000002000BFFFF783FF06480068012861
:10091000F9D94FF0805004490860BFF34F8FBFF3FF
:100920006F8FF0E75800002004ED00E02DE9F0475C
:1009300004460F4616469946DDF82080002507E05C
:10094000795D04F134004155785D00B902E06D1C19
:10095000102DF5D300BF002143200155052E00D3F3
:100960000426E662201D00F036F904F1180000F0BC
:1009700032F92461C6F10500A06164620020606460
:1009800084F84800BDE8F08710B5002407E004EBC8
:1009900084010F4A02EB810000F010F9641C052C61
:1009A000F5D30C4800F00AF90B4800F007F90B48A2
:1009B00000F004F90A4800F001F90A4800F0FEF8D6
:1009C00004480949086004480849086010BD00004F
:1009D00058000020BC000020D0000020E4000020CF
:1009E000F80000200C010020040000200800002076
:1009F00010B50146164800E0006803688B42FBD33F
:100A00000246436813448B4204D143684C68234434
:100A1000436001460A464B6813440468A34211D15F
:100A20000C4C03682468A34208D04B6804686468CF
:100A300023444B6003681B680B6005E0054B1B6893
:100A40000B6001E003680B60884200D0016010BDBC
:100A50003C000020440000200A490968096809B9DF
:100A6000012100E0002121B14FF0FF31064A116061
:100A700006E004490968C968C868034A416811600A
:100A800070470000040000203000002000BFBF209D
:100A900080F31188BFF34F8FBFF36F8F00BF00BF8C
:100AA000FEE700002DE9F04105464FF0000800F098
:100AB0005FF92B48006808B9FFF7E6FE294800688F
:100AC0002840002847D145B1083505F0070020B17E
:100AD00005F00700C0F108000544002D3BD0224876
:100AE0000068854237D8214E3046046801E026462A
:100AF00024686068A84202D220680028F7D118480C
:100B00000068844227D0306800F10808206830600F
:100B10006068401B102807D967196068401B78601F
:100B200065603846FFF764FF0F4960680968081A76
:100B30000D490860084600680D490968884203D2DB
:100B4000094800680A49086006496068096808435E
:100B500060600020206000F08DFA4046BDE8F08122
:100B60004400002050000020480000203C000020ED
:100B70004C000020001F4FF080730360001F0160D5
:100B8000001F034B036014380260203870470000D8
:100B90008D0A000801460A69D1E901309860D1E95F
:100BA000010358605068884201D188685060002075
:100BB00008611068401E10601068704700F108015D
:100BC00041604FF0FF31816000F10801C1600161B7
:100BD00000210160704700210161704710B5024695
:100BE0000B685C1C0CB9106907E002F1080000E01A
:100BF0004068446824689C42FAD944684C604C6858
:100C0000A160886041600A611468641C146010BDB2
:100C100042684A6093688B6093685960916008618C
:100C200003685B1C0360704700BFBF2080F311881E
:100C3000BFF34F8FBFF36F8F00BF03480068401CA6
:100C40000149086070470000540000200648006811
:100C5000401E054908600846006820B9002080F35E
:100C6000118800BF00BF70475400002070B50646D1
:100C70003546D6B1083D2C460C49606809680840E5
:100C800098B1206888B9094960680968884360603C
:100C900000F06EF806496068096808440449086075
:100CA0002046FFF7A5FE00F0E5F970BD50000020DA
:100CB0004800002003484FF0E02148610720086108
:100CC000704700003F19010070B50446002544B18B
:100CD00000F04EF800212046FFF72CFD00F0CAF985
:100CE00005463DB94FF0805003490860BFF34F8F70
:100CF000BFF36F8F70BD000004ED00E0F0B585B06C
:100D000000250026802700201249CDE90350034624
:100D10003A468DE8430010A1114800F095F80446CA
:100D2000012C14D100BFBF2080F31188BFF34F8F77
:100D3000BFF36F8F00BF4FF0FF300A4908600120FA
:100D40000949086000200949086000F049F805B029
:100D5000F0BD00003400002049444C450000000074
:100D600005090008300000201C00002014000020AD
:100D700002480068401C01490860704738000020A4
:100D80001248006818B10120114908601DE00020D8
:100D90000F4908600F480068B0FA80F0C0F11F01E9
:100DA00001EB81020C4B03EB820042685268426007
:100DB00000F108024368934202D1426852684260DF
:100DC0004268D268054B1A6000BF704738000020A7
:100DD00024000020180000205800002000000020FF
:100DE00010B50A48006840F47F00084908600846CA
:100DF000006840F07F400860FFF75CFF0020044976
:100E00000860FFF705FA002010BD000020ED00E0AB
:100E10005400002010B500BFBF2080F31188BFF33D
:100E20004F8FBFF36F8F00BF00F094F818B14FF0F1
:100E300080500449086000BF002080F3118800BF83
:100E400010BD000004ED00E02DE9FF4F81B08046A9
:100E500015469946DDE90E7A2846DDE91012FFF7BE
:100E6000B5FC0446002C4FD0681E216B01EB800BB3
:100E70002BF0070B00953A462046129B0299FFF78C
:100E800055FD4A4641465846FFF774FE2060BAF1C8
:100E9000000F01D0CAF80040FFF7C6FE26480068E0
:100EA000401C254908602548006840B92348046073
:100EB0000846006801280CD1FFF766FD09E02048CC
:100EC000006830B91D480068C06AB84201D81B48A4
:100ED00004601C480068401C1A49086094F82C10F3
:100EE0000120884018490968084317490860E16AE9
:100EF00001EB8101154A02EB8100211DFFF788FEFD
:100F00000126FFF7A3FE01E04FF0FF36012E0ED1C0
:100F10000B48006858B109480068C06AB84206D258
:100F200030070B490860BFF34F8FBFF36F8F304618
:100F300005B0BDE8F08F0000100000200000002088
:100F40001C0000202C000020180000205800002069
:100F500004ED00E02DE9F04100273B48006800283F
:100F600065D13A480068401C384908600846066860
:100F70008EB93748D0F80080364800683449086098
:100F80003448C0F8008034480068401C324908608A
:100F9000FFF762FD00BF3148006886423BD300BFC7
:100FA0002B480068006808B9012000E0002020B14B
:100FB0004FF0FF30294908602CE025480068C068E0
:100FC000C4686568AE4202D22448056022E0201D54
:100FD000FFF7E0FDA06A18B104F11800FFF7DAFD91
:100FE00094F82C10012088401D49096808431C49C9
:100FF0000860E16A01EB81011A4A02EB8100211DC0
:10100000FFF706FE1849E06A0968C96A8842C7D333
:101010000127C5E700BF14480068C06A00EB8000E4
:10102000104951F82000012806D9012704E00F4893
:101030000068401C0D4908600D48006800B1012798
:101040003846BDE8F0810000380000201400002080
:1010500004000020080000202800002030000020AC
:101060001800002058000020000000202000002070
:101070002400002070B500240025FFF7D5FD30487E
:101080000068401E2E49086008460068002852D1BA
:101090002C48006800284ED024E02B48C068C46863
:1010A00004F11800FFF776FD201DFFF773FD94F89B
:1010B0002C1001208840254909680843234908600D
:1010C000E16A01EB8101224A02EB8100211DFFF759
:1010D0009FFD2049E06A0968C96A884202D301205D
:1010E0001D4908601848006808B9012000E0002088
:1010F0000028D2D00CB1FFF7AFFC1848006878B1D7
:101100000AE0FFF727FF10B10120134908601348D8
:101110000068401E11490860104800680028F0D19E
:101120000D48006838B1012528070D490860BFF354
:101130004F8FBFF36F8FFFF789FD284670BD00000A
:101140003800002010000020E400002018000020DB
:101150005800002000000020240000202000002073
:1011600004ED00E084110008000000205800000099
:101170008C010008DC11000858000020284B0000FA
:10118000A8010008000000000000000000000000AE
:10119000000000000000000000000000000000004F
:1011A000000000000000000000000000000000003F
:1011B000000000000000000000000000000000002F
:1011C000000000000000000000000000000000001F
:0C11D0000000000000000000AAAAAAAA6B
:04000005080001519D
:00000001FF
