:020000040800F2
:10000000404D0020FD01000805020008070200081D
:10001000090200080B0200080D02000800000000A1
:100020000000000000000000000000006501000862
:100030001102000800000000A9010008451900088D
:10004000170200081702000817020008170200082C
:10005000170200081702000817020008170200081C
:1000600017020008170200081702000855020008CE
:100070007502000895020008B5020008D5020008C4
:10008000F50200081503000817020008170200080F
:1000900017020008170200081702000817020008DC
:1000A00017020008170200081702000817020008CC
:1000B00017020008170200081702000817020008BC
:1000C00017020008170200081702000817020008AC
:1000D000170200081702000817020008170200089C
:1000E00017020008170200081702000800000000AD
:1000F0000000000000000000000000000000000000
:1001000000000000000000001702000817020008AD
:10011000170200081702000817020008170200085B
:10012000350300085503000879030008170200088A
:100130009D030008170200081702000817020008B4
:10014000170200081702000817020008170200082B
:10015000DFF80CD000F064F80048004721120008D6
:10016000404D0020224B19680868B0E8F00F80F37A
:100170000988BFF36F8F4FF0000080F311884EF0B5
:100180000D0E70470000000006480068006880F30C
:10019000088862B661B6BFF34F8FBFF36F8F00DF81
:1001A00000BF00BF08ED00E0EFF30980BFF36F8FE1
:1001B0000F4B1A6820E9F00F106008B54FF0BF0030
:1001C00080F31188BFF34F8FBFF36F8F01F070FB87
:1001D0004FF0000080F31188BDE8084019680868F6
:1001E000B0E8F00F80F30988BFF36F8F704700BF4E
:1001F00000000020EFF305807047000006488047AC
:1002000006480047FEE7FEE7FEE7FEE7FEE7FEE7FB
:10021000FEE7FEE7FEE7FEE7550B00085101000888
:10022000064C074D06E0E06840F0010394E8070043
:1002300098471034AC42F6D3FFF78EFF941C0008A9
:10024000B41C000810B54FF4407000F0F1FA10BD76
:100250007047000010B50548006800F00F0403481F
:1002600044602046FFF7F4FF10BD0000000002408C
:100270007047000010B505480068C0F30314200162
:10028000024948602046FFF7F3FF10BD000002401E
:100290007047000010B505480068C0F30324200231
:1002A000024948602046FFF7F3FF10BD00000240FE
:1002B0007047000010B505480068C0F30334200300
:1002C000024948602046FFF7F3FF10BD00000240DE
:1002D0007047000010B505480068C0F303442004CF
:1002E000024948602046FFF7F3FF10BD00000240BE
:1002F0007047000010B505480068C0F3035420059E
:10030000024948602046FFF7F3FF10BD000002409D
:100310007047000010B505480068C0F3036420066C
:10032000024948602046FFF7F3FF10BD000002407D
:100330007047000010B50548006800F00F0403483E
:10034000001D04602046FFF7F3FF10BD00040240CB
:100350007047000010B506480068C0F30314200180
:100360000349091D08602046FFF7F2FF10BD000099
:10037000000402407047000010B506480068C0F352
:10038000032420020349091D08602046FFF7F2FFFD
:1003900010BD0000000402407047000010B5064880
:1003A0000068C0F3034420040349091D0860204687
:1003B000FFF7F2FF10BD00000004024021B1026807
:1003C00042F00102026004E002684FF6FE731A4038
:1003D0000260704701684FF6FE7211400160002113
:1003E000016041608160C1604B49884208D14A493F
:1003F0000839496841F00F01474A083A51608AE0DC
:1004000045491431884208D143490839496841F0C7
:10041000F001414A083A51607DE03F492831884265
:1004200008D13D490839496841F470613A4A083AAF
:10043000516070E038493C31884208D1364908396A
:10044000496841F47041344A083A516063E03249E6
:100450005031884208D130490839496841F4702147
:100460002D4A083A516056E02B496431884208D140
:1004700029490839496841F47001274A083A51600E
:1004800049E025497831884208D12349083949682B
:1004900041F07061204A083A51603CE01F498842AF
:1004A00006D1011F096841F00F01021F116032E0FF
:1004B0001A491431884208D11849091F096841F0C6
:1004C000F001164A121F116025E0144928318842B4
:1004D00008D11249091F096841F470610F4A121FBF
:1004E000116018E00D493C31884208D10B49091FC1
:1004F000096841F47041094A121F11600BE0074975
:100500005031884207D10549091F096841F470211B
:10051000024A121F1160704708000240080402409E
:100520001AB103680B43036002E003688B43036066
:10053000704710B50022026847F6F0739A430C6AC0
:100540008B6823430C6923434C6923438C69234301
:10055000CC6923434C6A23438C6A23431A430260C9
:10056000CB6843600B6883604B68C36010BD2DE9A6
:10057000F041024600250026002000230024002729
:1005800091F803C00CF00F0591F803C00CF0100CAB
:10059000BCF1000F03D091F802C04CEA050591F8B8
:1005A00000C0BCF1000F31D0146800202BE04FF0E8
:1005B000010C0CFA00F3B1F800C00CEA03069E42ED
:1005C00020D183004FF00F0C0CFA03F7BC4305FA5F
:1005D00003FC4CEA040491F803C0BCF1280F06D1D7
:1005E0004FF0010C0CFA00FCC2F814C00AE091F8BC
:1005F00003C0BCF1480F05D14FF0010C0CFA00FC10
:10060000C2F810C0401C0828D1D31460B1F800C053
:10061000BCF1FF0F34DD546800202EE000F1080C1F
:100620004FF0010808FA0CF3B1F800C00CEA030619
:100630009E4221D183004FF00F0C0CFA03F7BC430C
:1006400005FA03FC4CEA040491F803C0BCF1280F3E
:1006500005D100F1080C08FA0CF8C2F8148091F8E2
:1006600003C0BCF1480F07D100F1080C4FF001089E
:1006700008FA0CF8C2F81080401C0828CED3546049
:10068000BDE8F081F0B50A460023002400210025D2
:1006900000F00046B6F1004F02D11D4EF16901E0B5
:1006A0001B4E7168C0F3034583B200F44016B6F5E3
:1006B000401F08D121F07061154E766826F07066F3
:1006C000134F7E6012E000F48016B6F5801F06D14D
:1006D000032606FA05F4A14341F0706106E0460DD9
:1006E000360103FA06F6B14341F0706122B1460DBE
:1006F000360103FA06F6314300F00046B6F1004F2A
:1007000002D1034EF16101E0014E7160F0BD0000C5
:100710000000014010B5FFF795FD00F009F84FF417
:10072000E13000F0EFFA4FF4E13000F0CFFB10BD04
:1007300008B50121202000F0A5F80420ADF8000044
:1007400010208DF8030003208DF8020069461B4835
:10075000FFF70DFF0121202000F094F80820ADF8EC
:10076000000010208DF8030003208DF80200694678
:100770001248FFF7FCFE0121202000F083F8102032
:10078000ADF800008DF8030003208DF802006946E3
:100790000A48FFF7ECFE0121202000F073F88020CA
:1007A000ADF8000010208DF8030003208DF8020042
:1007B00069460248FFF7DBFE08BD00000014014057
:1007C00070B5002100230F22C47804B3154C2468AF
:1007D00004F4E064C4F5E064210AC1F10403CA40F2
:1007E000447804FA03F184781440214309010E4C43
:1007F0000678A155047804F01F050124AC40057863
:100800006D11AD0005F1E025C5F8004109E004785F
:1008100004F01F050124AC40044D0678761145F81C
:10082000264070BD0CED00E000E400E080E100E057
:1008300002490143024A1160704700000000FA05B6
:100840000CED00E029B1064A52690243044B5A619B
:1008500004E0034A52698243014B5A617047000029
:100860000010024029B1064AD2690243044BDA6102
:1008700004E0034AD2698243014BDA617047000009
:100880000010024029B1064A92690243044B9A6162
:1008900004E0034A92698243014B9A617047000069
:1008A000001002402DE9F041002100220025002324
:1008B0000026002400278C46DFF86081D8F80480E9
:1008C00008F00C0121B1042907D0082959D109E009
:1008D000DFF84C81C0F8008058E0DFF84881C0F8AC
:1008E000008053E0DFF83481D8F8048008F47012F7
:1008F000DFF82881D8F8048008F48035920C0D2A9E
:1009000001D0921C00E0062235B9DFF81C8102FB01
:1009100008F8C0F8008033E0DFF80081D8F82C80B8
:1009200008F48036DFF8F480D8F82C8008F00F083F
:1009300008F1010446B9DFF8EC80B8FBF4F808FBD5
:1009400002F8C0F800801BE0DFF8D080D8F82C80D7
:10095000C8F3031808F10107DFF8C080D8F82C802D
:10096000C8F3032808F1020CDFF8B880B8FBF7F8E9
:1009700008FB0CF8B8FBF4F808FB02F8C0F800809C
:1009800004E0DFF89C80C0F8008000BF00BFDFF803
:100990008C80D8F8048008F0F0010909DFF88C8019
:1009A00018F80130D0F8008028FA03F8C0F8048065
:1009B000DFF86880D8F8048008F4E061090ADFF8FD
:1009C0006C8018F80130D0F8048028FA03F8C0F8D9
:1009D0000880DFF84880D8F8048008F46051C90A1C
:1009E000DFF8488018F80130D0F8048028FA03F8BE
:1009F000C0F80C80DFF82480D8F8048008F4404167
:100A0000890BDFF82C8018F80130D0F80C80B8FB87
:100A1000F3F8C0F81080BDE8F0810000001002403B
:100A200000127A0040787D0100093D005800002046
:100A30006800002010B500F001F810BD0CB50020D2
:100A4000019000903F48006840F480303D490860C4
:100A500000BF3C48006800F4003000900198401C42
:100A60000190009818B90198B0F5A06FF1D1354800
:100A7000006800F4003010B10120009001E0002077
:100A80000090009801285CD12F48006840F01000C9
:100A90002D4908600846006820F0030008600846F9
:100AA000006840F002000860264840682549486018
:100AB0000846406848600846406840F480604860E6
:100AC0000846C06A214908401E49C8620846C06AF3
:100AD0001F4908431B49C8620846006840F080600F
:100AE000086000BF1748006800F000600028F9D0D7
:100AF0001448406820F47C10124948600846406859
:100B000040F4E81048600846006840F080700860D3
:100B100000BF0C48006800F000700028F9D00948B8
:100B2000406820F00300074948600846406840F0EC
:100B30000200486000BF0348406800F00C0008282D
:100B4000F9D10CBD001002400020024000F0FEFF71
:100B50004406010010B51648006840F00100144931
:100B60000860084640681349084011494860084633
:100B70000068114908400E4908600846006820F4E2
:100B8000802008600846406820F4FE00486008465F
:100B9000006820F0A05008604FF47F0088600020BB
:100BA000C862FFF747FF4FF000600449086010BDBE
:100BB000001002400000FFF0FFFFF6FE08ED00E02D
:100BC00000BF00BF1048006880F004000E490860B4
:100BD00000BF00BF0846006880F00800086000BF42
:100BE00000BF0846006880F01000086000BF00BF2A
:100BF0000846006880F08000086000BF4FF47A70FB
:100C000000F0FAFDDDE700000C14014000B585B0EE
:100C10000020019002900390049001200023802284
:100C200005A10090084800F0A7FE012801D000BFF0
:100C3000FEE705B000BD00005461736B5F4C656456
:100C40005F546F67676C6500C10B000810B5FFF754
:100C5000DDFF10BD00B58BB02648FFF7BBFB264873
:100C6000009026480190102002900001039000207F
:100C700004908020059000200690079008904FF483
:100C80004050099000200A9069461A48FFF751FC2D
:100C900000F06AFA01220A211648FFF741FC002100
:100CA0001448FFF78BFB13481430FFF793FB1248EF
:100CB000009013480190002002904FF48070039040
:100CC0000020049080200590002006900790089056
:100CD0004FF44050099000200A90694605481430AE
:100CE000FFF727FC012103481430FFF767FB0BB027
:100CF00000BD0000440002400438014070010020A3
:100D0000700000201FB5044600F076F800F056F899
:100D1000B4F5E13F03D8B4F5966F00D300940020FA
:100D2000ADF80C000C20ADF80A000020ADF808006A
:100D3000ADF80600ADF804006946164800F0A4F9C5
:100D400000F02AF8FFF786FF002240F226611148E2
:100D500000F075F9002240F225510E4800F06FF9BD
:100D6000012240F224410B4800F069F901224021A0
:100D7000084800F04EF901228021064800F049F9A8
:100D80000121044800F039F94021024800F02CF913
:100D90001FBD00000038014008B525208DF8000077
:100DA0000F208DF8010000208DF8020001208DF841
:100DB00003006846FFF704FD08BD000008B51820D1
:100DC0008DF803004FF40070ADF8000003208DF89B
:100DD000020069460748FFF7CAFB48208DF8030068
:100DE0004FF48060ADF8000069460248FFF7BFFB92
:100DF00008BD00000008014010B501210846FFF7BA
:100E000021FD01210420FFF73DFD01210846FFF7E8
:100E100039FD01218803FFF735FD10BD00B58BB00A
:100E20002648FFF7D7FA2648009026480190102060
:100E30000290000103900020049080200590002083
:100E40000690079008904FF44050099000200A90B7
:100E500069461A48FFF76DFB00F097F901220A2155
:100E60001648FFF75DFB00211448FFF7A7FA134867
:100E70001438FFF7AFFA1248009013480190002091
:100E800002904FF480700390002004908020059021
:100E900000200690079008904FF4405009900020E1
:100EA0000A90694605481438FFF743FB01210348BF
:100EB0001438FFF783FA0BB000BD00008000024039
:100EC0000444004073030020730200201FB5044651
:100ED00000F074F800F056F8B4F5E13F03D8B4F52B
:100EE000966F00D300940020ADF80C000C20ADF8F4
:100EF0000A000020ADF80800ADF80600ADF80400C7
:100F00006946164800F0C0F800F02AF8FFF786FF9F
:100F1000002240F22661114800F091F8002240F2D0
:100F200025510E4800F08BF8012240F224410B4875
:100F300000F085F801224021084800F06AF80122FB
:100F40008021064800F065F80121044800F055F8BA
:100F50004021024800F048F81FBD00000044004056
:100F600008B526208DF800000F208DF80100002024
:100F70008DF8020001208DF803006846FFF720FC81
:100F800008BD000008B518208DF803002020ADF83A
:100F9000000002208DF8020069460748FFF7E7FAD3
:100FA00048208DF803004020ADF800006946024853
:100FB000FFF7DDFA08BD00000014014010B5012163
:100FC0000820FFF75FFB01210846FFF73BFC0121EA
:100FD0002020FFF757FC01210846FFF753FC0121B1
:100FE0004804FFF73FFC10BD01F40072B2F5007F2A
:100FF00000D100BFCA430280704721B1828942F408
:101000000052828104E082894DF6FF731A4082818A
:1010100070471AB1838A0B43838202E0838A8B4331
:101020008382704702460020B1F5007F00D100BFE7
:1010300013880B400BB1012000E000207047F0B591
:101040000346002400260025002040F66A17B94216
:1010500000D100BF1846C1F3421401F01F0601275A
:1010600007FA06F5012C01D10C3004E0022C01D165
:10107000103000E014301AB107682F43076002E017
:101080000768AF430760F0BD2DE9F04786B005461D
:101090000E460024A24600BFA1460027B08900B139
:1010A00000BF2F462C8A4CF6FF700440F0880443A2
:1010B0002C82AC894EF6F3100440B0883189084385
:1010C000718908430443AC81AC8A4FF6FF40044069
:1010D000B0890443AC8201A8FFF7E4FB1F488742B4
:1010E00002D1DDF810A001E0DDF80CA0A88900F421
:1010F000004040B10AEBCA0000EB0A103168490019
:10110000B0FBF1F807E00AEBCA0000EB0A10316807
:101110008900B0FBF1F86420B8FBF0F0040120096D
:10112000642101FB1089A88900F4004040B13220FD
:1011300000EBC900B0FBF1F000F00700044308E049
:10114000322000EB09106421B0FBF1F000F00F0039
:1011500004432C8106B0BDE8F08700000038014050
:10116000C1F308028280704708B50E208DF8000098
:1011700004208DF8010000208DF8020001208DF878
:1011800003006846FFF71CFB08BD08B511208DF869
:10119000000004208DF8010000208DF802000120DD
:1011A0008DF803006846FFF70BFB08BD014A0249B2
:1011B00000F013B8FD1100086C00002002E008C820
:1011C000121F08C1002AFAD170477047002001E0C1
:1011D00001C1121F002AFBD170472DE9F0411646CC
:1011E0000F460446002503E03946B047641C6D1CD9
:1011F00020780028F8D12846BDE8F08170B5044673
:101200000D46E1B20548FFF7ABFF00BF40210348A0
:10121000FFF708FF0028F9D0204670BD00440040C9
:10122000FFF714FDFFF776FA41200A4981F8000123
:101230004221084880F80111432180F8021106A0DC
:10124000FFF7B4FF06A0FFF7B1FF00F0EFFA00BF11
:10125000FEE70000700000200D0A48454C4C4F206E
:101260000D0A000070B505460E461D480068001DB9
:1012700000F028FA50B91A48006890F82C100120A4
:10128000884018490968814316480160681C38B9CC
:1012900036B113480168091D134800F051FA1EE0E9
:1012A0001248006844190E48006844600F480068FE
:1012B000844207D20A480168091D0D48006800F001
:1012C00025FA0CE006480168091D0A48006800F08C
:1012D0001DFA09480068844201D20748046070BDC5
:1012E00000000020180000202C0500201400002021
:1012F0000800002004000020300000202DE9F0410B
:1013000007460D4690461DB9B80000F063F900E0AD
:101310002846064686B1B8F1000F03D14C2000F0F4
:1013200059F900E0404604460CB1266305E025B9B2
:10133000304600F033FA00E000242046BDE8F0819A
:1013400070B523E000F0ACFA1348006808B901203A
:1013500000E00020054600F025FCBDB900F0FCF9D6
:101360000D48C068C468201D00F0ACF90B48006847
:10137000401E0A4908600A480068401E0849086083
:1013800000F0FCF9204600F00DF800BF04480068AA
:101390000028D7D170BD00001805002010000020E3
:1013A0000C00002010B50446206B00F0F7F9204631
:1013B00000F0F4F910BD000030B54FF48843174831
:1013C00000F007042CB1C01D20F00700134C041BD3
:1013D0001B1B0246124C22600024114D6C60D01879
:1013E000083820F007000F4C206000240D4D2D68B8
:1013F0006C600C4D2D682C601146441A4C60094CF1
:1014000024680C60084D4C682C60084D4C682C60BA
:101410004FF00044064D2C6030BD00004005002018
:101420003C000020440000204C0000204800002028
:101430005000002000BFFFF783FF06480068012826
:10144000F9D94FF0805004490860BFF34F8FBFF3C4
:101450006F8FF0E77804002004ED00E02DE9F047FD
:1014600004460F4616469946DDF82080002507E021
:10147000795D04F134004155785D00B902E06D1CDE
:10148000102DF5D300BF002143200155052E00D3B8
:101490000426E662201D00F036F904F1180000F081
:1014A00032F92461C6F10500A06164620020606425
:1014B00084F84800BDE8F08710B5002407E004EB8D
:1014C00084010F4A02EB810000F010F9641C052C26
:1014D000F5D30C4800F00AF90B4800F007F90B4867
:1014E00000F004F90A4800F001F90A4800F0FEF89B
:1014F00004480949086004480849086010BD000014
:1015000078040020DC040020F00400200405002002
:10151000180500202C0500200400002008000020F1
:1015200010B50146164800E0006803688B42FBD303
:101530000246436813448B4204D143684C682344F9
:10154000436001460A464B6813440468A34211D124
:101550000C4C03682468A34208D04B680468646894
:1015600023444B6003681B680B6005E0054B1B6858
:101570000B6001E003680B60884200D0016010BD81
:101580003C000020440000200A490968096809B9A4
:10159000012100E0002121B14FF0FF31064A116026
:1015A00006E004490968C968C868034A41681160CF
:1015B00070470000040000203000002000BFBF2062
:1015C00080F31188BFF34F8FBFF36F8F00BF00BF51
:1015D000FEE700002DE9F04105464FF0000800F05D
:1015E0005FF92B48006808B9FFF7E6FE2948006854
:1015F0002840002847D145B1083505F0070020B143
:1016000005F00700C0F108000544002D3BD022483A
:101610000068854237D8214E3046046801E02646EE
:1016200024686068A84202D220680028F7D11848D0
:101630000068844227D0306800F1080820683060D4
:101640006068401B102807D967196068401B7860E4
:1016500065603846FFF764FF0F4960680968081A3B
:101660000D490860084600680D490968884203D2A0
:10167000094800680A490860064960680968084323
:1016800060600020206000F08DFA4046BDE8F081E7
:101690004400002050000020480000203C000020B2
:1016A0004C000020001F4FF080730360001F01609A
:1016B000001F034B0360143802602038704700009D
:1016C000BD15000801460A69D1E901309860D1E9E9
:1016D000010358605068884201D18868506000203A
:1016E00008611068401E10601068704700F1080122
:1016F00041604FF0FF31816000F10801C16001617C
:1017000000210160704700210161704710B5024659
:101710000B685C1C0CB9106907E002F1080000E0DE
:101720004068446824689C42FAD944684C604C681C
:10173000A160886041600A611468641C146010BD77
:1017400042684A6093688B60936859609160086151
:1017500003685B1C0360704700BFBF2080F31188E3
:10176000BFF34F8FBFF36F8F00BF03480068401C6B
:1017700001490860704700005400002006480068D6
:10178000401E054908600846006820B9002080F323
:10179000118800BF00BF70475400002070B5064696
:1017A0003546D6B1083D2C460C49606809680840AA
:1017B00098B1206888B90949606809688843606001
:1017C00000F06EF80649606809680844044908603A
:1017D0002046FFF7A5FE00F0E5F970BD500000209F
:1017E0004800002003484FF0E021486107200861CD
:1017F000704700003F19010070B50446002544B150
:1018000000F04EF800212046FFF72CFD00F0CAF949
:1018100005463DB94FF0805003490860BFF34F8F34
:10182000BFF36F8F70BD000004ED00E0F0B585B030
:1018300000250026802700201249CDE903500346E9
:101840003A468DE8430010A1114800F095F804468F
:10185000012C14D100BFBF2080F31188BFF34F8F3C
:10186000BFF36F8F00BF4FF0FF300A4908600120BF
:101870000949086000200949086000F049F805B0EE
:10188000F0BD00003400002049444C450000000039
:1018900035140008300000201C0000201400002037
:1018A00002480068401C0149086070473800002069
:1018B0001248006818B10120114908601DE000209D
:1018C0000F4908600F480068B0FA80F0C0F11F01AE
:1018D00001EB81020C4B03EB8200426852684260CC
:1018E00000F108024368934202D1426852684260A4
:1018F0004268D268054B1A6000BF7047380000206C
:10190000240000201800002078040020000000209F
:1019100010B50A48006840F47F000849086008468E
:10192000006840F07F400860FFF75CFF002004493A
:101930000860FEF729FC002010BD000020ED00E04B
:101940005400002010B500BFBF2080F31188BFF302
:101950004F8FBFF36F8F00BF00F094F818B14FF0B6
:1019600080500449086000BF002080F3118800BF48
:1019700010BD000004ED00E02DE9FF4F81B080466E
:1019800015469946DDE90E7A2846DDE91012FFF783
:10199000B5FC0446002C4FD0681E216B01EB800B78
:1019A0002BF0070B00953A462046129B0299FFF751
:1019B00055FD4A4641465846FFF774FE2060BAF18D
:1019C000000F01D0CAF80040FFF7C6FE26480068A5
:1019D000401C254908602548006840B92348046038
:1019E0000846006801280CD1FFF766FD09E0204891
:1019F000006830B91D480068C06AB84201D81B4869
:101A000004601C480068401C1A49086094F82C10B7
:101A10000120884018490968084317490860E16AAD
:101A200001EB8101154A02EB8100211DFFF788FEC1
:101A30000126FFF7A3FE01E04FF0FF36012E0ED185
:101A40000B48006858B109480068C06AB84206D21D
:101A500030070B490860BFF34F8FBFF36F8F3046DD
:101A600005B0BDE8F08F000010000020000000204D
:101A70001C0000202C00002018000020780400200A
:101A800004ED00E02DE9F04100273B480068002804
:101A900065D13A480068401C384908600846066825
:101AA0008EB93748D0F8008036480068344908605D
:101AB0003448C0F8008034480068401C324908604F
:101AC000FFF762FD00BF3148006886423BD300BF8C
:101AD0002B480068006808B9012000E0002020B110
:101AE0004FF0FF30294908602CE025480068C068A5
:101AF000C4686568AE4202D22448056022E0201D19
:101B0000FFF7E0FDA06A18B104F11800FFF7DAFD55
:101B100094F82C10012088401D49096808431C498D
:101B20000860E16A01EB81011A4A02EB8100211D84
:101B3000FFF706FE1849E06A0968C96A8842C7D3F8
:101B40000127C5E700BF14480068C06A00EB8000A9
:101B5000104951F82000012806D9012704E00F4858
:101B60000068401C0D4908600D48006800B101275D
:101B70003846BDE8F0810000380000201400002045
:101B80000400002008000020280000203000002071
:101B90001800002078040020000000202000002011
:101BA0002400002070B500240025FFF7D5FD304843
:101BB0000068401E2E49086008460068002852D17F
:101BC0002C48006800284ED024E02B48C068C46828
:101BD00004F11800FFF776FD201DFFF773FD94F860
:101BE0002C100120884025490968084323490860D2
:101BF000E16A01EB8101224A02EB8100211DFFF71E
:101C00009FFD2049E06A0968C96A884202D3012021
:101C10001D4908601848006808B9012000E000204C
:101C20000028D2D00CB1FFF7AFFC1848006878B19B
:101C30000AE0FFF727FF10B101201349086013489D
:101C40000068401E11490860104800680028F0D163
:101C50000D48006838B1012528070D490860BFF319
:101C60004F8FBFF36F8FFFF789FD284670BD0000CF
:101C7000380000201000002004050020180000207B
:101C80007804002000000020240000202000002014
:101C900004ED00E0B41C000800000020700000000B
:101CA000BC110008241D000870000020D04C00006A
:101CB000CC1100080000000000000000000000003F
:101CC0000000000000000000000000000000000014
:101CD0000000000000000000000000000000000004
:101CE00000000000000000000000000000000000F4
:101CF00000000000000000000000000000000000E4
:101D00000000000000000000AAAAAAAA000000002B
:101D1000010203040102030406070809020406087D
:041D200000000000BF
:04000005080001519D
:00000001FF
